{
	"data": {
		"bytecode": {
			"linkReferences": {
				"remix_accounts.sol": {
					"TestsAccounts": [
						{
							"length": 20,
							"start": 243
						}
					]
				},
				"remix_tests.sol": {
					"Assert": [
						{
							"length": 20,
							"start": 470
						},
						{
							"length": 20,
							"start": 1126
						},
						{
							"length": 20,
							"start": 1450
						}
					]
				}
			},
			"object": "608060405234801561001057600080fd5b50613293806100206000396000f3fe608060405260043610620000445760003560e01c80636e8ccbd914620000495780637fea0d4b14620000555780639d9dbf4c1462000061578063b70b13ff146200007b575b600080fd5b6200005362000095565b005b6200005f620002f5565b005b3480156200006e57600080fd5b506200007962000444565b005b3480156200008857600080fd5b506200009362000588565b005b60008054906101000a900473ffffffffffffffffffffffffffffffffffffffff1673ffffffffffffffffffffffffffffffffffffffff1663a9059cbb73__$1068a87eb54ed04c4e435de35b2ebf536f$__63ce88b14560026040518263ffffffff1660e01b81526004016200010b919062000a20565b60206040518083038186803b1580156200012457600080fd5b505af415801562000139573d6000803e3d6000fd5b505050506040513d601f19601f820116820180604052508101906200015f91906200078f565b600a6040518363ffffffff1660e01b815260040162000180929190620009d6565b600060405180830381600087803b1580156200019b57600080fd5b505af1158015620001b0573d6000803e3d6000fd5b5050505073__$acbfb1c35000d78352310b16a054a6b106$__63abcd796060008054906101000a900473ffffffffffffffffffffffffffffffffffffffff1673ffffffffffffffffffffffffffffffffffffffff166327e235e3336040518263ffffffff1660e01b8152600401620002299190620009b9565b60206040518083038186803b1580156200024257600080fd5b505afa15801562000257573d6000803e3d6000fd5b505050506040513d601f19601f820116820180604052508101906200027d919062000844565b60006040518363ffffffff1660e01b81526004016200029e92919062000ad9565b60206040518083038186803b158015620002b757600080fd5b505af4158015620002cc573d6000803e3d6000fd5b505050506040513d601f19601f82011682018060405250810190620002f29190620007c1565b50565b6040516200030390620006be565b604051809103906000f08015801562000320573d6000803e3d6000fd5b506000806101000a81548173ffffffffffffffffffffffffffffffffffffffff021916908373ffffffffffffffffffffffffffffffffffffffff16021790555060008054906101000a900473ffffffffffffffffffffffffffffffffffffffff1673ffffffffffffffffffffffffffffffffffffffff16638da5cb5b6040518163ffffffff1660e01b815260040160206040518083038186803b158015620003c757600080fd5b505afa158015620003dc573d6000803e3d6000fd5b505050506040513d601f19601f820116820180604052508101906200040291906200078f565b600160006101000a81548173ffffffffffffffffffffffffffffffffffffffff021916908373ffffffffffffffffffffffffffffffffffffffff160217905550565b73__$acbfb1c35000d78352310b16a054a6b106$__63e8c2cb1660008054906101000a900473ffffffffffffffffffffffffffffffffffffffff1673ffffffffffffffffffffffffffffffffffffffff1663b7928b4f60006040518263ffffffff1660e01b8152600401620004ba919062000a03565b60006040518083038186803b158015620004d357600080fd5b505afa158015620004e8573d6000803e3d6000fd5b505050506040513d6000823e3d601f19601f82011682018060405250810190620005139190620007f3565b6040518263ffffffff1660e01b815260040162000531919062000a8b565b60206040518083038186803b1580156200054a57600080fd5b505af41580156200055f573d6000803e3d6000fd5b505050506040513d601f19601f82011682018060405250810190620005859190620007c1565b50565b73__$acbfb1c35000d78352310b16a054a6b106$__63e8c2cb1660008054906101000a900473ffffffffffffffffffffffffffffffffffffffff1673ffffffffffffffffffffffffffffffffffffffff1663399a158a6040518163ffffffff1660e01b815260040160006040518083038186803b1580156200060957600080fd5b505afa1580156200061e573d6000803e3d6000fd5b505050506040513d6000823e3d601f19601f82011682018060405250810190620006499190620007f3565b6040518263ffffffff1660e01b815260040162000667919062000a3d565b60206040518083038186803b1580156200068057600080fd5b505af415801562000695573d6000803e3d6000fd5b505050506040513d601f19601f82011682018060405250810190620006bb9190620007c1565b50565b61248f8062000dcf83390190565b6000620006e3620006dd8462000b44565b62000b1b565b90508281526020810184848401111562000702576200070162000cbc565b5b6200070f84828562000c1c565b509392505050565b600081519050620007288162000d80565b92915050565b6000815190506200073f8162000d9a565b92915050565b600082601f8301126200075d576200075c62000cb7565b5b81516200076f848260208601620006cc565b91505092915050565b600081519050620007898162000db4565b92915050565b600060208284031215620007a857620007a762000cc6565b5b6000620007b88482850162000717565b91505092915050565b600060208284031215620007da57620007d962000cc6565b5b6000620007ea848285016200072e565b91505092915050565b6000602082840312156200080c576200080b62000cc6565b5b600082015167ffffffffffffffff8111156200082d576200082c62000cc1565b5b6200083b8482850162000745565b91505092915050565b6000602082840312156200085d576200085c62000cc6565b5b60006200086d8482850162000778565b91505092915050565b620008818162000b96565b82525050565b620008928162000be0565b82525050565b620008a38162000be0565b82525050565b620008b48162000bf4565b82525050565b620008c58162000c08565b82525050565b6000620008d88262000b7a565b620008e4818562000b85565b9350620008f681856020860162000c1c565b620009018162000ccb565b840191505092915050565b60006200091b60208362000b85565b9150620009288262000cdc565b602082019050919050565b60006200094260168362000b85565b91506200094f8262000d05565b602082019050919050565b600062000969600f8362000b85565b9150620009768262000d2e565b602082019050919050565b600062000990600b8362000b85565b91506200099d8262000d57565b602082019050919050565b620009b38162000bd6565b82525050565b6000602082019050620009d0600083018462000876565b92915050565b6000604082019050620009ed600083018562000876565b620009fc6020830184620008a9565b9392505050565b600060208201905062000a1a600083018462000887565b92915050565b600060208201905062000a376000830184620008ba565b92915050565b6000606082019050818103600083015262000a598184620008cb565b9050818103602083015262000a6e816200095a565b9050818103604083015262000a838162000933565b905092915050565b6000606082019050818103600083015262000aa78184620008cb565b9050818103602083015262000abc8162000981565b9050818103604083015262000ad18162000933565b905092915050565b600060608201905062000af06000830185620009a8565b62000aff602083018462000898565b818103604083015262000b12816200090c565b90509392505050565b600062000b2762000b3a565b905062000b35828262000c52565b919050565b6000604051905090565b600067ffffffffffffffff82111562000b625762000b6162000c88565b5b62000b6d8262000ccb565b9050602081019050919050565b600081519050919050565b600082825260208201905092915050565b600062000ba38262000bb6565b9050919050565b60008115159050919050565b600073ffffffffffffffffffffffffffffffffffffffff82169050919050565b6000819050919050565b600062000bed8262000bd6565b9050919050565b600062000c018262000bd6565b9050919050565b600062000c158262000bd6565b9050919050565b60005b8381101562000c3c57808201518184015260208101905062000c1f565b8381111562000c4c576000848401525b50505050565b62000c5d8262000ccb565b810181811067ffffffffffffffff8211171562000c7f5762000c7e62000c88565b5b80604052505050565b7f4e487b7100000000000000000000000000000000000000000000000000000000600052604160045260246000fd5b600080fd5b600080fd5b600080fd5b600080fd5b6000601f19601f8301169050919050565b7f5472616e7366657220636f727265637420627574206d757374206265206e6f74600082015250565b7f526561736f6e206d7573742062652064656661756c7400000000000000000000600082015250565b7f303a094e6f7420626c6f636b65640a0000000000000000000000000000000000600082015250565b7f4e6f7420626c6f636b6564000000000000000000000000000000000000000000600082015250565b62000d8b8162000b96565b811462000d9757600080fd5b50565b62000da58162000baa565b811462000db157600080fd5b50565b62000dbf8162000bd6565b811462000dcb57600080fd5b5056fe60806040523480156200001157600080fd5b50336000806101000a81548173ffffffffffffffffffffffffffffffffffffffff021916908373ffffffffffffffffffffffffffffffffffffffff1602179055506200009a60006040518060400160405280600b81526020017f4e6f7420626c6f636b6564000000000000000000000000000000000000000000815250620000a060201b60201c565b62000355565b60008054906101000a900473ffffffffffffffffffffffffffffffffffffffff1673ffffffffffffffffffffffffffffffffffffffff163373ffffffffffffffffffffffffffffffffffffffff161462000131576040517f08c379a0000000000000000000000000000000000000000000000000000000008152600401620001289062000294565b60405180910390fd5b600380549050600660008481526020019081526020016000208190555060036040518060400160405280848152602001838152509080600181540180825580915050600190039060005260206000209060020201600090919091909150600082015181600001556020820151816001019080519060200190620001b6929190620001bd565b5050505050565b828054620001cb90620002c7565b90600052602060002090601f016020900481019282620001ef57600085556200023b565b82601f106200020a57805160ff19168380011785556200023b565b828001600101855582156200023b579182015b828111156200023a5782518255916020019190600101906200021d565b5b5090506200024a91906200024e565b5090565b5b80821115620002695760008160009055506001016200024f565b5090565b60006200027c601383620002b6565b915062000289826200032c565b602082019050919050565b60006020820190508181036000830152620002af816200026d565b9050919050565b600082825260208201905092915050565b60006002820490506001821680620002e057607f821691505b60208210811415620002f757620002f6620002fd565b5b50919050565b7f4e487b7100000000000000000000000000000000000000000000000000000000600052602260045260246000fd5b7f43616c6c6572206973206e6f74206f776e657200000000000000000000000000600082015250565b61212a80620003656000396000f3fe608060405234801561001057600080fd5b50600436106100ea5760003560e01c80636b9939f41161008c578063a9059cbb11610066578063a9059cbb1461024a578063b7928b4f14610266578063cbcabdb214610296578063faea13a3146102b2576100ea565b80636b9939f4146101f45780638da5cb5b14610210578063a0712d681461022e576100ea565b80632cfdbf71116100c85780632cfdbf7114610157578063399a158a1461018857806339d319e5146101a65780633af2d5e7146101c2576100ea565b8063070f843f146100ef578063253c8bd41461010b57806327e235e314610127575b600080fd5b6101096004803603810190610104919061191e565b6102e2565b005b61012560048036038101906101209190611831565b6103fa565b005b610141600480360381019061013c9190611831565b610504565b60405161014e9190611b2c565b60405180910390f35b610171600480360381019061016c91906118f1565b61051c565b60405161017f929190611b7e565b60405180910390f35b6101906105d8565b60405161019d9190611aca565b60405180910390f35b6101c060048036038101906101bb9190611831565b610785565b005b6101dc60048036038101906101d79190611831565b6108ac565b6040516101eb93929190611b47565b60405180910390f35b61020e6004803603810190610209919061185e565b6108e3565b005b610218610a0a565b6040516102259190611a26565b60405180910390f35b610248600480360381019061024391906118f1565b610a2e565b005b610264600480360381019061025f919061185e565b610b6a565b005b610280600480360381019061027b91906118f1565b6111e3565b60405161028d9190611aca565b60405180910390f35b6102b060048036038101906102ab919061189e565b6112ad565b005b6102cc60048036038101906102c791906118f1565b6113d4565b6040516102d99190611b2c565b60405180910390f35b60008054906101000a900473ffffffffffffffffffffffffffffffffffffffff1673ffffffffffffffffffffffffffffffffffffffff163373ffffffffffffffffffffffffffffffffffffffff1614610370576040517f08c379a000000000000000000000000000000000000000000000000000000000815260040161036790611aec565b60405180910390fd5b6003805490506006600084815260200190815260200160002081905550600360405180604001604052808481526020018381525090806001815401808255809150506001900390600052602060002090600202016000909190919091506000820151816000015560208201518160010190805190602001906103f39291906116f4565b5050505050565b60008054906101000a900473ffffffffffffffffffffffffffffffffffffffff1673ffffffffffffffffffffffffffffffffffffffff163373ffffffffffffffffffffffffffffffffffffffff1614610488576040517f08c379a000000000000000000000000000000000000000000000000000000000815260040161047f90611aec565b60405180910390fd5b336000806101000a81548173ffffffffffffffffffffffffffffffffffffffff021916908373ffffffffffffffffffffffffffffffffffffffff1602179055507fb532073b38c83145e3e5135377a08bf9aab55bc0fd7c1179cd4fb995d2a5159c33826040516104f9929190611a41565b60405180910390a150565b60046020528060005260406000206000915090505481565b6003818154811061052c57600080fd5b906000526020600020906002020160009150905080600001549080600101805461055590611e03565b80601f016020809104026020016040519081016040528092919081815260200182805461058190611e03565b80156105ce5780601f106105a3576101008083540402835291602001916105ce565b820191906000526020600020905b8154815290600101906020018083116105b157829003601f168201915b5050505050905082565b6060600080604051806020016040528060008152509050600091505b60038054905082101561077d5761076a816107656106746106396003878154811061062257610621611f3c565b5b9060005260206000209060020201600001546113ec565b6040518060400160405280600281526020017f3a09000000000000000000000000000000000000000000000000000000000000815250611575565b6107606003878154811061068b5761068a611f3c565b5b906000526020600020906002020160010180546106a790611e03565b80601f01602080910402602001604051908101604052809291908181526020018280546106d390611e03565b80156107205780601f106106f557610100808354040283529160200191610720565b820191906000526020600020905b81548152906001019060200180831161070357829003601f168201915b50505050506040518060400160405280600181526020017f0a00000000000000000000000000000000000000000000000000000000000000815250611575565b611575565b611575565b90508161077690611e66565b91506105f4565b809250505090565b60008054906101000a900473ffffffffffffffffffffffffffffffffffffffff1673ffffffffffffffffffffffffffffffffffffffff163373ffffffffffffffffffffffffffffffffffffffff1614610813576040517f08c379a000000000000000000000000000000000000000000000000000000000815260040161080a90611aec565b60405180910390fd5b6040518060600160405280600081526020016000151581526020016000815250600560008373ffffffffffffffffffffffffffffffffffffffff1673ffffffffffffffffffffffffffffffffffffffff1681526020019081526020016000206000820151816000015560208201518160010160006101000a81548160ff0219169083151502179055506040820151816002015590505050565b60056020528060005260406000206000915090508060000154908060010160009054906101000a900460ff16908060020154905083565b60008054906101000a900473ffffffffffffffffffffffffffffffffffffffff1673ffffffffffffffffffffffffffffffffffffffff163373ffffffffffffffffffffffffffffffffffffffff1614610971576040517f08c379a000000000000000000000000000000000000000000000000000000000815260040161096890611aec565b60405180910390fd5b60405180606001604052808281526020016001151581526020016000815250600560008473ffffffffffffffffffffffffffffffffffffffff1673ffffffffffffffffffffffffffffffffffffffff1681526020019081526020016000206000820151816000015560208201518160010160006101000a81548160ff021916908315150217905550604082015181600201559050505050565b60008054906101000a900473ffffffffffffffffffffffffffffffffffffffff1681565b60008054906101000a900473ffffffffffffffffffffffffffffffffffffffff1673ffffffffffffffffffffffffffffffffffffffff163373ffffffffffffffffffffffffffffffffffffffff1614610abc576040517f08c379a0000000000000000000000000000000000000000000000000000000008152600401610ab390611aec565b60405180910390fd5b8060016000016000828254610ad19190611c20565b9250508190555080600460003373ffffffffffffffffffffffffffffffffffffffff1673ffffffffffffffffffffffffffffffffffffffff1681526020019081526020016000206000828254610b279190611c20565b925050819055507f30385c845b448a36257a6a1716e6ad2e1bc2cbe333cde1e69fe849ad6511adfe3382604051610b5f929190611aa1565b60405180910390a150565b60008111610bad576040517f08c379a0000000000000000000000000000000000000000000000000000000008152600401610ba490611b0c565b60405180910390fd5b600560003373ffffffffffffffffffffffffffffffffffffffff1673ffffffffffffffffffffffffffffffffffffffff16815260200190815260200160002060010160009054906101000a900460ff1615610c6a6040518060600160405280602d8152602001612092602d9139610c65600560003373ffffffffffffffffffffffffffffffffffffffff1673ffffffffffffffffffffffffffffffffffffffff168152602001908152602001600020600001546111e3565b611575565b90610cab576040517f08c379a0000000000000000000000000000000000000000000000000000000008152600401610ca29190611aca565b60405180910390fd5b5080600560003373ffffffffffffffffffffffffffffffffffffffff1673ffffffffffffffffffffffffffffffffffffffff16815260200190815260200160002060020154600460003373ffffffffffffffffffffffffffffffffffffffff1673ffffffffffffffffffffffffffffffffffffffff16815260200190815260200160002054610d3a9190611d38565b1015610f52610e33610df86040518060600160405280603681526020016120bf60369139610df3600560003373ffffffffffffffffffffffffffffffffffffffff1673ffffffffffffffffffffffffffffffffffffffff16815260200190815260200160002060020154600460003373ffffffffffffffffffffffffffffffffffffffff1673ffffffffffffffffffffffffffffffffffffffff16815260200190815260200160002054610dee9190611d38565b6113ec565b611575565b6040518060400160405280600281526020017f290a000000000000000000000000000000000000000000000000000000000000815250611575565b610f4d610ebf6040518060400160405280600981526020017f596f752068617665200000000000000000000000000000000000000000000000815250610eba600560003373ffffffffffffffffffffffffffffffffffffffff1673ffffffffffffffffffffffffffffffffffffffff168152602001908152602001600020600201546113ec565b611575565b610f486040518060400160405280601e81526020017f20626c6f636b6564204a445275626c657320627920726561736f6e3a0a090000815250610f43600560003373ffffffffffffffffffffffffffffffffffffffff1673ffffffffffffffffffffffffffffffffffffffff168152602001908152602001600020600001546111e3565b611575565b611575565b611575565b90610f93576040517f08c379a0000000000000000000000000000000000000000000000000000000008152600401610f8a9190611aca565b60405180910390fd5b5080600460003373ffffffffffffffffffffffffffffffffffffffff1673ffffffffffffffffffffffffffffffffffffffff16815260200190815260200160002054101561107e6110436040518060600160405280602c8152602001612066602c913961103e600460003373ffffffffffffffffffffffffffffffffffffffff1673ffffffffffffffffffffffffffffffffffffffff168152602001908152602001600020546113ec565b611575565b6040518060400160405280600181526020017f2900000000000000000000000000000000000000000000000000000000000000815250611575565b906110bf576040517f08c379a00000000000000000000000000000000000000000000000000000000081526004016110b69190611aca565b60405180910390fd5b5080600460003373ffffffffffffffffffffffffffffffffffffffff1673ffffffffffffffffffffffffffffffffffffffff1681526020019081526020016000205461110b9190611d38565b600460003373ffffffffffffffffffffffffffffffffffffffff1673ffffffffffffffffffffffffffffffffffffffff1681526020019081526020016000208190555080600460008473ffffffffffffffffffffffffffffffffffffffff1673ffffffffffffffffffffffffffffffffffffffff168152602001908152602001600020600082825461119d9190611c20565b925050819055507f8930ac7bcb101f94c05b13845098ae74383bfb9e348e73061b730040945cbb823383836040516111d793929190611a6a565b60405180910390a15050565b6060600360066000848152602001908152602001600020548154811061120c5761120b611f3c565b5b9060005260206000209060020201600101805461122890611e03565b80601f016020809104026020016040519081016040528092919081815260200182805461125490611e03565b80156112a15780601f10611276576101008083540402835291602001916112a1565b820191906000526020600020905b81548152906001019060200180831161128457829003601f168201915b50505050509050919050565b60008054906101000a900473ffffffffffffffffffffffffffffffffffffffff1673ffffffffffffffffffffffffffffffffffffffff163373ffffffffffffffffffffffffffffffffffffffff161461133b576040517f08c379a000000000000000000000000000000000000000000000000000000000815260040161133290611aec565b60405180910390fd5b604051806060016040528083815260200160001515815260200182815250600560008573ffffffffffffffffffffffffffffffffffffffff1673ffffffffffffffffffffffffffffffffffffffff1681526020019081526020016000206000820151816000015560208201518160010160006101000a81548160ff02191690831515021790555060408201518160020155905050505050565b60066020528060005260406000206000915090505481565b60606000821415611434576040518060400160405280600181526020017f30000000000000000000000000000000000000000000000000000000000000008152509050611570565b600082905060005b6000821461146657808061144f90611e66565b915050600a8261145f9190611cad565b915061143c565b60008167ffffffffffffffff81111561148257611481611f6b565b5b6040519080825280601f01601f1916602001820160405280156114b45781602001600182028036833780820191505090505b50905060008290505b60008614611568576001816114d29190611d38565b90506000600a80886114e49190611cad565b6114ee9190611cde565b876114f99190611d38565b60306115059190611c76565b905060008160f81b90508084848151811061152357611522611f3c565b5b60200101907effffffffffffffffffffffffffffffffffffffffffffffffffffffffffffff1916908160001a905350600a8861155f9190611cad565b975050506114bd565b819450505050505b919050565b60606000825184516115879190611c20565b67ffffffffffffffff8111156115a05761159f611f6b565b5b6040519080825280601f01601f1916602001820160405280156115d25781602001600182028036833780820191505090505b50905060005b8451811015611654578481815181106115f4576115f3611f3c565b5b602001015160f81c60f81b82828151811061161257611611611f3c565b5b60200101907effffffffffffffffffffffffffffffffffffffffffffffffffffffffffffff1916908160001a905350808061164c90611e66565b9150506115d8565b5b83518551826116649190611d38565b10156116e957838551826116789190611d38565b8151811061168957611688611f3c565b5b602001015160f81c60f81b8282815181106116a7576116a6611f3c565b5b60200101907effffffffffffffffffffffffffffffffffffffffffffffffffffffffffffff1916908160001a90535080806116e190611e66565b915050611655565b819250505092915050565b82805461170090611e03565b90600052602060002090601f0160209004810192826117225760008555611769565b82601f1061173b57805160ff1916838001178555611769565b82800160010185558215611769579182015b8281111561176857825182559160200191906001019061174d565b5b509050611776919061177a565b5090565b5b8082111561179357600081600090555060010161177b565b5090565b60006117aa6117a584611bd3565b611bae565b9050828152602081018484840111156117c6576117c5611f9f565b5b6117d1848285611dc1565b509392505050565b6000813590506117e881612037565b92915050565b600082601f83011261180357611802611f9a565b5b8135611813848260208601611797565b91505092915050565b60008135905061182b8161204e565b92915050565b60006020828403121561184757611846611fa9565b5b6000611855848285016117d9565b91505092915050565b6000806040838503121561187557611874611fa9565b5b6000611883858286016117d9565b92505060206118948582860161181c565b9150509250929050565b6000806000606084860312156118b7576118b6611fa9565b5b60006118c5868287016117d9565b93505060206118d68682870161181c565b92505060406118e78682870161181c565b9150509250925092565b60006020828403121561190757611906611fa9565b5b60006119158482850161181c565b91505092915050565b6000806040838503121561193557611934611fa9565b5b60006119438582860161181c565b925050602083013567ffffffffffffffff81111561196457611963611fa4565b5b611970858286016117ee565b9150509250929050565b61198381611d6c565b82525050565b61199281611d7e565b82525050565b60006119a382611c04565b6119ad8185611c0f565b93506119bd818560208601611dd0565b6119c681611fae565b840191505092915050565b60006119de601383611c0f565b91506119e982611fbf565b602082019050919050565b6000611a01602983611c0f565b9150611a0c82611fe8565b604082019050919050565b611a2081611daa565b82525050565b6000602082019050611a3b600083018461197a565b92915050565b6000604082019050611a56600083018561197a565b611a63602083018461197a565b9392505050565b6000606082019050611a7f600083018661197a565b611a8c602083018561197a565b611a996040830184611a17565b949350505050565b6000604082019050611ab6600083018561197a565b611ac36020830184611a17565b9392505050565b60006020820190508181036000830152611ae48184611998565b905092915050565b60006020820190508181036000830152611b05816119d1565b9050919050565b60006020820190508181036000830152611b25816119f4565b9050919050565b6000602082019050611b416000830184611a17565b92915050565b6000606082019050611b5c6000830186611a17565b611b696020830185611989565b611b766040830184611a17565b949350505050565b6000604082019050611b936000830185611a17565b8181036020830152611ba58184611998565b90509392505050565b6000611bb8611bc9565b9050611bc48282611e35565b919050565b6000604051905090565b600067ffffffffffffffff821115611bee57611bed611f6b565b5b611bf782611fae565b9050602081019050919050565b600081519050919050565b600082825260208201905092915050565b6000611c2b82611daa565b9150611c3683611daa565b9250827fffffffffffffffffffffffffffffffffffffffffffffffffffffffffffffffff03821115611c6b57611c6a611eaf565b5b828201905092915050565b6000611c8182611db4565b9150611c8c83611db4565b92508260ff03821115611ca257611ca1611eaf565b5b828201905092915050565b6000611cb882611daa565b9150611cc383611daa565b925082611cd357611cd2611ede565b5b828204905092915050565b6000611ce982611daa565b9150611cf483611daa565b9250817fffffffffffffffffffffffffffffffffffffffffffffffffffffffffffffffff0483118215151615611d2d57611d2c611eaf565b5b828202905092915050565b6000611d4382611daa565b9150611d4e83611daa565b925082821015611d6157611d60611eaf565b5b828203905092915050565b6000611d7782611d8a565b9050919050565b60008115159050919050565b600073ffffffffffffffffffffffffffffffffffffffff82169050919050565b6000819050919050565b600060ff82169050919050565b82818337600083830152505050565b60005b83811015611dee578082015181840152602081019050611dd3565b83811115611dfd576000848401525b50505050565b60006002820490506001821680611e1b57607f821691505b60208210811415611e2f57611e2e611f0d565b5b50919050565b611e3e82611fae565b810181811067ffffffffffffffff82111715611e5d57611e5c611f6b565b5b80604052505050565b6000611e7182611daa565b91507fffffffffffffffffffffffffffffffffffffffffffffffffffffffffffffffff821415611ea457611ea3611eaf565b5b600182019050919050565b7f4e487b7100000000000000000000000000000000000000000000000000000000600052601160045260246000fd5b7f4e487b7100000000000000000000000000000000000000000000000000000000600052601260045260246000fd5b7f4e487b7100000000000000000000000000000000000000000000000000000000600052602260045260246000fd5b7f4e487b7100000000000000000000000000000000000000000000000000000000600052603260045260246000fd5b7f4e487b7100000000000000000000000000000000000000000000000000000000600052604160045260246000fd5b600080fd5b600080fd5b600080fd5b600080fd5b6000601f19601f8301169050919050565b7f43616c6c6572206973206e6f74206f776e657200000000000000000000000000600082015250565b7f416d6f756e74206f66204a445275626c6573206d75737420626520677265617460008201527f6572207468616e20300000000000000000000000000000000000000000000000602082015250565b61204081611d6c565b811461204b57600080fd5b50565b61205781611daa565b811461206257600080fd5b5056fe596f752063616e27742073656e64206d6f7265207468616e20796f752068617665204a445275626c65732028596f7572206163636f756e742077617320746f74616c6c7920626c6f636b656420627920726561736f6e3a0a09596f752063616e27742073656e64206d6f7265207468616e20796f75206861766520756e626c6f636b6564204a445275626c65732028a2646970667358221220cd5ece2b6b290bc0fb0e682a49b3146ec253eb6e6d73ff9375cf85516825bb3d64736f6c63430008070033a2646970667358221220eb97b3c5f5ea87da7b970077bbdca26236ae5d83ca08f8d1f8c060368bbcfeef64736f6c63430008070033",
			"opcodes": "PUSH1 0x80 PUSH1 0x40 MSTORE CALLVALUE DUP1 ISZERO PUSH2 0x10 JUMPI PUSH1 0x0 DUP1 REVERT JUMPDEST POP PUSH2 0x3293 DUP1 PUSH2 0x20 PUSH1 0x0 CODECOPY PUSH1 0x0 RETURN INVALID PUSH1 0x80 PUSH1 0x40 MSTORE PUSH1 0x4 CALLDATASIZE LT PUSH3 0x44 JUMPI PUSH1 0x0 CALLDATALOAD PUSH1 0xE0 SHR DUP1 PUSH4 0x6E8CCBD9 EQ PUSH3 0x49 JUMPI DUP1 PUSH4 0x7FEA0D4B EQ PUSH3 0x55 JUMPI DUP1 PUSH4 0x9D9DBF4C EQ PUSH3 0x61 JUMPI DUP1 PUSH4 0xB70B13FF EQ PUSH3 0x7B JUMPI JUMPDEST PUSH1 0x0 DUP1 REVERT JUMPDEST PUSH3 0x53 PUSH3 0x95 JUMP JUMPDEST STOP JUMPDEST PUSH3 0x5F PUSH3 0x2F5 JUMP JUMPDEST STOP JUMPDEST CALLVALUE DUP1 ISZERO PUSH3 0x6E JUMPI PUSH1 0x0 DUP1 REVERT JUMPDEST POP PUSH3 0x79 PUSH3 0x444 JUMP JUMPDEST STOP JUMPDEST CALLVALUE DUP1 ISZERO PUSH3 0x88 JUMPI PUSH1 0x0 DUP1 REVERT JUMPDEST POP PUSH3 0x93 PUSH3 0x588 JUMP JUMPDEST STOP JUMPDEST PUSH1 0x0 DUP1 SLOAD SWAP1 PUSH2 0x100 EXP SWAP1 DIV PUSH20 0xFFFFFFFFFFFFFFFFFFFFFFFFFFFFFFFFFFFFFFFF AND PUSH20 0xFFFFFFFFFFFFFFFFFFFFFFFFFFFFFFFFFFFFFFFF AND PUSH4 0xA9059CBB PUSH20 0x0 PUSH4 0xCE88B145 PUSH1 0x2 PUSH1 0x40 MLOAD DUP3 PUSH4 0xFFFFFFFF AND PUSH1 0xE0 SHL DUP2 MSTORE PUSH1 0x4 ADD PUSH3 0x10B SWAP2 SWAP1 PUSH3 0xA20 JUMP JUMPDEST PUSH1 0x20 PUSH1 0x40 MLOAD DUP1 DUP4 SUB DUP2 DUP7 DUP1 EXTCODESIZE ISZERO DUP1 ISZERO PUSH3 0x124 JUMPI PUSH1 0x0 DUP1 REVERT JUMPDEST POP GAS DELEGATECALL ISZERO DUP1 ISZERO PUSH3 0x139 JUMPI RETURNDATASIZE PUSH1 0x0 DUP1 RETURNDATACOPY RETURNDATASIZE PUSH1 0x0 REVERT JUMPDEST POP POP POP POP PUSH1 0x40 MLOAD RETURNDATASIZE PUSH1 0x1F NOT PUSH1 0x1F DUP3 ADD AND DUP3 ADD DUP1 PUSH1 0x40 MSTORE POP DUP2 ADD SWAP1 PUSH3 0x15F SWAP2 SWAP1 PUSH3 0x78F JUMP JUMPDEST PUSH1 0xA PUSH1 0x40 MLOAD DUP4 PUSH4 0xFFFFFFFF AND PUSH1 0xE0 SHL DUP2 MSTORE PUSH1 0x4 ADD PUSH3 0x180 SWAP3 SWAP2 SWAP1 PUSH3 0x9D6 JUMP JUMPDEST PUSH1 0x0 PUSH1 0x40 MLOAD DUP1 DUP4 SUB DUP2 PUSH1 0x0 DUP8 DUP1 EXTCODESIZE ISZERO DUP1 ISZERO PUSH3 0x19B JUMPI PUSH1 0x0 DUP1 REVERT JUMPDEST POP GAS CALL ISZERO DUP1 ISZERO PUSH3 0x1B0 JUMPI RETURNDATASIZE PUSH1 0x0 DUP1 RETURNDATACOPY RETURNDATASIZE PUSH1 0x0 REVERT JUMPDEST POP POP POP POP PUSH20 0x0 PUSH4 0xABCD7960 PUSH1 0x0 DUP1 SLOAD SWAP1 PUSH2 0x100 EXP SWAP1 DIV PUSH20 0xFFFFFFFFFFFFFFFFFFFFFFFFFFFFFFFFFFFFFFFF AND PUSH20 0xFFFFFFFFFFFFFFFFFFFFFFFFFFFFFFFFFFFFFFFF AND PUSH4 0x27E235E3 CALLER PUSH1 0x40 MLOAD DUP3 PUSH4 0xFFFFFFFF AND PUSH1 0xE0 SHL DUP2 MSTORE PUSH1 0x4 ADD PUSH3 0x229 SWAP2 SWAP1 PUSH3 0x9B9 JUMP JUMPDEST PUSH1 0x20 PUSH1 0x40 MLOAD DUP1 DUP4 SUB DUP2 DUP7 DUP1 EXTCODESIZE ISZERO DUP1 ISZERO PUSH3 0x242 JUMPI PUSH1 0x0 DUP1 REVERT JUMPDEST POP GAS STATICCALL ISZERO DUP1 ISZERO PUSH3 0x257 JUMPI RETURNDATASIZE PUSH1 0x0 DUP1 RETURNDATACOPY RETURNDATASIZE PUSH1 0x0 REVERT JUMPDEST POP POP POP POP PUSH1 0x40 MLOAD RETURNDATASIZE PUSH1 0x1F NOT PUSH1 0x1F DUP3 ADD AND DUP3 ADD DUP1 PUSH1 0x40 MSTORE POP DUP2 ADD SWAP1 PUSH3 0x27D SWAP2 SWAP1 PUSH3 0x844 JUMP JUMPDEST PUSH1 0x0 PUSH1 0x40 MLOAD DUP4 PUSH4 0xFFFFFFFF AND PUSH1 0xE0 SHL DUP2 MSTORE PUSH1 0x4 ADD PUSH3 0x29E SWAP3 SWAP2 SWAP1 PUSH3 0xAD9 JUMP JUMPDEST PUSH1 0x20 PUSH1 0x40 MLOAD DUP1 DUP4 SUB DUP2 DUP7 DUP1 EXTCODESIZE ISZERO DUP1 ISZERO PUSH3 0x2B7 JUMPI PUSH1 0x0 DUP1 REVERT JUMPDEST POP GAS DELEGATECALL ISZERO DUP1 ISZERO PUSH3 0x2CC JUMPI RETURNDATASIZE PUSH1 0x0 DUP1 RETURNDATACOPY RETURNDATASIZE PUSH1 0x0 REVERT JUMPDEST POP POP POP POP PUSH1 0x40 MLOAD RETURNDATASIZE PUSH1 0x1F NOT PUSH1 0x1F DUP3 ADD AND DUP3 ADD DUP1 PUSH1 0x40 MSTORE POP DUP2 ADD SWAP1 PUSH3 0x2F2 SWAP2 SWAP1 PUSH3 0x7C1 JUMP JUMPDEST POP JUMP JUMPDEST PUSH1 0x40 MLOAD PUSH3 0x303 SWAP1 PUSH3 0x6BE JUMP JUMPDEST PUSH1 0x40 MLOAD DUP1 SWAP2 SUB SWAP1 PUSH1 0x0 CREATE DUP1 ISZERO DUP1 ISZERO PUSH3 0x320 JUMPI RETURNDATASIZE PUSH1 0x0 DUP1 RETURNDATACOPY RETURNDATASIZE PUSH1 0x0 REVERT JUMPDEST POP PUSH1 0x0 DUP1 PUSH2 0x100 EXP DUP2 SLOAD DUP2 PUSH20 0xFFFFFFFFFFFFFFFFFFFFFFFFFFFFFFFFFFFFFFFF MUL NOT AND SWAP1 DUP4 PUSH20 0xFFFFFFFFFFFFFFFFFFFFFFFFFFFFFFFFFFFFFFFF AND MUL OR SWAP1 SSTORE POP PUSH1 0x0 DUP1 SLOAD SWAP1 PUSH2 0x100 EXP SWAP1 DIV PUSH20 0xFFFFFFFFFFFFFFFFFFFFFFFFFFFFFFFFFFFFFFFF AND PUSH20 0xFFFFFFFFFFFFFFFFFFFFFFFFFFFFFFFFFFFFFFFF AND PUSH4 0x8DA5CB5B PUSH1 0x40 MLOAD DUP2 PUSH4 0xFFFFFFFF AND PUSH1 0xE0 SHL DUP2 MSTORE PUSH1 0x4 ADD PUSH1 0x20 PUSH1 0x40 MLOAD DUP1 DUP4 SUB DUP2 DUP7 DUP1 EXTCODESIZE ISZERO DUP1 ISZERO PUSH3 0x3C7 JUMPI PUSH1 0x0 DUP1 REVERT JUMPDEST POP GAS STATICCALL ISZERO DUP1 ISZERO PUSH3 0x3DC JUMPI RETURNDATASIZE PUSH1 0x0 DUP1 RETURNDATACOPY RETURNDATASIZE PUSH1 0x0 REVERT JUMPDEST POP POP POP POP PUSH1 0x40 MLOAD RETURNDATASIZE PUSH1 0x1F NOT PUSH1 0x1F DUP3 ADD AND DUP3 ADD DUP1 PUSH1 0x40 MSTORE POP DUP2 ADD SWAP1 PUSH3 0x402 SWAP2 SWAP1 PUSH3 0x78F JUMP JUMPDEST PUSH1 0x1 PUSH1 0x0 PUSH2 0x100 EXP DUP2 SLOAD DUP2 PUSH20 0xFFFFFFFFFFFFFFFFFFFFFFFFFFFFFFFFFFFFFFFF MUL NOT AND SWAP1 DUP4 PUSH20 0xFFFFFFFFFFFFFFFFFFFFFFFFFFFFFFFFFFFFFFFF AND MUL OR SWAP1 SSTORE POP JUMP JUMPDEST PUSH20 0x0 PUSH4 0xE8C2CB16 PUSH1 0x0 DUP1 SLOAD SWAP1 PUSH2 0x100 EXP SWAP1 DIV PUSH20 0xFFFFFFFFFFFFFFFFFFFFFFFFFFFFFFFFFFFFFFFF AND PUSH20 0xFFFFFFFFFFFFFFFFFFFFFFFFFFFFFFFFFFFFFFFF AND PUSH4 0xB7928B4F PUSH1 0x0 PUSH1 0x40 MLOAD DUP3 PUSH4 0xFFFFFFFF AND PUSH1 0xE0 SHL DUP2 MSTORE PUSH1 0x4 ADD PUSH3 0x4BA SWAP2 SWAP1 PUSH3 0xA03 JUMP JUMPDEST PUSH1 0x0 PUSH1 0x40 MLOAD DUP1 DUP4 SUB DUP2 DUP7 DUP1 EXTCODESIZE ISZERO DUP1 ISZERO PUSH3 0x4D3 JUMPI PUSH1 0x0 DUP1 REVERT JUMPDEST POP GAS STATICCALL ISZERO DUP1 ISZERO PUSH3 0x4E8 JUMPI RETURNDATASIZE PUSH1 0x0 DUP1 RETURNDATACOPY RETURNDATASIZE PUSH1 0x0 REVERT JUMPDEST POP POP POP POP PUSH1 0x40 MLOAD RETURNDATASIZE PUSH1 0x0 DUP3 RETURNDATACOPY RETURNDATASIZE PUSH1 0x1F NOT PUSH1 0x1F DUP3 ADD AND DUP3 ADD DUP1 PUSH1 0x40 MSTORE POP DUP2 ADD SWAP1 PUSH3 0x513 SWAP2 SWAP1 PUSH3 0x7F3 JUMP JUMPDEST PUSH1 0x40 MLOAD DUP3 PUSH4 0xFFFFFFFF AND PUSH1 0xE0 SHL DUP2 MSTORE PUSH1 0x4 ADD PUSH3 0x531 SWAP2 SWAP1 PUSH3 0xA8B JUMP JUMPDEST PUSH1 0x20 PUSH1 0x40 MLOAD DUP1 DUP4 SUB DUP2 DUP7 DUP1 EXTCODESIZE ISZERO DUP1 ISZERO PUSH3 0x54A JUMPI PUSH1 0x0 DUP1 REVERT JUMPDEST POP GAS DELEGATECALL ISZERO DUP1 ISZERO PUSH3 0x55F JUMPI RETURNDATASIZE PUSH1 0x0 DUP1 RETURNDATACOPY RETURNDATASIZE PUSH1 0x0 REVERT JUMPDEST POP POP POP POP PUSH1 0x40 MLOAD RETURNDATASIZE PUSH1 0x1F NOT PUSH1 0x1F DUP3 ADD AND DUP3 ADD DUP1 PUSH1 0x40 MSTORE POP DUP2 ADD SWAP1 PUSH3 0x585 SWAP2 SWAP1 PUSH3 0x7C1 JUMP JUMPDEST POP JUMP JUMPDEST PUSH20 0x0 PUSH4 0xE8C2CB16 PUSH1 0x0 DUP1 SLOAD SWAP1 PUSH2 0x100 EXP SWAP1 DIV PUSH20 0xFFFFFFFFFFFFFFFFFFFFFFFFFFFFFFFFFFFFFFFF AND PUSH20 0xFFFFFFFFFFFFFFFFFFFFFFFFFFFFFFFFFFFFFFFF AND PUSH4 0x399A158A PUSH1 0x40 MLOAD DUP2 PUSH4 0xFFFFFFFF AND PUSH1 0xE0 SHL DUP2 MSTORE PUSH1 0x4 ADD PUSH1 0x0 PUSH1 0x40 MLOAD DUP1 DUP4 SUB DUP2 DUP7 DUP1 EXTCODESIZE ISZERO DUP1 ISZERO PUSH3 0x609 JUMPI PUSH1 0x0 DUP1 REVERT JUMPDEST POP GAS STATICCALL ISZERO DUP1 ISZERO PUSH3 0x61E JUMPI RETURNDATASIZE PUSH1 0x0 DUP1 RETURNDATACOPY RETURNDATASIZE PUSH1 0x0 REVERT JUMPDEST POP POP POP POP PUSH1 0x40 MLOAD RETURNDATASIZE PUSH1 0x0 DUP3 RETURNDATACOPY RETURNDATASIZE PUSH1 0x1F NOT PUSH1 0x1F DUP3 ADD AND DUP3 ADD DUP1 PUSH1 0x40 MSTORE POP DUP2 ADD SWAP1 PUSH3 0x649 SWAP2 SWAP1 PUSH3 0x7F3 JUMP JUMPDEST PUSH1 0x40 MLOAD DUP3 PUSH4 0xFFFFFFFF AND PUSH1 0xE0 SHL DUP2 MSTORE PUSH1 0x4 ADD PUSH3 0x667 SWAP2 SWAP1 PUSH3 0xA3D JUMP JUMPDEST PUSH1 0x20 PUSH1 0x40 MLOAD DUP1 DUP4 SUB DUP2 DUP7 DUP1 EXTCODESIZE ISZERO DUP1 ISZERO PUSH3 0x680 JUMPI PUSH1 0x0 DUP1 REVERT JUMPDEST POP GAS DELEGATECALL ISZERO DUP1 ISZERO PUSH3 0x695 JUMPI RETURNDATASIZE PUSH1 0x0 DUP1 RETURNDATACOPY RETURNDATASIZE PUSH1 0x0 REVERT JUMPDEST POP POP POP POP PUSH1 0x40 MLOAD RETURNDATASIZE PUSH1 0x1F NOT PUSH1 0x1F DUP3 ADD AND DUP3 ADD DUP1 PUSH1 0x40 MSTORE POP DUP2 ADD SWAP1 PUSH3 0x6BB SWAP2 SWAP1 PUSH3 0x7C1 JUMP JUMPDEST POP JUMP JUMPDEST PUSH2 0x248F DUP1 PUSH3 0xDCF DUP4 CODECOPY ADD SWAP1 JUMP JUMPDEST PUSH1 0x0 PUSH3 0x6E3 PUSH3 0x6DD DUP5 PUSH3 0xB44 JUMP JUMPDEST PUSH3 0xB1B JUMP JUMPDEST SWAP1 POP DUP3 DUP2 MSTORE PUSH1 0x20 DUP2 ADD DUP5 DUP5 DUP5 ADD GT ISZERO PUSH3 0x702 JUMPI PUSH3 0x701 PUSH3 0xCBC JUMP JUMPDEST JUMPDEST PUSH3 0x70F DUP5 DUP3 DUP6 PUSH3 0xC1C JUMP JUMPDEST POP SWAP4 SWAP3 POP POP POP JUMP JUMPDEST PUSH1 0x0 DUP2 MLOAD SWAP1 POP PUSH3 0x728 DUP2 PUSH3 0xD80 JUMP JUMPDEST SWAP3 SWAP2 POP POP JUMP JUMPDEST PUSH1 0x0 DUP2 MLOAD SWAP1 POP PUSH3 0x73F DUP2 PUSH3 0xD9A JUMP JUMPDEST SWAP3 SWAP2 POP POP JUMP JUMPDEST PUSH1 0x0 DUP3 PUSH1 0x1F DUP4 ADD SLT PUSH3 0x75D JUMPI PUSH3 0x75C PUSH3 0xCB7 JUMP JUMPDEST JUMPDEST DUP2 MLOAD PUSH3 0x76F DUP5 DUP3 PUSH1 0x20 DUP7 ADD PUSH3 0x6CC JUMP JUMPDEST SWAP2 POP POP SWAP3 SWAP2 POP POP JUMP JUMPDEST PUSH1 0x0 DUP2 MLOAD SWAP1 POP PUSH3 0x789 DUP2 PUSH3 0xDB4 JUMP JUMPDEST SWAP3 SWAP2 POP POP JUMP JUMPDEST PUSH1 0x0 PUSH1 0x20 DUP3 DUP5 SUB SLT ISZERO PUSH3 0x7A8 JUMPI PUSH3 0x7A7 PUSH3 0xCC6 JUMP JUMPDEST JUMPDEST PUSH1 0x0 PUSH3 0x7B8 DUP5 DUP3 DUP6 ADD PUSH3 0x717 JUMP JUMPDEST SWAP2 POP POP SWAP3 SWAP2 POP POP JUMP JUMPDEST PUSH1 0x0 PUSH1 0x20 DUP3 DUP5 SUB SLT ISZERO PUSH3 0x7DA JUMPI PUSH3 0x7D9 PUSH3 0xCC6 JUMP JUMPDEST JUMPDEST PUSH1 0x0 PUSH3 0x7EA DUP5 DUP3 DUP6 ADD PUSH3 0x72E JUMP JUMPDEST SWAP2 POP POP SWAP3 SWAP2 POP POP JUMP JUMPDEST PUSH1 0x0 PUSH1 0x20 DUP3 DUP5 SUB SLT ISZERO PUSH3 0x80C JUMPI PUSH3 0x80B PUSH3 0xCC6 JUMP JUMPDEST JUMPDEST PUSH1 0x0 DUP3 ADD MLOAD PUSH8 0xFFFFFFFFFFFFFFFF DUP2 GT ISZERO PUSH3 0x82D JUMPI PUSH3 0x82C PUSH3 0xCC1 JUMP JUMPDEST JUMPDEST PUSH3 0x83B DUP5 DUP3 DUP6 ADD PUSH3 0x745 JUMP JUMPDEST SWAP2 POP POP SWAP3 SWAP2 POP POP JUMP JUMPDEST PUSH1 0x0 PUSH1 0x20 DUP3 DUP5 SUB SLT ISZERO PUSH3 0x85D JUMPI PUSH3 0x85C PUSH3 0xCC6 JUMP JUMPDEST JUMPDEST PUSH1 0x0 PUSH3 0x86D DUP5 DUP3 DUP6 ADD PUSH3 0x778 JUMP JUMPDEST SWAP2 POP POP SWAP3 SWAP2 POP POP JUMP JUMPDEST PUSH3 0x881 DUP2 PUSH3 0xB96 JUMP JUMPDEST DUP3 MSTORE POP POP JUMP JUMPDEST PUSH3 0x892 DUP2 PUSH3 0xBE0 JUMP JUMPDEST DUP3 MSTORE POP POP JUMP JUMPDEST PUSH3 0x8A3 DUP2 PUSH3 0xBE0 JUMP JUMPDEST DUP3 MSTORE POP POP JUMP JUMPDEST PUSH3 0x8B4 DUP2 PUSH3 0xBF4 JUMP JUMPDEST DUP3 MSTORE POP POP JUMP JUMPDEST PUSH3 0x8C5 DUP2 PUSH3 0xC08 JUMP JUMPDEST DUP3 MSTORE POP POP JUMP JUMPDEST PUSH1 0x0 PUSH3 0x8D8 DUP3 PUSH3 0xB7A JUMP JUMPDEST PUSH3 0x8E4 DUP2 DUP6 PUSH3 0xB85 JUMP JUMPDEST SWAP4 POP PUSH3 0x8F6 DUP2 DUP6 PUSH1 0x20 DUP7 ADD PUSH3 0xC1C JUMP JUMPDEST PUSH3 0x901 DUP2 PUSH3 0xCCB JUMP JUMPDEST DUP5 ADD SWAP2 POP POP SWAP3 SWAP2 POP POP JUMP JUMPDEST PUSH1 0x0 PUSH3 0x91B PUSH1 0x20 DUP4 PUSH3 0xB85 JUMP JUMPDEST SWAP2 POP PUSH3 0x928 DUP3 PUSH3 0xCDC JUMP JUMPDEST PUSH1 0x20 DUP3 ADD SWAP1 POP SWAP2 SWAP1 POP JUMP JUMPDEST PUSH1 0x0 PUSH3 0x942 PUSH1 0x16 DUP4 PUSH3 0xB85 JUMP JUMPDEST SWAP2 POP PUSH3 0x94F DUP3 PUSH3 0xD05 JUMP JUMPDEST PUSH1 0x20 DUP3 ADD SWAP1 POP SWAP2 SWAP1 POP JUMP JUMPDEST PUSH1 0x0 PUSH3 0x969 PUSH1 0xF DUP4 PUSH3 0xB85 JUMP JUMPDEST SWAP2 POP PUSH3 0x976 DUP3 PUSH3 0xD2E JUMP JUMPDEST PUSH1 0x20 DUP3 ADD SWAP1 POP SWAP2 SWAP1 POP JUMP JUMPDEST PUSH1 0x0 PUSH3 0x990 PUSH1 0xB DUP4 PUSH3 0xB85 JUMP JUMPDEST SWAP2 POP PUSH3 0x99D DUP3 PUSH3 0xD57 JUMP JUMPDEST PUSH1 0x20 DUP3 ADD SWAP1 POP SWAP2 SWAP1 POP JUMP JUMPDEST PUSH3 0x9B3 DUP2 PUSH3 0xBD6 JUMP JUMPDEST DUP3 MSTORE POP POP JUMP JUMPDEST PUSH1 0x0 PUSH1 0x20 DUP3 ADD SWAP1 POP PUSH3 0x9D0 PUSH1 0x0 DUP4 ADD DUP5 PUSH3 0x876 JUMP JUMPDEST SWAP3 SWAP2 POP POP JUMP JUMPDEST PUSH1 0x0 PUSH1 0x40 DUP3 ADD SWAP1 POP PUSH3 0x9ED PUSH1 0x0 DUP4 ADD DUP6 PUSH3 0x876 JUMP JUMPDEST PUSH3 0x9FC PUSH1 0x20 DUP4 ADD DUP5 PUSH3 0x8A9 JUMP JUMPDEST SWAP4 SWAP3 POP POP POP JUMP JUMPDEST PUSH1 0x0 PUSH1 0x20 DUP3 ADD SWAP1 POP PUSH3 0xA1A PUSH1 0x0 DUP4 ADD DUP5 PUSH3 0x887 JUMP JUMPDEST SWAP3 SWAP2 POP POP JUMP JUMPDEST PUSH1 0x0 PUSH1 0x20 DUP3 ADD SWAP1 POP PUSH3 0xA37 PUSH1 0x0 DUP4 ADD DUP5 PUSH3 0x8BA JUMP JUMPDEST SWAP3 SWAP2 POP POP JUMP JUMPDEST PUSH1 0x0 PUSH1 0x60 DUP3 ADD SWAP1 POP DUP2 DUP2 SUB PUSH1 0x0 DUP4 ADD MSTORE PUSH3 0xA59 DUP2 DUP5 PUSH3 0x8CB JUMP JUMPDEST SWAP1 POP DUP2 DUP2 SUB PUSH1 0x20 DUP4 ADD MSTORE PUSH3 0xA6E DUP2 PUSH3 0x95A JUMP JUMPDEST SWAP1 POP DUP2 DUP2 SUB PUSH1 0x40 DUP4 ADD MSTORE PUSH3 0xA83 DUP2 PUSH3 0x933 JUMP JUMPDEST SWAP1 POP SWAP3 SWAP2 POP POP JUMP JUMPDEST PUSH1 0x0 PUSH1 0x60 DUP3 ADD SWAP1 POP DUP2 DUP2 SUB PUSH1 0x0 DUP4 ADD MSTORE PUSH3 0xAA7 DUP2 DUP5 PUSH3 0x8CB JUMP JUMPDEST SWAP1 POP DUP2 DUP2 SUB PUSH1 0x20 DUP4 ADD MSTORE PUSH3 0xABC DUP2 PUSH3 0x981 JUMP JUMPDEST SWAP1 POP DUP2 DUP2 SUB PUSH1 0x40 DUP4 ADD MSTORE PUSH3 0xAD1 DUP2 PUSH3 0x933 JUMP JUMPDEST SWAP1 POP SWAP3 SWAP2 POP POP JUMP JUMPDEST PUSH1 0x0 PUSH1 0x60 DUP3 ADD SWAP1 POP PUSH3 0xAF0 PUSH1 0x0 DUP4 ADD DUP6 PUSH3 0x9A8 JUMP JUMPDEST PUSH3 0xAFF PUSH1 0x20 DUP4 ADD DUP5 PUSH3 0x898 JUMP JUMPDEST DUP2 DUP2 SUB PUSH1 0x40 DUP4 ADD MSTORE PUSH3 0xB12 DUP2 PUSH3 0x90C JUMP JUMPDEST SWAP1 POP SWAP4 SWAP3 POP POP POP JUMP JUMPDEST PUSH1 0x0 PUSH3 0xB27 PUSH3 0xB3A JUMP JUMPDEST SWAP1 POP PUSH3 0xB35 DUP3 DUP3 PUSH3 0xC52 JUMP JUMPDEST SWAP2 SWAP1 POP JUMP JUMPDEST PUSH1 0x0 PUSH1 0x40 MLOAD SWAP1 POP SWAP1 JUMP JUMPDEST PUSH1 0x0 PUSH8 0xFFFFFFFFFFFFFFFF DUP3 GT ISZERO PUSH3 0xB62 JUMPI PUSH3 0xB61 PUSH3 0xC88 JUMP JUMPDEST JUMPDEST PUSH3 0xB6D DUP3 PUSH3 0xCCB JUMP JUMPDEST SWAP1 POP PUSH1 0x20 DUP2 ADD SWAP1 POP SWAP2 SWAP1 POP JUMP JUMPDEST PUSH1 0x0 DUP2 MLOAD SWAP1 POP SWAP2 SWAP1 POP JUMP JUMPDEST PUSH1 0x0 DUP3 DUP3 MSTORE PUSH1 0x20 DUP3 ADD SWAP1 POP SWAP3 SWAP2 POP POP JUMP JUMPDEST PUSH1 0x0 PUSH3 0xBA3 DUP3 PUSH3 0xBB6 JUMP JUMPDEST SWAP1 POP SWAP2 SWAP1 POP JUMP JUMPDEST PUSH1 0x0 DUP2 ISZERO ISZERO SWAP1 POP SWAP2 SWAP1 POP JUMP JUMPDEST PUSH1 0x0 PUSH20 0xFFFFFFFFFFFFFFFFFFFFFFFFFFFFFFFFFFFFFFFF DUP3 AND SWAP1 POP SWAP2 SWAP1 POP JUMP JUMPDEST PUSH1 0x0 DUP2 SWAP1 POP SWAP2 SWAP1 POP JUMP JUMPDEST PUSH1 0x0 PUSH3 0xBED DUP3 PUSH3 0xBD6 JUMP JUMPDEST SWAP1 POP SWAP2 SWAP1 POP JUMP JUMPDEST PUSH1 0x0 PUSH3 0xC01 DUP3 PUSH3 0xBD6 JUMP JUMPDEST SWAP1 POP SWAP2 SWAP1 POP JUMP JUMPDEST PUSH1 0x0 PUSH3 0xC15 DUP3 PUSH3 0xBD6 JUMP JUMPDEST SWAP1 POP SWAP2 SWAP1 POP JUMP JUMPDEST PUSH1 0x0 JUMPDEST DUP4 DUP2 LT ISZERO PUSH3 0xC3C JUMPI DUP1 DUP3 ADD MLOAD DUP2 DUP5 ADD MSTORE PUSH1 0x20 DUP2 ADD SWAP1 POP PUSH3 0xC1F JUMP JUMPDEST DUP4 DUP2 GT ISZERO PUSH3 0xC4C JUMPI PUSH1 0x0 DUP5 DUP5 ADD MSTORE JUMPDEST POP POP POP POP JUMP JUMPDEST PUSH3 0xC5D DUP3 PUSH3 0xCCB JUMP JUMPDEST DUP2 ADD DUP2 DUP2 LT PUSH8 0xFFFFFFFFFFFFFFFF DUP3 GT OR ISZERO PUSH3 0xC7F JUMPI PUSH3 0xC7E PUSH3 0xC88 JUMP JUMPDEST JUMPDEST DUP1 PUSH1 0x40 MSTORE POP POP POP JUMP JUMPDEST PUSH32 0x4E487B7100000000000000000000000000000000000000000000000000000000 PUSH1 0x0 MSTORE PUSH1 0x41 PUSH1 0x4 MSTORE PUSH1 0x24 PUSH1 0x0 REVERT JUMPDEST PUSH1 0x0 DUP1 REVERT JUMPDEST PUSH1 0x0 DUP1 REVERT JUMPDEST PUSH1 0x0 DUP1 REVERT JUMPDEST PUSH1 0x0 DUP1 REVERT JUMPDEST PUSH1 0x0 PUSH1 0x1F NOT PUSH1 0x1F DUP4 ADD AND SWAP1 POP SWAP2 SWAP1 POP JUMP JUMPDEST PUSH32 0x5472616E7366657220636F727265637420627574206D757374206265206E6F74 PUSH1 0x0 DUP3 ADD MSTORE POP JUMP JUMPDEST PUSH32 0x526561736F6E206D7573742062652064656661756C7400000000000000000000 PUSH1 0x0 DUP3 ADD MSTORE POP JUMP JUMPDEST PUSH32 0x303A094E6F7420626C6F636B65640A0000000000000000000000000000000000 PUSH1 0x0 DUP3 ADD MSTORE POP JUMP JUMPDEST PUSH32 0x4E6F7420626C6F636B6564000000000000000000000000000000000000000000 PUSH1 0x0 DUP3 ADD MSTORE POP JUMP JUMPDEST PUSH3 0xD8B DUP2 PUSH3 0xB96 JUMP JUMPDEST DUP2 EQ PUSH3 0xD97 JUMPI PUSH1 0x0 DUP1 REVERT JUMPDEST POP JUMP JUMPDEST PUSH3 0xDA5 DUP2 PUSH3 0xBAA JUMP JUMPDEST DUP2 EQ PUSH3 0xDB1 JUMPI PUSH1 0x0 DUP1 REVERT JUMPDEST POP JUMP JUMPDEST PUSH3 0xDBF DUP2 PUSH3 0xBD6 JUMP JUMPDEST DUP2 EQ PUSH3 0xDCB JUMPI PUSH1 0x0 DUP1 REVERT JUMPDEST POP JUMP INVALID PUSH1 0x80 PUSH1 0x40 MSTORE CALLVALUE DUP1 ISZERO PUSH3 0x11 JUMPI PUSH1 0x0 DUP1 REVERT JUMPDEST POP CALLER PUSH1 0x0 DUP1 PUSH2 0x100 EXP DUP2 SLOAD DUP2 PUSH20 0xFFFFFFFFFFFFFFFFFFFFFFFFFFFFFFFFFFFFFFFF MUL NOT AND SWAP1 DUP4 PUSH20 0xFFFFFFFFFFFFFFFFFFFFFFFFFFFFFFFFFFFFFFFF AND MUL OR SWAP1 SSTORE POP PUSH3 0x9A PUSH1 0x0 PUSH1 0x40 MLOAD DUP1 PUSH1 0x40 ADD PUSH1 0x40 MSTORE DUP1 PUSH1 0xB DUP2 MSTORE PUSH1 0x20 ADD PUSH32 0x4E6F7420626C6F636B6564000000000000000000000000000000000000000000 DUP2 MSTORE POP PUSH3 0xA0 PUSH1 0x20 SHL PUSH1 0x20 SHR JUMP JUMPDEST PUSH3 0x355 JUMP JUMPDEST PUSH1 0x0 DUP1 SLOAD SWAP1 PUSH2 0x100 EXP SWAP1 DIV PUSH20 0xFFFFFFFFFFFFFFFFFFFFFFFFFFFFFFFFFFFFFFFF AND PUSH20 0xFFFFFFFFFFFFFFFFFFFFFFFFFFFFFFFFFFFFFFFF AND CALLER PUSH20 0xFFFFFFFFFFFFFFFFFFFFFFFFFFFFFFFFFFFFFFFF AND EQ PUSH3 0x131 JUMPI PUSH1 0x40 MLOAD PUSH32 0x8C379A000000000000000000000000000000000000000000000000000000000 DUP2 MSTORE PUSH1 0x4 ADD PUSH3 0x128 SWAP1 PUSH3 0x294 JUMP JUMPDEST PUSH1 0x40 MLOAD DUP1 SWAP2 SUB SWAP1 REVERT JUMPDEST PUSH1 0x3 DUP1 SLOAD SWAP1 POP PUSH1 0x6 PUSH1 0x0 DUP5 DUP2 MSTORE PUSH1 0x20 ADD SWAP1 DUP2 MSTORE PUSH1 0x20 ADD PUSH1 0x0 KECCAK256 DUP2 SWAP1 SSTORE POP PUSH1 0x3 PUSH1 0x40 MLOAD DUP1 PUSH1 0x40 ADD PUSH1 0x40 MSTORE DUP1 DUP5 DUP2 MSTORE PUSH1 0x20 ADD DUP4 DUP2 MSTORE POP SWAP1 DUP1 PUSH1 0x1 DUP2 SLOAD ADD DUP1 DUP3 SSTORE DUP1 SWAP2 POP POP PUSH1 0x1 SWAP1 SUB SWAP1 PUSH1 0x0 MSTORE PUSH1 0x20 PUSH1 0x0 KECCAK256 SWAP1 PUSH1 0x2 MUL ADD PUSH1 0x0 SWAP1 SWAP2 SWAP1 SWAP2 SWAP1 SWAP2 POP PUSH1 0x0 DUP3 ADD MLOAD DUP2 PUSH1 0x0 ADD SSTORE PUSH1 0x20 DUP3 ADD MLOAD DUP2 PUSH1 0x1 ADD SWAP1 DUP1 MLOAD SWAP1 PUSH1 0x20 ADD SWAP1 PUSH3 0x1B6 SWAP3 SWAP2 SWAP1 PUSH3 0x1BD JUMP JUMPDEST POP POP POP POP POP JUMP JUMPDEST DUP3 DUP1 SLOAD PUSH3 0x1CB SWAP1 PUSH3 0x2C7 JUMP JUMPDEST SWAP1 PUSH1 0x0 MSTORE PUSH1 0x20 PUSH1 0x0 KECCAK256 SWAP1 PUSH1 0x1F ADD PUSH1 0x20 SWAP1 DIV DUP2 ADD SWAP3 DUP3 PUSH3 0x1EF JUMPI PUSH1 0x0 DUP6 SSTORE PUSH3 0x23B JUMP JUMPDEST DUP3 PUSH1 0x1F LT PUSH3 0x20A JUMPI DUP1 MLOAD PUSH1 0xFF NOT AND DUP4 DUP1 ADD OR DUP6 SSTORE PUSH3 0x23B JUMP JUMPDEST DUP3 DUP1 ADD PUSH1 0x1 ADD DUP6 SSTORE DUP3 ISZERO PUSH3 0x23B JUMPI SWAP2 DUP3 ADD JUMPDEST DUP3 DUP2 GT ISZERO PUSH3 0x23A JUMPI DUP3 MLOAD DUP3 SSTORE SWAP2 PUSH1 0x20 ADD SWAP2 SWAP1 PUSH1 0x1 ADD SWAP1 PUSH3 0x21D JUMP JUMPDEST JUMPDEST POP SWAP1 POP PUSH3 0x24A SWAP2 SWAP1 PUSH3 0x24E JUMP JUMPDEST POP SWAP1 JUMP JUMPDEST JUMPDEST DUP1 DUP3 GT ISZERO PUSH3 0x269 JUMPI PUSH1 0x0 DUP2 PUSH1 0x0 SWAP1 SSTORE POP PUSH1 0x1 ADD PUSH3 0x24F JUMP JUMPDEST POP SWAP1 JUMP JUMPDEST PUSH1 0x0 PUSH3 0x27C PUSH1 0x13 DUP4 PUSH3 0x2B6 JUMP JUMPDEST SWAP2 POP PUSH3 0x289 DUP3 PUSH3 0x32C JUMP JUMPDEST PUSH1 0x20 DUP3 ADD SWAP1 POP SWAP2 SWAP1 POP JUMP JUMPDEST PUSH1 0x0 PUSH1 0x20 DUP3 ADD SWAP1 POP DUP2 DUP2 SUB PUSH1 0x0 DUP4 ADD MSTORE PUSH3 0x2AF DUP2 PUSH3 0x26D JUMP JUMPDEST SWAP1 POP SWAP2 SWAP1 POP JUMP JUMPDEST PUSH1 0x0 DUP3 DUP3 MSTORE PUSH1 0x20 DUP3 ADD SWAP1 POP SWAP3 SWAP2 POP POP JUMP JUMPDEST PUSH1 0x0 PUSH1 0x2 DUP3 DIV SWAP1 POP PUSH1 0x1 DUP3 AND DUP1 PUSH3 0x2E0 JUMPI PUSH1 0x7F DUP3 AND SWAP2 POP JUMPDEST PUSH1 0x20 DUP3 LT DUP2 EQ ISZERO PUSH3 0x2F7 JUMPI PUSH3 0x2F6 PUSH3 0x2FD JUMP JUMPDEST JUMPDEST POP SWAP2 SWAP1 POP JUMP JUMPDEST PUSH32 0x4E487B7100000000000000000000000000000000000000000000000000000000 PUSH1 0x0 MSTORE PUSH1 0x22 PUSH1 0x4 MSTORE PUSH1 0x24 PUSH1 0x0 REVERT JUMPDEST PUSH32 0x43616C6C6572206973206E6F74206F776E657200000000000000000000000000 PUSH1 0x0 DUP3 ADD MSTORE POP JUMP JUMPDEST PUSH2 0x212A DUP1 PUSH3 0x365 PUSH1 0x0 CODECOPY PUSH1 0x0 RETURN INVALID PUSH1 0x80 PUSH1 0x40 MSTORE CALLVALUE DUP1 ISZERO PUSH2 0x10 JUMPI PUSH1 0x0 DUP1 REVERT JUMPDEST POP PUSH1 0x4 CALLDATASIZE LT PUSH2 0xEA JUMPI PUSH1 0x0 CALLDATALOAD PUSH1 0xE0 SHR DUP1 PUSH4 0x6B9939F4 GT PUSH2 0x8C JUMPI DUP1 PUSH4 0xA9059CBB GT PUSH2 0x66 JUMPI DUP1 PUSH4 0xA9059CBB EQ PUSH2 0x24A JUMPI DUP1 PUSH4 0xB7928B4F EQ PUSH2 0x266 JUMPI DUP1 PUSH4 0xCBCABDB2 EQ PUSH2 0x296 JUMPI DUP1 PUSH4 0xFAEA13A3 EQ PUSH2 0x2B2 JUMPI PUSH2 0xEA JUMP JUMPDEST DUP1 PUSH4 0x6B9939F4 EQ PUSH2 0x1F4 JUMPI DUP1 PUSH4 0x8DA5CB5B EQ PUSH2 0x210 JUMPI DUP1 PUSH4 0xA0712D68 EQ PUSH2 0x22E JUMPI PUSH2 0xEA JUMP JUMPDEST DUP1 PUSH4 0x2CFDBF71 GT PUSH2 0xC8 JUMPI DUP1 PUSH4 0x2CFDBF71 EQ PUSH2 0x157 JUMPI DUP1 PUSH4 0x399A158A EQ PUSH2 0x188 JUMPI DUP1 PUSH4 0x39D319E5 EQ PUSH2 0x1A6 JUMPI DUP1 PUSH4 0x3AF2D5E7 EQ PUSH2 0x1C2 JUMPI PUSH2 0xEA JUMP JUMPDEST DUP1 PUSH4 0x70F843F EQ PUSH2 0xEF JUMPI DUP1 PUSH4 0x253C8BD4 EQ PUSH2 0x10B JUMPI DUP1 PUSH4 0x27E235E3 EQ PUSH2 0x127 JUMPI JUMPDEST PUSH1 0x0 DUP1 REVERT JUMPDEST PUSH2 0x109 PUSH1 0x4 DUP1 CALLDATASIZE SUB DUP2 ADD SWAP1 PUSH2 0x104 SWAP2 SWAP1 PUSH2 0x191E JUMP JUMPDEST PUSH2 0x2E2 JUMP JUMPDEST STOP JUMPDEST PUSH2 0x125 PUSH1 0x4 DUP1 CALLDATASIZE SUB DUP2 ADD SWAP1 PUSH2 0x120 SWAP2 SWAP1 PUSH2 0x1831 JUMP JUMPDEST PUSH2 0x3FA JUMP JUMPDEST STOP JUMPDEST PUSH2 0x141 PUSH1 0x4 DUP1 CALLDATASIZE SUB DUP2 ADD SWAP1 PUSH2 0x13C SWAP2 SWAP1 PUSH2 0x1831 JUMP JUMPDEST PUSH2 0x504 JUMP JUMPDEST PUSH1 0x40 MLOAD PUSH2 0x14E SWAP2 SWAP1 PUSH2 0x1B2C JUMP JUMPDEST PUSH1 0x40 MLOAD DUP1 SWAP2 SUB SWAP1 RETURN JUMPDEST PUSH2 0x171 PUSH1 0x4 DUP1 CALLDATASIZE SUB DUP2 ADD SWAP1 PUSH2 0x16C SWAP2 SWAP1 PUSH2 0x18F1 JUMP JUMPDEST PUSH2 0x51C JUMP JUMPDEST PUSH1 0x40 MLOAD PUSH2 0x17F SWAP3 SWAP2 SWAP1 PUSH2 0x1B7E JUMP JUMPDEST PUSH1 0x40 MLOAD DUP1 SWAP2 SUB SWAP1 RETURN JUMPDEST PUSH2 0x190 PUSH2 0x5D8 JUMP JUMPDEST PUSH1 0x40 MLOAD PUSH2 0x19D SWAP2 SWAP1 PUSH2 0x1ACA JUMP JUMPDEST PUSH1 0x40 MLOAD DUP1 SWAP2 SUB SWAP1 RETURN JUMPDEST PUSH2 0x1C0 PUSH1 0x4 DUP1 CALLDATASIZE SUB DUP2 ADD SWAP1 PUSH2 0x1BB SWAP2 SWAP1 PUSH2 0x1831 JUMP JUMPDEST PUSH2 0x785 JUMP JUMPDEST STOP JUMPDEST PUSH2 0x1DC PUSH1 0x4 DUP1 CALLDATASIZE SUB DUP2 ADD SWAP1 PUSH2 0x1D7 SWAP2 SWAP1 PUSH2 0x1831 JUMP JUMPDEST PUSH2 0x8AC JUMP JUMPDEST PUSH1 0x40 MLOAD PUSH2 0x1EB SWAP4 SWAP3 SWAP2 SWAP1 PUSH2 0x1B47 JUMP JUMPDEST PUSH1 0x40 MLOAD DUP1 SWAP2 SUB SWAP1 RETURN JUMPDEST PUSH2 0x20E PUSH1 0x4 DUP1 CALLDATASIZE SUB DUP2 ADD SWAP1 PUSH2 0x209 SWAP2 SWAP1 PUSH2 0x185E JUMP JUMPDEST PUSH2 0x8E3 JUMP JUMPDEST STOP JUMPDEST PUSH2 0x218 PUSH2 0xA0A JUMP JUMPDEST PUSH1 0x40 MLOAD PUSH2 0x225 SWAP2 SWAP1 PUSH2 0x1A26 JUMP JUMPDEST PUSH1 0x40 MLOAD DUP1 SWAP2 SUB SWAP1 RETURN JUMPDEST PUSH2 0x248 PUSH1 0x4 DUP1 CALLDATASIZE SUB DUP2 ADD SWAP1 PUSH2 0x243 SWAP2 SWAP1 PUSH2 0x18F1 JUMP JUMPDEST PUSH2 0xA2E JUMP JUMPDEST STOP JUMPDEST PUSH2 0x264 PUSH1 0x4 DUP1 CALLDATASIZE SUB DUP2 ADD SWAP1 PUSH2 0x25F SWAP2 SWAP1 PUSH2 0x185E JUMP JUMPDEST PUSH2 0xB6A JUMP JUMPDEST STOP JUMPDEST PUSH2 0x280 PUSH1 0x4 DUP1 CALLDATASIZE SUB DUP2 ADD SWAP1 PUSH2 0x27B SWAP2 SWAP1 PUSH2 0x18F1 JUMP JUMPDEST PUSH2 0x11E3 JUMP JUMPDEST PUSH1 0x40 MLOAD PUSH2 0x28D SWAP2 SWAP1 PUSH2 0x1ACA JUMP JUMPDEST PUSH1 0x40 MLOAD DUP1 SWAP2 SUB SWAP1 RETURN JUMPDEST PUSH2 0x2B0 PUSH1 0x4 DUP1 CALLDATASIZE SUB DUP2 ADD SWAP1 PUSH2 0x2AB SWAP2 SWAP1 PUSH2 0x189E JUMP JUMPDEST PUSH2 0x12AD JUMP JUMPDEST STOP JUMPDEST PUSH2 0x2CC PUSH1 0x4 DUP1 CALLDATASIZE SUB DUP2 ADD SWAP1 PUSH2 0x2C7 SWAP2 SWAP1 PUSH2 0x18F1 JUMP JUMPDEST PUSH2 0x13D4 JUMP JUMPDEST PUSH1 0x40 MLOAD PUSH2 0x2D9 SWAP2 SWAP1 PUSH2 0x1B2C JUMP JUMPDEST PUSH1 0x40 MLOAD DUP1 SWAP2 SUB SWAP1 RETURN JUMPDEST PUSH1 0x0 DUP1 SLOAD SWAP1 PUSH2 0x100 EXP SWAP1 DIV PUSH20 0xFFFFFFFFFFFFFFFFFFFFFFFFFFFFFFFFFFFFFFFF AND PUSH20 0xFFFFFFFFFFFFFFFFFFFFFFFFFFFFFFFFFFFFFFFF AND CALLER PUSH20 0xFFFFFFFFFFFFFFFFFFFFFFFFFFFFFFFFFFFFFFFF AND EQ PUSH2 0x370 JUMPI PUSH1 0x40 MLOAD PUSH32 0x8C379A000000000000000000000000000000000000000000000000000000000 DUP2 MSTORE PUSH1 0x4 ADD PUSH2 0x367 SWAP1 PUSH2 0x1AEC JUMP JUMPDEST PUSH1 0x40 MLOAD DUP1 SWAP2 SUB SWAP1 REVERT JUMPDEST PUSH1 0x3 DUP1 SLOAD SWAP1 POP PUSH1 0x6 PUSH1 0x0 DUP5 DUP2 MSTORE PUSH1 0x20 ADD SWAP1 DUP2 MSTORE PUSH1 0x20 ADD PUSH1 0x0 KECCAK256 DUP2 SWAP1 SSTORE POP PUSH1 0x3 PUSH1 0x40 MLOAD DUP1 PUSH1 0x40 ADD PUSH1 0x40 MSTORE DUP1 DUP5 DUP2 MSTORE PUSH1 0x20 ADD DUP4 DUP2 MSTORE POP SWAP1 DUP1 PUSH1 0x1 DUP2 SLOAD ADD DUP1 DUP3 SSTORE DUP1 SWAP2 POP POP PUSH1 0x1 SWAP1 SUB SWAP1 PUSH1 0x0 MSTORE PUSH1 0x20 PUSH1 0x0 KECCAK256 SWAP1 PUSH1 0x2 MUL ADD PUSH1 0x0 SWAP1 SWAP2 SWAP1 SWAP2 SWAP1 SWAP2 POP PUSH1 0x0 DUP3 ADD MLOAD DUP2 PUSH1 0x0 ADD SSTORE PUSH1 0x20 DUP3 ADD MLOAD DUP2 PUSH1 0x1 ADD SWAP1 DUP1 MLOAD SWAP1 PUSH1 0x20 ADD SWAP1 PUSH2 0x3F3 SWAP3 SWAP2 SWAP1 PUSH2 0x16F4 JUMP JUMPDEST POP POP POP POP POP JUMP JUMPDEST PUSH1 0x0 DUP1 SLOAD SWAP1 PUSH2 0x100 EXP SWAP1 DIV PUSH20 0xFFFFFFFFFFFFFFFFFFFFFFFFFFFFFFFFFFFFFFFF AND PUSH20 0xFFFFFFFFFFFFFFFFFFFFFFFFFFFFFFFFFFFFFFFF AND CALLER PUSH20 0xFFFFFFFFFFFFFFFFFFFFFFFFFFFFFFFFFFFFFFFF AND EQ PUSH2 0x488 JUMPI PUSH1 0x40 MLOAD PUSH32 0x8C379A000000000000000000000000000000000000000000000000000000000 DUP2 MSTORE PUSH1 0x4 ADD PUSH2 0x47F SWAP1 PUSH2 0x1AEC JUMP JUMPDEST PUSH1 0x40 MLOAD DUP1 SWAP2 SUB SWAP1 REVERT JUMPDEST CALLER PUSH1 0x0 DUP1 PUSH2 0x100 EXP DUP2 SLOAD DUP2 PUSH20 0xFFFFFFFFFFFFFFFFFFFFFFFFFFFFFFFFFFFFFFFF MUL NOT AND SWAP1 DUP4 PUSH20 0xFFFFFFFFFFFFFFFFFFFFFFFFFFFFFFFFFFFFFFFF AND MUL OR SWAP1 SSTORE POP PUSH32 0xB532073B38C83145E3E5135377A08BF9AAB55BC0FD7C1179CD4FB995D2A5159C CALLER DUP3 PUSH1 0x40 MLOAD PUSH2 0x4F9 SWAP3 SWAP2 SWAP1 PUSH2 0x1A41 JUMP JUMPDEST PUSH1 0x40 MLOAD DUP1 SWAP2 SUB SWAP1 LOG1 POP JUMP JUMPDEST PUSH1 0x4 PUSH1 0x20 MSTORE DUP1 PUSH1 0x0 MSTORE PUSH1 0x40 PUSH1 0x0 KECCAK256 PUSH1 0x0 SWAP2 POP SWAP1 POP SLOAD DUP2 JUMP JUMPDEST PUSH1 0x3 DUP2 DUP2 SLOAD DUP2 LT PUSH2 0x52C JUMPI PUSH1 0x0 DUP1 REVERT JUMPDEST SWAP1 PUSH1 0x0 MSTORE PUSH1 0x20 PUSH1 0x0 KECCAK256 SWAP1 PUSH1 0x2 MUL ADD PUSH1 0x0 SWAP2 POP SWAP1 POP DUP1 PUSH1 0x0 ADD SLOAD SWAP1 DUP1 PUSH1 0x1 ADD DUP1 SLOAD PUSH2 0x555 SWAP1 PUSH2 0x1E03 JUMP JUMPDEST DUP1 PUSH1 0x1F ADD PUSH1 0x20 DUP1 SWAP2 DIV MUL PUSH1 0x20 ADD PUSH1 0x40 MLOAD SWAP1 DUP2 ADD PUSH1 0x40 MSTORE DUP1 SWAP3 SWAP2 SWAP1 DUP2 DUP2 MSTORE PUSH1 0x20 ADD DUP3 DUP1 SLOAD PUSH2 0x581 SWAP1 PUSH2 0x1E03 JUMP JUMPDEST DUP1 ISZERO PUSH2 0x5CE JUMPI DUP1 PUSH1 0x1F LT PUSH2 0x5A3 JUMPI PUSH2 0x100 DUP1 DUP4 SLOAD DIV MUL DUP4 MSTORE SWAP2 PUSH1 0x20 ADD SWAP2 PUSH2 0x5CE JUMP JUMPDEST DUP3 ADD SWAP2 SWAP1 PUSH1 0x0 MSTORE PUSH1 0x20 PUSH1 0x0 KECCAK256 SWAP1 JUMPDEST DUP2 SLOAD DUP2 MSTORE SWAP1 PUSH1 0x1 ADD SWAP1 PUSH1 0x20 ADD DUP1 DUP4 GT PUSH2 0x5B1 JUMPI DUP3 SWAP1 SUB PUSH1 0x1F AND DUP3 ADD SWAP2 JUMPDEST POP POP POP POP POP SWAP1 POP DUP3 JUMP JUMPDEST PUSH1 0x60 PUSH1 0x0 DUP1 PUSH1 0x40 MLOAD DUP1 PUSH1 0x20 ADD PUSH1 0x40 MSTORE DUP1 PUSH1 0x0 DUP2 MSTORE POP SWAP1 POP PUSH1 0x0 SWAP2 POP JUMPDEST PUSH1 0x3 DUP1 SLOAD SWAP1 POP DUP3 LT ISZERO PUSH2 0x77D JUMPI PUSH2 0x76A DUP2 PUSH2 0x765 PUSH2 0x674 PUSH2 0x639 PUSH1 0x3 DUP8 DUP2 SLOAD DUP2 LT PUSH2 0x622 JUMPI PUSH2 0x621 PUSH2 0x1F3C JUMP JUMPDEST JUMPDEST SWAP1 PUSH1 0x0 MSTORE PUSH1 0x20 PUSH1 0x0 KECCAK256 SWAP1 PUSH1 0x2 MUL ADD PUSH1 0x0 ADD SLOAD PUSH2 0x13EC JUMP JUMPDEST PUSH1 0x40 MLOAD DUP1 PUSH1 0x40 ADD PUSH1 0x40 MSTORE DUP1 PUSH1 0x2 DUP2 MSTORE PUSH1 0x20 ADD PUSH32 0x3A09000000000000000000000000000000000000000000000000000000000000 DUP2 MSTORE POP PUSH2 0x1575 JUMP JUMPDEST PUSH2 0x760 PUSH1 0x3 DUP8 DUP2 SLOAD DUP2 LT PUSH2 0x68B JUMPI PUSH2 0x68A PUSH2 0x1F3C JUMP JUMPDEST JUMPDEST SWAP1 PUSH1 0x0 MSTORE PUSH1 0x20 PUSH1 0x0 KECCAK256 SWAP1 PUSH1 0x2 MUL ADD PUSH1 0x1 ADD DUP1 SLOAD PUSH2 0x6A7 SWAP1 PUSH2 0x1E03 JUMP JUMPDEST DUP1 PUSH1 0x1F ADD PUSH1 0x20 DUP1 SWAP2 DIV MUL PUSH1 0x20 ADD PUSH1 0x40 MLOAD SWAP1 DUP2 ADD PUSH1 0x40 MSTORE DUP1 SWAP3 SWAP2 SWAP1 DUP2 DUP2 MSTORE PUSH1 0x20 ADD DUP3 DUP1 SLOAD PUSH2 0x6D3 SWAP1 PUSH2 0x1E03 JUMP JUMPDEST DUP1 ISZERO PUSH2 0x720 JUMPI DUP1 PUSH1 0x1F LT PUSH2 0x6F5 JUMPI PUSH2 0x100 DUP1 DUP4 SLOAD DIV MUL DUP4 MSTORE SWAP2 PUSH1 0x20 ADD SWAP2 PUSH2 0x720 JUMP JUMPDEST DUP3 ADD SWAP2 SWAP1 PUSH1 0x0 MSTORE PUSH1 0x20 PUSH1 0x0 KECCAK256 SWAP1 JUMPDEST DUP2 SLOAD DUP2 MSTORE SWAP1 PUSH1 0x1 ADD SWAP1 PUSH1 0x20 ADD DUP1 DUP4 GT PUSH2 0x703 JUMPI DUP3 SWAP1 SUB PUSH1 0x1F AND DUP3 ADD SWAP2 JUMPDEST POP POP POP POP POP PUSH1 0x40 MLOAD DUP1 PUSH1 0x40 ADD PUSH1 0x40 MSTORE DUP1 PUSH1 0x1 DUP2 MSTORE PUSH1 0x20 ADD PUSH32 0xA00000000000000000000000000000000000000000000000000000000000000 DUP2 MSTORE POP PUSH2 0x1575 JUMP JUMPDEST PUSH2 0x1575 JUMP JUMPDEST PUSH2 0x1575 JUMP JUMPDEST SWAP1 POP DUP2 PUSH2 0x776 SWAP1 PUSH2 0x1E66 JUMP JUMPDEST SWAP2 POP PUSH2 0x5F4 JUMP JUMPDEST DUP1 SWAP3 POP POP POP SWAP1 JUMP JUMPDEST PUSH1 0x0 DUP1 SLOAD SWAP1 PUSH2 0x100 EXP SWAP1 DIV PUSH20 0xFFFFFFFFFFFFFFFFFFFFFFFFFFFFFFFFFFFFFFFF AND PUSH20 0xFFFFFFFFFFFFFFFFFFFFFFFFFFFFFFFFFFFFFFFF AND CALLER PUSH20 0xFFFFFFFFFFFFFFFFFFFFFFFFFFFFFFFFFFFFFFFF AND EQ PUSH2 0x813 JUMPI PUSH1 0x40 MLOAD PUSH32 0x8C379A000000000000000000000000000000000000000000000000000000000 DUP2 MSTORE PUSH1 0x4 ADD PUSH2 0x80A SWAP1 PUSH2 0x1AEC JUMP JUMPDEST PUSH1 0x40 MLOAD DUP1 SWAP2 SUB SWAP1 REVERT JUMPDEST PUSH1 0x40 MLOAD DUP1 PUSH1 0x60 ADD PUSH1 0x40 MSTORE DUP1 PUSH1 0x0 DUP2 MSTORE PUSH1 0x20 ADD PUSH1 0x0 ISZERO ISZERO DUP2 MSTORE PUSH1 0x20 ADD PUSH1 0x0 DUP2 MSTORE POP PUSH1 0x5 PUSH1 0x0 DUP4 PUSH20 0xFFFFFFFFFFFFFFFFFFFFFFFFFFFFFFFFFFFFFFFF AND PUSH20 0xFFFFFFFFFFFFFFFFFFFFFFFFFFFFFFFFFFFFFFFF AND DUP2 MSTORE PUSH1 0x20 ADD SWAP1 DUP2 MSTORE PUSH1 0x20 ADD PUSH1 0x0 KECCAK256 PUSH1 0x0 DUP3 ADD MLOAD DUP2 PUSH1 0x0 ADD SSTORE PUSH1 0x20 DUP3 ADD MLOAD DUP2 PUSH1 0x1 ADD PUSH1 0x0 PUSH2 0x100 EXP DUP2 SLOAD DUP2 PUSH1 0xFF MUL NOT AND SWAP1 DUP4 ISZERO ISZERO MUL OR SWAP1 SSTORE POP PUSH1 0x40 DUP3 ADD MLOAD DUP2 PUSH1 0x2 ADD SSTORE SWAP1 POP POP POP JUMP JUMPDEST PUSH1 0x5 PUSH1 0x20 MSTORE DUP1 PUSH1 0x0 MSTORE PUSH1 0x40 PUSH1 0x0 KECCAK256 PUSH1 0x0 SWAP2 POP SWAP1 POP DUP1 PUSH1 0x0 ADD SLOAD SWAP1 DUP1 PUSH1 0x1 ADD PUSH1 0x0 SWAP1 SLOAD SWAP1 PUSH2 0x100 EXP SWAP1 DIV PUSH1 0xFF AND SWAP1 DUP1 PUSH1 0x2 ADD SLOAD SWAP1 POP DUP4 JUMP JUMPDEST PUSH1 0x0 DUP1 SLOAD SWAP1 PUSH2 0x100 EXP SWAP1 DIV PUSH20 0xFFFFFFFFFFFFFFFFFFFFFFFFFFFFFFFFFFFFFFFF AND PUSH20 0xFFFFFFFFFFFFFFFFFFFFFFFFFFFFFFFFFFFFFFFF AND CALLER PUSH20 0xFFFFFFFFFFFFFFFFFFFFFFFFFFFFFFFFFFFFFFFF AND EQ PUSH2 0x971 JUMPI PUSH1 0x40 MLOAD PUSH32 0x8C379A000000000000000000000000000000000000000000000000000000000 DUP2 MSTORE PUSH1 0x4 ADD PUSH2 0x968 SWAP1 PUSH2 0x1AEC JUMP JUMPDEST PUSH1 0x40 MLOAD DUP1 SWAP2 SUB SWAP1 REVERT JUMPDEST PUSH1 0x40 MLOAD DUP1 PUSH1 0x60 ADD PUSH1 0x40 MSTORE DUP1 DUP3 DUP2 MSTORE PUSH1 0x20 ADD PUSH1 0x1 ISZERO ISZERO DUP2 MSTORE PUSH1 0x20 ADD PUSH1 0x0 DUP2 MSTORE POP PUSH1 0x5 PUSH1 0x0 DUP5 PUSH20 0xFFFFFFFFFFFFFFFFFFFFFFFFFFFFFFFFFFFFFFFF AND PUSH20 0xFFFFFFFFFFFFFFFFFFFFFFFFFFFFFFFFFFFFFFFF AND DUP2 MSTORE PUSH1 0x20 ADD SWAP1 DUP2 MSTORE PUSH1 0x20 ADD PUSH1 0x0 KECCAK256 PUSH1 0x0 DUP3 ADD MLOAD DUP2 PUSH1 0x0 ADD SSTORE PUSH1 0x20 DUP3 ADD MLOAD DUP2 PUSH1 0x1 ADD PUSH1 0x0 PUSH2 0x100 EXP DUP2 SLOAD DUP2 PUSH1 0xFF MUL NOT AND SWAP1 DUP4 ISZERO ISZERO MUL OR SWAP1 SSTORE POP PUSH1 0x40 DUP3 ADD MLOAD DUP2 PUSH1 0x2 ADD SSTORE SWAP1 POP POP POP POP JUMP JUMPDEST PUSH1 0x0 DUP1 SLOAD SWAP1 PUSH2 0x100 EXP SWAP1 DIV PUSH20 0xFFFFFFFFFFFFFFFFFFFFFFFFFFFFFFFFFFFFFFFF AND DUP2 JUMP JUMPDEST PUSH1 0x0 DUP1 SLOAD SWAP1 PUSH2 0x100 EXP SWAP1 DIV PUSH20 0xFFFFFFFFFFFFFFFFFFFFFFFFFFFFFFFFFFFFFFFF AND PUSH20 0xFFFFFFFFFFFFFFFFFFFFFFFFFFFFFFFFFFFFFFFF AND CALLER PUSH20 0xFFFFFFFFFFFFFFFFFFFFFFFFFFFFFFFFFFFFFFFF AND EQ PUSH2 0xABC JUMPI PUSH1 0x40 MLOAD PUSH32 0x8C379A000000000000000000000000000000000000000000000000000000000 DUP2 MSTORE PUSH1 0x4 ADD PUSH2 0xAB3 SWAP1 PUSH2 0x1AEC JUMP JUMPDEST PUSH1 0x40 MLOAD DUP1 SWAP2 SUB SWAP1 REVERT JUMPDEST DUP1 PUSH1 0x1 PUSH1 0x0 ADD PUSH1 0x0 DUP3 DUP3 SLOAD PUSH2 0xAD1 SWAP2 SWAP1 PUSH2 0x1C20 JUMP JUMPDEST SWAP3 POP POP DUP2 SWAP1 SSTORE POP DUP1 PUSH1 0x4 PUSH1 0x0 CALLER PUSH20 0xFFFFFFFFFFFFFFFFFFFFFFFFFFFFFFFFFFFFFFFF AND PUSH20 0xFFFFFFFFFFFFFFFFFFFFFFFFFFFFFFFFFFFFFFFF AND DUP2 MSTORE PUSH1 0x20 ADD SWAP1 DUP2 MSTORE PUSH1 0x20 ADD PUSH1 0x0 KECCAK256 PUSH1 0x0 DUP3 DUP3 SLOAD PUSH2 0xB27 SWAP2 SWAP1 PUSH2 0x1C20 JUMP JUMPDEST SWAP3 POP POP DUP2 SWAP1 SSTORE POP PUSH32 0x30385C845B448A36257A6A1716E6AD2E1BC2CBE333CDE1E69FE849AD6511ADFE CALLER DUP3 PUSH1 0x40 MLOAD PUSH2 0xB5F SWAP3 SWAP2 SWAP1 PUSH2 0x1AA1 JUMP JUMPDEST PUSH1 0x40 MLOAD DUP1 SWAP2 SUB SWAP1 LOG1 POP JUMP JUMPDEST PUSH1 0x0 DUP2 GT PUSH2 0xBAD JUMPI PUSH1 0x40 MLOAD PUSH32 0x8C379A000000000000000000000000000000000000000000000000000000000 DUP2 MSTORE PUSH1 0x4 ADD PUSH2 0xBA4 SWAP1 PUSH2 0x1B0C JUMP JUMPDEST PUSH1 0x40 MLOAD DUP1 SWAP2 SUB SWAP1 REVERT JUMPDEST PUSH1 0x5 PUSH1 0x0 CALLER PUSH20 0xFFFFFFFFFFFFFFFFFFFFFFFFFFFFFFFFFFFFFFFF AND PUSH20 0xFFFFFFFFFFFFFFFFFFFFFFFFFFFFFFFFFFFFFFFF AND DUP2 MSTORE PUSH1 0x20 ADD SWAP1 DUP2 MSTORE PUSH1 0x20 ADD PUSH1 0x0 KECCAK256 PUSH1 0x1 ADD PUSH1 0x0 SWAP1 SLOAD SWAP1 PUSH2 0x100 EXP SWAP1 DIV PUSH1 0xFF AND ISZERO PUSH2 0xC6A PUSH1 0x40 MLOAD DUP1 PUSH1 0x60 ADD PUSH1 0x40 MSTORE DUP1 PUSH1 0x2D DUP2 MSTORE PUSH1 0x20 ADD PUSH2 0x2092 PUSH1 0x2D SWAP2 CODECOPY PUSH2 0xC65 PUSH1 0x5 PUSH1 0x0 CALLER PUSH20 0xFFFFFFFFFFFFFFFFFFFFFFFFFFFFFFFFFFFFFFFF AND PUSH20 0xFFFFFFFFFFFFFFFFFFFFFFFFFFFFFFFFFFFFFFFF AND DUP2 MSTORE PUSH1 0x20 ADD SWAP1 DUP2 MSTORE PUSH1 0x20 ADD PUSH1 0x0 KECCAK256 PUSH1 0x0 ADD SLOAD PUSH2 0x11E3 JUMP JUMPDEST PUSH2 0x1575 JUMP JUMPDEST SWAP1 PUSH2 0xCAB JUMPI PUSH1 0x40 MLOAD PUSH32 0x8C379A000000000000000000000000000000000000000000000000000000000 DUP2 MSTORE PUSH1 0x4 ADD PUSH2 0xCA2 SWAP2 SWAP1 PUSH2 0x1ACA JUMP JUMPDEST PUSH1 0x40 MLOAD DUP1 SWAP2 SUB SWAP1 REVERT JUMPDEST POP DUP1 PUSH1 0x5 PUSH1 0x0 CALLER PUSH20 0xFFFFFFFFFFFFFFFFFFFFFFFFFFFFFFFFFFFFFFFF AND PUSH20 0xFFFFFFFFFFFFFFFFFFFFFFFFFFFFFFFFFFFFFFFF AND DUP2 MSTORE PUSH1 0x20 ADD SWAP1 DUP2 MSTORE PUSH1 0x20 ADD PUSH1 0x0 KECCAK256 PUSH1 0x2 ADD SLOAD PUSH1 0x4 PUSH1 0x0 CALLER PUSH20 0xFFFFFFFFFFFFFFFFFFFFFFFFFFFFFFFFFFFFFFFF AND PUSH20 0xFFFFFFFFFFFFFFFFFFFFFFFFFFFFFFFFFFFFFFFF AND DUP2 MSTORE PUSH1 0x20 ADD SWAP1 DUP2 MSTORE PUSH1 0x20 ADD PUSH1 0x0 KECCAK256 SLOAD PUSH2 0xD3A SWAP2 SWAP1 PUSH2 0x1D38 JUMP JUMPDEST LT ISZERO PUSH2 0xF52 PUSH2 0xE33 PUSH2 0xDF8 PUSH1 0x40 MLOAD DUP1 PUSH1 0x60 ADD PUSH1 0x40 MSTORE DUP1 PUSH1 0x36 DUP2 MSTORE PUSH1 0x20 ADD PUSH2 0x20BF PUSH1 0x36 SWAP2 CODECOPY PUSH2 0xDF3 PUSH1 0x5 PUSH1 0x0 CALLER PUSH20 0xFFFFFFFFFFFFFFFFFFFFFFFFFFFFFFFFFFFFFFFF AND PUSH20 0xFFFFFFFFFFFFFFFFFFFFFFFFFFFFFFFFFFFFFFFF AND DUP2 MSTORE PUSH1 0x20 ADD SWAP1 DUP2 MSTORE PUSH1 0x20 ADD PUSH1 0x0 KECCAK256 PUSH1 0x2 ADD SLOAD PUSH1 0x4 PUSH1 0x0 CALLER PUSH20 0xFFFFFFFFFFFFFFFFFFFFFFFFFFFFFFFFFFFFFFFF AND PUSH20 0xFFFFFFFFFFFFFFFFFFFFFFFFFFFFFFFFFFFFFFFF AND DUP2 MSTORE PUSH1 0x20 ADD SWAP1 DUP2 MSTORE PUSH1 0x20 ADD PUSH1 0x0 KECCAK256 SLOAD PUSH2 0xDEE SWAP2 SWAP1 PUSH2 0x1D38 JUMP JUMPDEST PUSH2 0x13EC JUMP JUMPDEST PUSH2 0x1575 JUMP JUMPDEST PUSH1 0x40 MLOAD DUP1 PUSH1 0x40 ADD PUSH1 0x40 MSTORE DUP1 PUSH1 0x2 DUP2 MSTORE PUSH1 0x20 ADD PUSH32 0x290A000000000000000000000000000000000000000000000000000000000000 DUP2 MSTORE POP PUSH2 0x1575 JUMP JUMPDEST PUSH2 0xF4D PUSH2 0xEBF PUSH1 0x40 MLOAD DUP1 PUSH1 0x40 ADD PUSH1 0x40 MSTORE DUP1 PUSH1 0x9 DUP2 MSTORE PUSH1 0x20 ADD PUSH32 0x596F752068617665200000000000000000000000000000000000000000000000 DUP2 MSTORE POP PUSH2 0xEBA PUSH1 0x5 PUSH1 0x0 CALLER PUSH20 0xFFFFFFFFFFFFFFFFFFFFFFFFFFFFFFFFFFFFFFFF AND PUSH20 0xFFFFFFFFFFFFFFFFFFFFFFFFFFFFFFFFFFFFFFFF AND DUP2 MSTORE PUSH1 0x20 ADD SWAP1 DUP2 MSTORE PUSH1 0x20 ADD PUSH1 0x0 KECCAK256 PUSH1 0x2 ADD SLOAD PUSH2 0x13EC JUMP JUMPDEST PUSH2 0x1575 JUMP JUMPDEST PUSH2 0xF48 PUSH1 0x40 MLOAD DUP1 PUSH1 0x40 ADD PUSH1 0x40 MSTORE DUP1 PUSH1 0x1E DUP2 MSTORE PUSH1 0x20 ADD PUSH32 0x20626C6F636B6564204A445275626C657320627920726561736F6E3A0A090000 DUP2 MSTORE POP PUSH2 0xF43 PUSH1 0x5 PUSH1 0x0 CALLER PUSH20 0xFFFFFFFFFFFFFFFFFFFFFFFFFFFFFFFFFFFFFFFF AND PUSH20 0xFFFFFFFFFFFFFFFFFFFFFFFFFFFFFFFFFFFFFFFF AND DUP2 MSTORE PUSH1 0x20 ADD SWAP1 DUP2 MSTORE PUSH1 0x20 ADD PUSH1 0x0 KECCAK256 PUSH1 0x0 ADD SLOAD PUSH2 0x11E3 JUMP JUMPDEST PUSH2 0x1575 JUMP JUMPDEST PUSH2 0x1575 JUMP JUMPDEST PUSH2 0x1575 JUMP JUMPDEST SWAP1 PUSH2 0xF93 JUMPI PUSH1 0x40 MLOAD PUSH32 0x8C379A000000000000000000000000000000000000000000000000000000000 DUP2 MSTORE PUSH1 0x4 ADD PUSH2 0xF8A SWAP2 SWAP1 PUSH2 0x1ACA JUMP JUMPDEST PUSH1 0x40 MLOAD DUP1 SWAP2 SUB SWAP1 REVERT JUMPDEST POP DUP1 PUSH1 0x4 PUSH1 0x0 CALLER PUSH20 0xFFFFFFFFFFFFFFFFFFFFFFFFFFFFFFFFFFFFFFFF AND PUSH20 0xFFFFFFFFFFFFFFFFFFFFFFFFFFFFFFFFFFFFFFFF AND DUP2 MSTORE PUSH1 0x20 ADD SWAP1 DUP2 MSTORE PUSH1 0x20 ADD PUSH1 0x0 KECCAK256 SLOAD LT ISZERO PUSH2 0x107E PUSH2 0x1043 PUSH1 0x40 MLOAD DUP1 PUSH1 0x60 ADD PUSH1 0x40 MSTORE DUP1 PUSH1 0x2C DUP2 MSTORE PUSH1 0x20 ADD PUSH2 0x2066 PUSH1 0x2C SWAP2 CODECOPY PUSH2 0x103E PUSH1 0x4 PUSH1 0x0 CALLER PUSH20 0xFFFFFFFFFFFFFFFFFFFFFFFFFFFFFFFFFFFFFFFF AND PUSH20 0xFFFFFFFFFFFFFFFFFFFFFFFFFFFFFFFFFFFFFFFF AND DUP2 MSTORE PUSH1 0x20 ADD SWAP1 DUP2 MSTORE PUSH1 0x20 ADD PUSH1 0x0 KECCAK256 SLOAD PUSH2 0x13EC JUMP JUMPDEST PUSH2 0x1575 JUMP JUMPDEST PUSH1 0x40 MLOAD DUP1 PUSH1 0x40 ADD PUSH1 0x40 MSTORE DUP1 PUSH1 0x1 DUP2 MSTORE PUSH1 0x20 ADD PUSH32 0x2900000000000000000000000000000000000000000000000000000000000000 DUP2 MSTORE POP PUSH2 0x1575 JUMP JUMPDEST SWAP1 PUSH2 0x10BF JUMPI PUSH1 0x40 MLOAD PUSH32 0x8C379A000000000000000000000000000000000000000000000000000000000 DUP2 MSTORE PUSH1 0x4 ADD PUSH2 0x10B6 SWAP2 SWAP1 PUSH2 0x1ACA JUMP JUMPDEST PUSH1 0x40 MLOAD DUP1 SWAP2 SUB SWAP1 REVERT JUMPDEST POP DUP1 PUSH1 0x4 PUSH1 0x0 CALLER PUSH20 0xFFFFFFFFFFFFFFFFFFFFFFFFFFFFFFFFFFFFFFFF AND PUSH20 0xFFFFFFFFFFFFFFFFFFFFFFFFFFFFFFFFFFFFFFFF AND DUP2 MSTORE PUSH1 0x20 ADD SWAP1 DUP2 MSTORE PUSH1 0x20 ADD PUSH1 0x0 KECCAK256 SLOAD PUSH2 0x110B SWAP2 SWAP1 PUSH2 0x1D38 JUMP JUMPDEST PUSH1 0x4 PUSH1 0x0 CALLER PUSH20 0xFFFFFFFFFFFFFFFFFFFFFFFFFFFFFFFFFFFFFFFF AND PUSH20 0xFFFFFFFFFFFFFFFFFFFFFFFFFFFFFFFFFFFFFFFF AND DUP2 MSTORE PUSH1 0x20 ADD SWAP1 DUP2 MSTORE PUSH1 0x20 ADD PUSH1 0x0 KECCAK256 DUP2 SWAP1 SSTORE POP DUP1 PUSH1 0x4 PUSH1 0x0 DUP5 PUSH20 0xFFFFFFFFFFFFFFFFFFFFFFFFFFFFFFFFFFFFFFFF AND PUSH20 0xFFFFFFFFFFFFFFFFFFFFFFFFFFFFFFFFFFFFFFFF AND DUP2 MSTORE PUSH1 0x20 ADD SWAP1 DUP2 MSTORE PUSH1 0x20 ADD PUSH1 0x0 KECCAK256 PUSH1 0x0 DUP3 DUP3 SLOAD PUSH2 0x119D SWAP2 SWAP1 PUSH2 0x1C20 JUMP JUMPDEST SWAP3 POP POP DUP2 SWAP1 SSTORE POP PUSH32 0x8930AC7BCB101F94C05B13845098AE74383BFB9E348E73061B730040945CBB82 CALLER DUP4 DUP4 PUSH1 0x40 MLOAD PUSH2 0x11D7 SWAP4 SWAP3 SWAP2 SWAP1 PUSH2 0x1A6A JUMP JUMPDEST PUSH1 0x40 MLOAD DUP1 SWAP2 SUB SWAP1 LOG1 POP POP JUMP JUMPDEST PUSH1 0x60 PUSH1 0x3 PUSH1 0x6 PUSH1 0x0 DUP5 DUP2 MSTORE PUSH1 0x20 ADD SWAP1 DUP2 MSTORE PUSH1 0x20 ADD PUSH1 0x0 KECCAK256 SLOAD DUP2 SLOAD DUP2 LT PUSH2 0x120C JUMPI PUSH2 0x120B PUSH2 0x1F3C JUMP JUMPDEST JUMPDEST SWAP1 PUSH1 0x0 MSTORE PUSH1 0x20 PUSH1 0x0 KECCAK256 SWAP1 PUSH1 0x2 MUL ADD PUSH1 0x1 ADD DUP1 SLOAD PUSH2 0x1228 SWAP1 PUSH2 0x1E03 JUMP JUMPDEST DUP1 PUSH1 0x1F ADD PUSH1 0x20 DUP1 SWAP2 DIV MUL PUSH1 0x20 ADD PUSH1 0x40 MLOAD SWAP1 DUP2 ADD PUSH1 0x40 MSTORE DUP1 SWAP3 SWAP2 SWAP1 DUP2 DUP2 MSTORE PUSH1 0x20 ADD DUP3 DUP1 SLOAD PUSH2 0x1254 SWAP1 PUSH2 0x1E03 JUMP JUMPDEST DUP1 ISZERO PUSH2 0x12A1 JUMPI DUP1 PUSH1 0x1F LT PUSH2 0x1276 JUMPI PUSH2 0x100 DUP1 DUP4 SLOAD DIV MUL DUP4 MSTORE SWAP2 PUSH1 0x20 ADD SWAP2 PUSH2 0x12A1 JUMP JUMPDEST DUP3 ADD SWAP2 SWAP1 PUSH1 0x0 MSTORE PUSH1 0x20 PUSH1 0x0 KECCAK256 SWAP1 JUMPDEST DUP2 SLOAD DUP2 MSTORE SWAP1 PUSH1 0x1 ADD SWAP1 PUSH1 0x20 ADD DUP1 DUP4 GT PUSH2 0x1284 JUMPI DUP3 SWAP1 SUB PUSH1 0x1F AND DUP3 ADD SWAP2 JUMPDEST POP POP POP POP POP SWAP1 POP SWAP2 SWAP1 POP JUMP JUMPDEST PUSH1 0x0 DUP1 SLOAD SWAP1 PUSH2 0x100 EXP SWAP1 DIV PUSH20 0xFFFFFFFFFFFFFFFFFFFFFFFFFFFFFFFFFFFFFFFF AND PUSH20 0xFFFFFFFFFFFFFFFFFFFFFFFFFFFFFFFFFFFFFFFF AND CALLER PUSH20 0xFFFFFFFFFFFFFFFFFFFFFFFFFFFFFFFFFFFFFFFF AND EQ PUSH2 0x133B JUMPI PUSH1 0x40 MLOAD PUSH32 0x8C379A000000000000000000000000000000000000000000000000000000000 DUP2 MSTORE PUSH1 0x4 ADD PUSH2 0x1332 SWAP1 PUSH2 0x1AEC JUMP JUMPDEST PUSH1 0x40 MLOAD DUP1 SWAP2 SUB SWAP1 REVERT JUMPDEST PUSH1 0x40 MLOAD DUP1 PUSH1 0x60 ADD PUSH1 0x40 MSTORE DUP1 DUP4 DUP2 MSTORE PUSH1 0x20 ADD PUSH1 0x0 ISZERO ISZERO DUP2 MSTORE PUSH1 0x20 ADD DUP3 DUP2 MSTORE POP PUSH1 0x5 PUSH1 0x0 DUP6 PUSH20 0xFFFFFFFFFFFFFFFFFFFFFFFFFFFFFFFFFFFFFFFF AND PUSH20 0xFFFFFFFFFFFFFFFFFFFFFFFFFFFFFFFFFFFFFFFF AND DUP2 MSTORE PUSH1 0x20 ADD SWAP1 DUP2 MSTORE PUSH1 0x20 ADD PUSH1 0x0 KECCAK256 PUSH1 0x0 DUP3 ADD MLOAD DUP2 PUSH1 0x0 ADD SSTORE PUSH1 0x20 DUP3 ADD MLOAD DUP2 PUSH1 0x1 ADD PUSH1 0x0 PUSH2 0x100 EXP DUP2 SLOAD DUP2 PUSH1 0xFF MUL NOT AND SWAP1 DUP4 ISZERO ISZERO MUL OR SWAP1 SSTORE POP PUSH1 0x40 DUP3 ADD MLOAD DUP2 PUSH1 0x2 ADD SSTORE SWAP1 POP POP POP POP POP JUMP JUMPDEST PUSH1 0x6 PUSH1 0x20 MSTORE DUP1 PUSH1 0x0 MSTORE PUSH1 0x40 PUSH1 0x0 KECCAK256 PUSH1 0x0 SWAP2 POP SWAP1 POP SLOAD DUP2 JUMP JUMPDEST PUSH1 0x60 PUSH1 0x0 DUP3 EQ ISZERO PUSH2 0x1434 JUMPI PUSH1 0x40 MLOAD DUP1 PUSH1 0x40 ADD PUSH1 0x40 MSTORE DUP1 PUSH1 0x1 DUP2 MSTORE PUSH1 0x20 ADD PUSH32 0x3000000000000000000000000000000000000000000000000000000000000000 DUP2 MSTORE POP SWAP1 POP PUSH2 0x1570 JUMP JUMPDEST PUSH1 0x0 DUP3 SWAP1 POP PUSH1 0x0 JUMPDEST PUSH1 0x0 DUP3 EQ PUSH2 0x1466 JUMPI DUP1 DUP1 PUSH2 0x144F SWAP1 PUSH2 0x1E66 JUMP JUMPDEST SWAP2 POP POP PUSH1 0xA DUP3 PUSH2 0x145F SWAP2 SWAP1 PUSH2 0x1CAD JUMP JUMPDEST SWAP2 POP PUSH2 0x143C JUMP JUMPDEST PUSH1 0x0 DUP2 PUSH8 0xFFFFFFFFFFFFFFFF DUP2 GT ISZERO PUSH2 0x1482 JUMPI PUSH2 0x1481 PUSH2 0x1F6B JUMP JUMPDEST JUMPDEST PUSH1 0x40 MLOAD SWAP1 DUP1 DUP3 MSTORE DUP1 PUSH1 0x1F ADD PUSH1 0x1F NOT AND PUSH1 0x20 ADD DUP3 ADD PUSH1 0x40 MSTORE DUP1 ISZERO PUSH2 0x14B4 JUMPI DUP2 PUSH1 0x20 ADD PUSH1 0x1 DUP3 MUL DUP1 CALLDATASIZE DUP4 CALLDATACOPY DUP1 DUP3 ADD SWAP2 POP POP SWAP1 POP JUMPDEST POP SWAP1 POP PUSH1 0x0 DUP3 SWAP1 POP JUMPDEST PUSH1 0x0 DUP7 EQ PUSH2 0x1568 JUMPI PUSH1 0x1 DUP2 PUSH2 0x14D2 SWAP2 SWAP1 PUSH2 0x1D38 JUMP JUMPDEST SWAP1 POP PUSH1 0x0 PUSH1 0xA DUP1 DUP9 PUSH2 0x14E4 SWAP2 SWAP1 PUSH2 0x1CAD JUMP JUMPDEST PUSH2 0x14EE SWAP2 SWAP1 PUSH2 0x1CDE JUMP JUMPDEST DUP8 PUSH2 0x14F9 SWAP2 SWAP1 PUSH2 0x1D38 JUMP JUMPDEST PUSH1 0x30 PUSH2 0x1505 SWAP2 SWAP1 PUSH2 0x1C76 JUMP JUMPDEST SWAP1 POP PUSH1 0x0 DUP2 PUSH1 0xF8 SHL SWAP1 POP DUP1 DUP5 DUP5 DUP2 MLOAD DUP2 LT PUSH2 0x1523 JUMPI PUSH2 0x1522 PUSH2 0x1F3C JUMP JUMPDEST JUMPDEST PUSH1 0x20 ADD ADD SWAP1 PUSH31 0xFFFFFFFFFFFFFFFFFFFFFFFFFFFFFFFFFFFFFFFFFFFFFFFFFFFFFFFFFFFFFF NOT AND SWAP1 DUP2 PUSH1 0x0 BYTE SWAP1 MSTORE8 POP PUSH1 0xA DUP9 PUSH2 0x155F SWAP2 SWAP1 PUSH2 0x1CAD JUMP JUMPDEST SWAP8 POP POP POP PUSH2 0x14BD JUMP JUMPDEST DUP2 SWAP5 POP POP POP POP POP JUMPDEST SWAP2 SWAP1 POP JUMP JUMPDEST PUSH1 0x60 PUSH1 0x0 DUP3 MLOAD DUP5 MLOAD PUSH2 0x1587 SWAP2 SWAP1 PUSH2 0x1C20 JUMP JUMPDEST PUSH8 0xFFFFFFFFFFFFFFFF DUP2 GT ISZERO PUSH2 0x15A0 JUMPI PUSH2 0x159F PUSH2 0x1F6B JUMP JUMPDEST JUMPDEST PUSH1 0x40 MLOAD SWAP1 DUP1 DUP3 MSTORE DUP1 PUSH1 0x1F ADD PUSH1 0x1F NOT AND PUSH1 0x20 ADD DUP3 ADD PUSH1 0x40 MSTORE DUP1 ISZERO PUSH2 0x15D2 JUMPI DUP2 PUSH1 0x20 ADD PUSH1 0x1 DUP3 MUL DUP1 CALLDATASIZE DUP4 CALLDATACOPY DUP1 DUP3 ADD SWAP2 POP POP SWAP1 POP JUMPDEST POP SWAP1 POP PUSH1 0x0 JUMPDEST DUP5 MLOAD DUP2 LT ISZERO PUSH2 0x1654 JUMPI DUP5 DUP2 DUP2 MLOAD DUP2 LT PUSH2 0x15F4 JUMPI PUSH2 0x15F3 PUSH2 0x1F3C JUMP JUMPDEST JUMPDEST PUSH1 0x20 ADD ADD MLOAD PUSH1 0xF8 SHR PUSH1 0xF8 SHL DUP3 DUP3 DUP2 MLOAD DUP2 LT PUSH2 0x1612 JUMPI PUSH2 0x1611 PUSH2 0x1F3C JUMP JUMPDEST JUMPDEST PUSH1 0x20 ADD ADD SWAP1 PUSH31 0xFFFFFFFFFFFFFFFFFFFFFFFFFFFFFFFFFFFFFFFFFFFFFFFFFFFFFFFFFFFFFF NOT AND SWAP1 DUP2 PUSH1 0x0 BYTE SWAP1 MSTORE8 POP DUP1 DUP1 PUSH2 0x164C SWAP1 PUSH2 0x1E66 JUMP JUMPDEST SWAP2 POP POP PUSH2 0x15D8 JUMP JUMPDEST JUMPDEST DUP4 MLOAD DUP6 MLOAD DUP3 PUSH2 0x1664 SWAP2 SWAP1 PUSH2 0x1D38 JUMP JUMPDEST LT ISZERO PUSH2 0x16E9 JUMPI DUP4 DUP6 MLOAD DUP3 PUSH2 0x1678 SWAP2 SWAP1 PUSH2 0x1D38 JUMP JUMPDEST DUP2 MLOAD DUP2 LT PUSH2 0x1689 JUMPI PUSH2 0x1688 PUSH2 0x1F3C JUMP JUMPDEST JUMPDEST PUSH1 0x20 ADD ADD MLOAD PUSH1 0xF8 SHR PUSH1 0xF8 SHL DUP3 DUP3 DUP2 MLOAD DUP2 LT PUSH2 0x16A7 JUMPI PUSH2 0x16A6 PUSH2 0x1F3C JUMP JUMPDEST JUMPDEST PUSH1 0x20 ADD ADD SWAP1 PUSH31 0xFFFFFFFFFFFFFFFFFFFFFFFFFFFFFFFFFFFFFFFFFFFFFFFFFFFFFFFFFFFFFF NOT AND SWAP1 DUP2 PUSH1 0x0 BYTE SWAP1 MSTORE8 POP DUP1 DUP1 PUSH2 0x16E1 SWAP1 PUSH2 0x1E66 JUMP JUMPDEST SWAP2 POP POP PUSH2 0x1655 JUMP JUMPDEST DUP2 SWAP3 POP POP POP SWAP3 SWAP2 POP POP JUMP JUMPDEST DUP3 DUP1 SLOAD PUSH2 0x1700 SWAP1 PUSH2 0x1E03 JUMP JUMPDEST SWAP1 PUSH1 0x0 MSTORE PUSH1 0x20 PUSH1 0x0 KECCAK256 SWAP1 PUSH1 0x1F ADD PUSH1 0x20 SWAP1 DIV DUP2 ADD SWAP3 DUP3 PUSH2 0x1722 JUMPI PUSH1 0x0 DUP6 SSTORE PUSH2 0x1769 JUMP JUMPDEST DUP3 PUSH1 0x1F LT PUSH2 0x173B JUMPI DUP1 MLOAD PUSH1 0xFF NOT AND DUP4 DUP1 ADD OR DUP6 SSTORE PUSH2 0x1769 JUMP JUMPDEST DUP3 DUP1 ADD PUSH1 0x1 ADD DUP6 SSTORE DUP3 ISZERO PUSH2 0x1769 JUMPI SWAP2 DUP3 ADD JUMPDEST DUP3 DUP2 GT ISZERO PUSH2 0x1768 JUMPI DUP3 MLOAD DUP3 SSTORE SWAP2 PUSH1 0x20 ADD SWAP2 SWAP1 PUSH1 0x1 ADD SWAP1 PUSH2 0x174D JUMP JUMPDEST JUMPDEST POP SWAP1 POP PUSH2 0x1776 SWAP2 SWAP1 PUSH2 0x177A JUMP JUMPDEST POP SWAP1 JUMP JUMPDEST JUMPDEST DUP1 DUP3 GT ISZERO PUSH2 0x1793 JUMPI PUSH1 0x0 DUP2 PUSH1 0x0 SWAP1 SSTORE POP PUSH1 0x1 ADD PUSH2 0x177B JUMP JUMPDEST POP SWAP1 JUMP JUMPDEST PUSH1 0x0 PUSH2 0x17AA PUSH2 0x17A5 DUP5 PUSH2 0x1BD3 JUMP JUMPDEST PUSH2 0x1BAE JUMP JUMPDEST SWAP1 POP DUP3 DUP2 MSTORE PUSH1 0x20 DUP2 ADD DUP5 DUP5 DUP5 ADD GT ISZERO PUSH2 0x17C6 JUMPI PUSH2 0x17C5 PUSH2 0x1F9F JUMP JUMPDEST JUMPDEST PUSH2 0x17D1 DUP5 DUP3 DUP6 PUSH2 0x1DC1 JUMP JUMPDEST POP SWAP4 SWAP3 POP POP POP JUMP JUMPDEST PUSH1 0x0 DUP2 CALLDATALOAD SWAP1 POP PUSH2 0x17E8 DUP2 PUSH2 0x2037 JUMP JUMPDEST SWAP3 SWAP2 POP POP JUMP JUMPDEST PUSH1 0x0 DUP3 PUSH1 0x1F DUP4 ADD SLT PUSH2 0x1803 JUMPI PUSH2 0x1802 PUSH2 0x1F9A JUMP JUMPDEST JUMPDEST DUP2 CALLDATALOAD PUSH2 0x1813 DUP5 DUP3 PUSH1 0x20 DUP7 ADD PUSH2 0x1797 JUMP JUMPDEST SWAP2 POP POP SWAP3 SWAP2 POP POP JUMP JUMPDEST PUSH1 0x0 DUP2 CALLDATALOAD SWAP1 POP PUSH2 0x182B DUP2 PUSH2 0x204E JUMP JUMPDEST SWAP3 SWAP2 POP POP JUMP JUMPDEST PUSH1 0x0 PUSH1 0x20 DUP3 DUP5 SUB SLT ISZERO PUSH2 0x1847 JUMPI PUSH2 0x1846 PUSH2 0x1FA9 JUMP JUMPDEST JUMPDEST PUSH1 0x0 PUSH2 0x1855 DUP5 DUP3 DUP6 ADD PUSH2 0x17D9 JUMP JUMPDEST SWAP2 POP POP SWAP3 SWAP2 POP POP JUMP JUMPDEST PUSH1 0x0 DUP1 PUSH1 0x40 DUP4 DUP6 SUB SLT ISZERO PUSH2 0x1875 JUMPI PUSH2 0x1874 PUSH2 0x1FA9 JUMP JUMPDEST JUMPDEST PUSH1 0x0 PUSH2 0x1883 DUP6 DUP3 DUP7 ADD PUSH2 0x17D9 JUMP JUMPDEST SWAP3 POP POP PUSH1 0x20 PUSH2 0x1894 DUP6 DUP3 DUP7 ADD PUSH2 0x181C JUMP JUMPDEST SWAP2 POP POP SWAP3 POP SWAP3 SWAP1 POP JUMP JUMPDEST PUSH1 0x0 DUP1 PUSH1 0x0 PUSH1 0x60 DUP5 DUP7 SUB SLT ISZERO PUSH2 0x18B7 JUMPI PUSH2 0x18B6 PUSH2 0x1FA9 JUMP JUMPDEST JUMPDEST PUSH1 0x0 PUSH2 0x18C5 DUP7 DUP3 DUP8 ADD PUSH2 0x17D9 JUMP JUMPDEST SWAP4 POP POP PUSH1 0x20 PUSH2 0x18D6 DUP7 DUP3 DUP8 ADD PUSH2 0x181C JUMP JUMPDEST SWAP3 POP POP PUSH1 0x40 PUSH2 0x18E7 DUP7 DUP3 DUP8 ADD PUSH2 0x181C JUMP JUMPDEST SWAP2 POP POP SWAP3 POP SWAP3 POP SWAP3 JUMP JUMPDEST PUSH1 0x0 PUSH1 0x20 DUP3 DUP5 SUB SLT ISZERO PUSH2 0x1907 JUMPI PUSH2 0x1906 PUSH2 0x1FA9 JUMP JUMPDEST JUMPDEST PUSH1 0x0 PUSH2 0x1915 DUP5 DUP3 DUP6 ADD PUSH2 0x181C JUMP JUMPDEST SWAP2 POP POP SWAP3 SWAP2 POP POP JUMP JUMPDEST PUSH1 0x0 DUP1 PUSH1 0x40 DUP4 DUP6 SUB SLT ISZERO PUSH2 0x1935 JUMPI PUSH2 0x1934 PUSH2 0x1FA9 JUMP JUMPDEST JUMPDEST PUSH1 0x0 PUSH2 0x1943 DUP6 DUP3 DUP7 ADD PUSH2 0x181C JUMP JUMPDEST SWAP3 POP POP PUSH1 0x20 DUP4 ADD CALLDATALOAD PUSH8 0xFFFFFFFFFFFFFFFF DUP2 GT ISZERO PUSH2 0x1964 JUMPI PUSH2 0x1963 PUSH2 0x1FA4 JUMP JUMPDEST JUMPDEST PUSH2 0x1970 DUP6 DUP3 DUP7 ADD PUSH2 0x17EE JUMP JUMPDEST SWAP2 POP POP SWAP3 POP SWAP3 SWAP1 POP JUMP JUMPDEST PUSH2 0x1983 DUP2 PUSH2 0x1D6C JUMP JUMPDEST DUP3 MSTORE POP POP JUMP JUMPDEST PUSH2 0x1992 DUP2 PUSH2 0x1D7E JUMP JUMPDEST DUP3 MSTORE POP POP JUMP JUMPDEST PUSH1 0x0 PUSH2 0x19A3 DUP3 PUSH2 0x1C04 JUMP JUMPDEST PUSH2 0x19AD DUP2 DUP6 PUSH2 0x1C0F JUMP JUMPDEST SWAP4 POP PUSH2 0x19BD DUP2 DUP6 PUSH1 0x20 DUP7 ADD PUSH2 0x1DD0 JUMP JUMPDEST PUSH2 0x19C6 DUP2 PUSH2 0x1FAE JUMP JUMPDEST DUP5 ADD SWAP2 POP POP SWAP3 SWAP2 POP POP JUMP JUMPDEST PUSH1 0x0 PUSH2 0x19DE PUSH1 0x13 DUP4 PUSH2 0x1C0F JUMP JUMPDEST SWAP2 POP PUSH2 0x19E9 DUP3 PUSH2 0x1FBF JUMP JUMPDEST PUSH1 0x20 DUP3 ADD SWAP1 POP SWAP2 SWAP1 POP JUMP JUMPDEST PUSH1 0x0 PUSH2 0x1A01 PUSH1 0x29 DUP4 PUSH2 0x1C0F JUMP JUMPDEST SWAP2 POP PUSH2 0x1A0C DUP3 PUSH2 0x1FE8 JUMP JUMPDEST PUSH1 0x40 DUP3 ADD SWAP1 POP SWAP2 SWAP1 POP JUMP JUMPDEST PUSH2 0x1A20 DUP2 PUSH2 0x1DAA JUMP JUMPDEST DUP3 MSTORE POP POP JUMP JUMPDEST PUSH1 0x0 PUSH1 0x20 DUP3 ADD SWAP1 POP PUSH2 0x1A3B PUSH1 0x0 DUP4 ADD DUP5 PUSH2 0x197A JUMP JUMPDEST SWAP3 SWAP2 POP POP JUMP JUMPDEST PUSH1 0x0 PUSH1 0x40 DUP3 ADD SWAP1 POP PUSH2 0x1A56 PUSH1 0x0 DUP4 ADD DUP6 PUSH2 0x197A JUMP JUMPDEST PUSH2 0x1A63 PUSH1 0x20 DUP4 ADD DUP5 PUSH2 0x197A JUMP JUMPDEST SWAP4 SWAP3 POP POP POP JUMP JUMPDEST PUSH1 0x0 PUSH1 0x60 DUP3 ADD SWAP1 POP PUSH2 0x1A7F PUSH1 0x0 DUP4 ADD DUP7 PUSH2 0x197A JUMP JUMPDEST PUSH2 0x1A8C PUSH1 0x20 DUP4 ADD DUP6 PUSH2 0x197A JUMP JUMPDEST PUSH2 0x1A99 PUSH1 0x40 DUP4 ADD DUP5 PUSH2 0x1A17 JUMP JUMPDEST SWAP5 SWAP4 POP POP POP POP JUMP JUMPDEST PUSH1 0x0 PUSH1 0x40 DUP3 ADD SWAP1 POP PUSH2 0x1AB6 PUSH1 0x0 DUP4 ADD DUP6 PUSH2 0x197A JUMP JUMPDEST PUSH2 0x1AC3 PUSH1 0x20 DUP4 ADD DUP5 PUSH2 0x1A17 JUMP JUMPDEST SWAP4 SWAP3 POP POP POP JUMP JUMPDEST PUSH1 0x0 PUSH1 0x20 DUP3 ADD SWAP1 POP DUP2 DUP2 SUB PUSH1 0x0 DUP4 ADD MSTORE PUSH2 0x1AE4 DUP2 DUP5 PUSH2 0x1998 JUMP JUMPDEST SWAP1 POP SWAP3 SWAP2 POP POP JUMP JUMPDEST PUSH1 0x0 PUSH1 0x20 DUP3 ADD SWAP1 POP DUP2 DUP2 SUB PUSH1 0x0 DUP4 ADD MSTORE PUSH2 0x1B05 DUP2 PUSH2 0x19D1 JUMP JUMPDEST SWAP1 POP SWAP2 SWAP1 POP JUMP JUMPDEST PUSH1 0x0 PUSH1 0x20 DUP3 ADD SWAP1 POP DUP2 DUP2 SUB PUSH1 0x0 DUP4 ADD MSTORE PUSH2 0x1B25 DUP2 PUSH2 0x19F4 JUMP JUMPDEST SWAP1 POP SWAP2 SWAP1 POP JUMP JUMPDEST PUSH1 0x0 PUSH1 0x20 DUP3 ADD SWAP1 POP PUSH2 0x1B41 PUSH1 0x0 DUP4 ADD DUP5 PUSH2 0x1A17 JUMP JUMPDEST SWAP3 SWAP2 POP POP JUMP JUMPDEST PUSH1 0x0 PUSH1 0x60 DUP3 ADD SWAP1 POP PUSH2 0x1B5C PUSH1 0x0 DUP4 ADD DUP7 PUSH2 0x1A17 JUMP JUMPDEST PUSH2 0x1B69 PUSH1 0x20 DUP4 ADD DUP6 PUSH2 0x1989 JUMP JUMPDEST PUSH2 0x1B76 PUSH1 0x40 DUP4 ADD DUP5 PUSH2 0x1A17 JUMP JUMPDEST SWAP5 SWAP4 POP POP POP POP JUMP JUMPDEST PUSH1 0x0 PUSH1 0x40 DUP3 ADD SWAP1 POP PUSH2 0x1B93 PUSH1 0x0 DUP4 ADD DUP6 PUSH2 0x1A17 JUMP JUMPDEST DUP2 DUP2 SUB PUSH1 0x20 DUP4 ADD MSTORE PUSH2 0x1BA5 DUP2 DUP5 PUSH2 0x1998 JUMP JUMPDEST SWAP1 POP SWAP4 SWAP3 POP POP POP JUMP JUMPDEST PUSH1 0x0 PUSH2 0x1BB8 PUSH2 0x1BC9 JUMP JUMPDEST SWAP1 POP PUSH2 0x1BC4 DUP3 DUP3 PUSH2 0x1E35 JUMP JUMPDEST SWAP2 SWAP1 POP JUMP JUMPDEST PUSH1 0x0 PUSH1 0x40 MLOAD SWAP1 POP SWAP1 JUMP JUMPDEST PUSH1 0x0 PUSH8 0xFFFFFFFFFFFFFFFF DUP3 GT ISZERO PUSH2 0x1BEE JUMPI PUSH2 0x1BED PUSH2 0x1F6B JUMP JUMPDEST JUMPDEST PUSH2 0x1BF7 DUP3 PUSH2 0x1FAE JUMP JUMPDEST SWAP1 POP PUSH1 0x20 DUP2 ADD SWAP1 POP SWAP2 SWAP1 POP JUMP JUMPDEST PUSH1 0x0 DUP2 MLOAD SWAP1 POP SWAP2 SWAP1 POP JUMP JUMPDEST PUSH1 0x0 DUP3 DUP3 MSTORE PUSH1 0x20 DUP3 ADD SWAP1 POP SWAP3 SWAP2 POP POP JUMP JUMPDEST PUSH1 0x0 PUSH2 0x1C2B DUP3 PUSH2 0x1DAA JUMP JUMPDEST SWAP2 POP PUSH2 0x1C36 DUP4 PUSH2 0x1DAA JUMP JUMPDEST SWAP3 POP DUP3 PUSH32 0xFFFFFFFFFFFFFFFFFFFFFFFFFFFFFFFFFFFFFFFFFFFFFFFFFFFFFFFFFFFFFFFF SUB DUP3 GT ISZERO PUSH2 0x1C6B JUMPI PUSH2 0x1C6A PUSH2 0x1EAF JUMP JUMPDEST JUMPDEST DUP3 DUP3 ADD SWAP1 POP SWAP3 SWAP2 POP POP JUMP JUMPDEST PUSH1 0x0 PUSH2 0x1C81 DUP3 PUSH2 0x1DB4 JUMP JUMPDEST SWAP2 POP PUSH2 0x1C8C DUP4 PUSH2 0x1DB4 JUMP JUMPDEST SWAP3 POP DUP3 PUSH1 0xFF SUB DUP3 GT ISZERO PUSH2 0x1CA2 JUMPI PUSH2 0x1CA1 PUSH2 0x1EAF JUMP JUMPDEST JUMPDEST DUP3 DUP3 ADD SWAP1 POP SWAP3 SWAP2 POP POP JUMP JUMPDEST PUSH1 0x0 PUSH2 0x1CB8 DUP3 PUSH2 0x1DAA JUMP JUMPDEST SWAP2 POP PUSH2 0x1CC3 DUP4 PUSH2 0x1DAA JUMP JUMPDEST SWAP3 POP DUP3 PUSH2 0x1CD3 JUMPI PUSH2 0x1CD2 PUSH2 0x1EDE JUMP JUMPDEST JUMPDEST DUP3 DUP3 DIV SWAP1 POP SWAP3 SWAP2 POP POP JUMP JUMPDEST PUSH1 0x0 PUSH2 0x1CE9 DUP3 PUSH2 0x1DAA JUMP JUMPDEST SWAP2 POP PUSH2 0x1CF4 DUP4 PUSH2 0x1DAA JUMP JUMPDEST SWAP3 POP DUP2 PUSH32 0xFFFFFFFFFFFFFFFFFFFFFFFFFFFFFFFFFFFFFFFFFFFFFFFFFFFFFFFFFFFFFFFF DIV DUP4 GT DUP3 ISZERO ISZERO AND ISZERO PUSH2 0x1D2D JUMPI PUSH2 0x1D2C PUSH2 0x1EAF JUMP JUMPDEST JUMPDEST DUP3 DUP3 MUL SWAP1 POP SWAP3 SWAP2 POP POP JUMP JUMPDEST PUSH1 0x0 PUSH2 0x1D43 DUP3 PUSH2 0x1DAA JUMP JUMPDEST SWAP2 POP PUSH2 0x1D4E DUP4 PUSH2 0x1DAA JUMP JUMPDEST SWAP3 POP DUP3 DUP3 LT ISZERO PUSH2 0x1D61 JUMPI PUSH2 0x1D60 PUSH2 0x1EAF JUMP JUMPDEST JUMPDEST DUP3 DUP3 SUB SWAP1 POP SWAP3 SWAP2 POP POP JUMP JUMPDEST PUSH1 0x0 PUSH2 0x1D77 DUP3 PUSH2 0x1D8A JUMP JUMPDEST SWAP1 POP SWAP2 SWAP1 POP JUMP JUMPDEST PUSH1 0x0 DUP2 ISZERO ISZERO SWAP1 POP SWAP2 SWAP1 POP JUMP JUMPDEST PUSH1 0x0 PUSH20 0xFFFFFFFFFFFFFFFFFFFFFFFFFFFFFFFFFFFFFFFF DUP3 AND SWAP1 POP SWAP2 SWAP1 POP JUMP JUMPDEST PUSH1 0x0 DUP2 SWAP1 POP SWAP2 SWAP1 POP JUMP JUMPDEST PUSH1 0x0 PUSH1 0xFF DUP3 AND SWAP1 POP SWAP2 SWAP1 POP JUMP JUMPDEST DUP3 DUP2 DUP4 CALLDATACOPY PUSH1 0x0 DUP4 DUP4 ADD MSTORE POP POP POP JUMP JUMPDEST PUSH1 0x0 JUMPDEST DUP4 DUP2 LT ISZERO PUSH2 0x1DEE JUMPI DUP1 DUP3 ADD MLOAD DUP2 DUP5 ADD MSTORE PUSH1 0x20 DUP2 ADD SWAP1 POP PUSH2 0x1DD3 JUMP JUMPDEST DUP4 DUP2 GT ISZERO PUSH2 0x1DFD JUMPI PUSH1 0x0 DUP5 DUP5 ADD MSTORE JUMPDEST POP POP POP POP JUMP JUMPDEST PUSH1 0x0 PUSH1 0x2 DUP3 DIV SWAP1 POP PUSH1 0x1 DUP3 AND DUP1 PUSH2 0x1E1B JUMPI PUSH1 0x7F DUP3 AND SWAP2 POP JUMPDEST PUSH1 0x20 DUP3 LT DUP2 EQ ISZERO PUSH2 0x1E2F JUMPI PUSH2 0x1E2E PUSH2 0x1F0D JUMP JUMPDEST JUMPDEST POP SWAP2 SWAP1 POP JUMP JUMPDEST PUSH2 0x1E3E DUP3 PUSH2 0x1FAE JUMP JUMPDEST DUP2 ADD DUP2 DUP2 LT PUSH8 0xFFFFFFFFFFFFFFFF DUP3 GT OR ISZERO PUSH2 0x1E5D JUMPI PUSH2 0x1E5C PUSH2 0x1F6B JUMP JUMPDEST JUMPDEST DUP1 PUSH1 0x40 MSTORE POP POP POP JUMP JUMPDEST PUSH1 0x0 PUSH2 0x1E71 DUP3 PUSH2 0x1DAA JUMP JUMPDEST SWAP2 POP PUSH32 0xFFFFFFFFFFFFFFFFFFFFFFFFFFFFFFFFFFFFFFFFFFFFFFFFFFFFFFFFFFFFFFFF DUP3 EQ ISZERO PUSH2 0x1EA4 JUMPI PUSH2 0x1EA3 PUSH2 0x1EAF JUMP JUMPDEST JUMPDEST PUSH1 0x1 DUP3 ADD SWAP1 POP SWAP2 SWAP1 POP JUMP JUMPDEST PUSH32 0x4E487B7100000000000000000000000000000000000000000000000000000000 PUSH1 0x0 MSTORE PUSH1 0x11 PUSH1 0x4 MSTORE PUSH1 0x24 PUSH1 0x0 REVERT JUMPDEST PUSH32 0x4E487B7100000000000000000000000000000000000000000000000000000000 PUSH1 0x0 MSTORE PUSH1 0x12 PUSH1 0x4 MSTORE PUSH1 0x24 PUSH1 0x0 REVERT JUMPDEST PUSH32 0x4E487B7100000000000000000000000000000000000000000000000000000000 PUSH1 0x0 MSTORE PUSH1 0x22 PUSH1 0x4 MSTORE PUSH1 0x24 PUSH1 0x0 REVERT JUMPDEST PUSH32 0x4E487B7100000000000000000000000000000000000000000000000000000000 PUSH1 0x0 MSTORE PUSH1 0x32 PUSH1 0x4 MSTORE PUSH1 0x24 PUSH1 0x0 REVERT JUMPDEST PUSH32 0x4E487B7100000000000000000000000000000000000000000000000000000000 PUSH1 0x0 MSTORE PUSH1 0x41 PUSH1 0x4 MSTORE PUSH1 0x24 PUSH1 0x0 REVERT JUMPDEST PUSH1 0x0 DUP1 REVERT JUMPDEST PUSH1 0x0 DUP1 REVERT JUMPDEST PUSH1 0x0 DUP1 REVERT JUMPDEST PUSH1 0x0 DUP1 REVERT JUMPDEST PUSH1 0x0 PUSH1 0x1F NOT PUSH1 0x1F DUP4 ADD AND SWAP1 POP SWAP2 SWAP1 POP JUMP JUMPDEST PUSH32 0x43616C6C6572206973206E6F74206F776E657200000000000000000000000000 PUSH1 0x0 DUP3 ADD MSTORE POP JUMP JUMPDEST PUSH32 0x416D6F756E74206F66204A445275626C6573206D757374206265206772656174 PUSH1 0x0 DUP3 ADD MSTORE PUSH32 0x6572207468616E20300000000000000000000000000000000000000000000000 PUSH1 0x20 DUP3 ADD MSTORE POP JUMP JUMPDEST PUSH2 0x2040 DUP2 PUSH2 0x1D6C JUMP JUMPDEST DUP2 EQ PUSH2 0x204B JUMPI PUSH1 0x0 DUP1 REVERT JUMPDEST POP JUMP JUMPDEST PUSH2 0x2057 DUP2 PUSH2 0x1DAA JUMP JUMPDEST DUP2 EQ PUSH2 0x2062 JUMPI PUSH1 0x0 DUP1 REVERT JUMPDEST POP JUMP INVALID MSIZE PUSH16 0x752063616E27742073656E64206D6F72 PUSH6 0x207468616E20 PUSH26 0x6F752068617665204A445275626C65732028596F757220616363 PUSH16 0x756E742077617320746F74616C6C7920 PUSH3 0x6C6F63 PUSH12 0x656420627920726561736F6E GASPRICE EXP MULMOD MSIZE PUSH16 0x752063616E27742073656E64206D6F72 PUSH6 0x207468616E20 PUSH26 0x6F75206861766520756E626C6F636B6564204A445275626C6573 KECCAK256 0x28 LOG2 PUSH5 0x6970667358 0x22 SLT KECCAK256 0xCD 0x5E 0xCE 0x2B PUSH12 0x290BC0FB0E682A49B3146EC2 MSTORE8 0xEB PUSH15 0x6D73FF9375CF85516825BB3D64736F PUSH13 0x63430008070033A26469706673 PC 0x22 SLT KECCAK256 0xEB SWAP8 0xB3 0xC5 CREATE2 0xEA DUP8 0xDA PUSH28 0x970077BBDCA26236AE5D83CA08F8D1F8C060368BBCFEEF64736F6C63 NUMBER STOP ADDMOD SMOD STOP CALLER "
		},
		"gasEstimates": {
			"creation": {
				"codeDepositCost": "2589400",
				"executionCost": "2801",
				"totalCost": "2592201"
			},
			"external": {
				"beforeAll()": "infinite",
				"checkGetAllReasons()": "infinite",
				"checkNotTransfer()": "infinite",
				"checkgetReason()": "infinite"
			}
		},
		"methodIdentifiers": {
			"beforeAll()": "7fea0d4b",
			"checkGetAllReasons()": "b70b13ff",
			"checkNotTransfer()": "6e8ccbd9",
			"checkgetReason()": "9d9dbf4c"
		}
	},
	"abi": [
		{
			"inputs": [],
			"name": "beforeAll",
			"outputs": [],
			"stateMutability": "payable",
			"type": "function"
		},
		{
			"inputs": [],
			"name": "checkGetAllReasons",
			"outputs": [],
			"stateMutability": "nonpayable",
			"type": "function"
		},
		{
			"inputs": [],
			"name": "checkNotTransfer",
			"outputs": [],
			"stateMutability": "payable",
			"type": "function"
		},
		{
			"inputs": [],
			"name": "checkgetReason",
			"outputs": [],
			"stateMutability": "nonpayable",
			"type": "function"
		}
	]
}