{
	"data": {
		"bytecode": {
			"linkReferences": {},
			"object": "60806040523480156200001157600080fd5b50336000806101000a81548173ffffffffffffffffffffffffffffffffffffffff021916908373ffffffffffffffffffffffffffffffffffffffff1602179055506200009a60006040518060400160405280600b81526020017f4e6f7420626c6f636b6564000000000000000000000000000000000000000000815250620000a060201b60201c565b62000355565b60008054906101000a900473ffffffffffffffffffffffffffffffffffffffff1673ffffffffffffffffffffffffffffffffffffffff163373ffffffffffffffffffffffffffffffffffffffff161462000131576040517f08c379a0000000000000000000000000000000000000000000000000000000008152600401620001289062000294565b60405180910390fd5b600380549050600660008481526020019081526020016000208190555060036040518060400160405280848152602001838152509080600181540180825580915050600190039060005260206000209060020201600090919091909150600082015181600001556020820151816001019080519060200190620001b6929190620001bd565b5050505050565b828054620001cb90620002c7565b90600052602060002090601f016020900481019282620001ef57600085556200023b565b82601f106200020a57805160ff19168380011785556200023b565b828001600101855582156200023b579182015b828111156200023a5782518255916020019190600101906200021d565b5b5090506200024a91906200024e565b5090565b5b80821115620002695760008160009055506001016200024f565b5090565b60006200027c601383620002b6565b915062000289826200032c565b602082019050919050565b60006020820190508181036000830152620002af816200026d565b9050919050565b600082825260208201905092915050565b60006002820490506001821680620002e057607f821691505b60208210811415620002f757620002f6620002fd565b5b50919050565b7f4e487b7100000000000000000000000000000000000000000000000000000000600052602260045260246000fd5b7f43616c6c6572206973206e6f74206f776e657200000000000000000000000000600082015250565b61229580620003656000396000f3fe608060405234801561001057600080fd5b50600436106100ea5760003560e01c80636b9939f41161008c578063a9059cbb11610066578063a9059cbb1461024a578063b7928b4f14610266578063cbcabdb214610296578063faea13a3146102b2576100ea565b80636b9939f4146101f45780638da5cb5b14610210578063a0712d681461022e576100ea565b80632cfdbf71116100c85780632cfdbf7114610157578063399a158a1461018857806339d319e5146101a65780633af2d5e7146101c2576100ea565b8063070f843f146100ef578063253c8bd41461010b57806327e235e314610127575b600080fd5b610109600480360381019061010491906119ab565b6102e2565b005b610125600480360381019061012091906118be565b6103fa565b005b610141600480360381019061013c91906118be565b610504565b60405161014e9190611bfc565b60405180910390f35b610171600480360381019061016c919061197e565b61051c565b60405161017f929190611c4e565b60405180910390f35b6101906105d8565b60405161019d9190611b7a565b60405180910390f35b6101c060048036038101906101bb91906118be565b610785565b005b6101dc60048036038101906101d791906118be565b6108ac565b6040516101eb93929190611c17565b60405180910390f35b61020e600480360381019061020991906118eb565b6108e3565b005b610218610a0a565b6040516102259190611ad6565b60405180910390f35b6102486004803603810190610243919061197e565b610a2e565b005b610264600480360381019061025f91906118eb565b610b6a565b005b610280600480360381019061027b919061197e565b611270565b60405161028d9190611b7a565b60405180910390f35b6102b060048036038101906102ab919061192b565b61133a565b005b6102cc60048036038101906102c7919061197e565b611461565b6040516102d99190611bfc565b60405180910390f35b60008054906101000a900473ffffffffffffffffffffffffffffffffffffffff1673ffffffffffffffffffffffffffffffffffffffff163373ffffffffffffffffffffffffffffffffffffffff1614610370576040517f08c379a000000000000000000000000000000000000000000000000000000000815260040161036790611b9c565b60405180910390fd5b6003805490506006600084815260200190815260200160002081905550600360405180604001604052808481526020018381525090806001815401808255809150506001900390600052602060002090600202016000909190919091506000820151816000015560208201518160010190805190602001906103f3929190611781565b5050505050565b60008054906101000a900473ffffffffffffffffffffffffffffffffffffffff1673ffffffffffffffffffffffffffffffffffffffff163373ffffffffffffffffffffffffffffffffffffffff1614610488576040517f08c379a000000000000000000000000000000000000000000000000000000000815260040161047f90611b9c565b60405180910390fd5b336000806101000a81548173ffffffffffffffffffffffffffffffffffffffff021916908373ffffffffffffffffffffffffffffffffffffffff1602179055507fb532073b38c83145e3e5135377a08bf9aab55bc0fd7c1179cd4fb995d2a5159c33826040516104f9929190611af1565b60405180910390a150565b60046020528060005260406000206000915090505481565b6003818154811061052c57600080fd5b906000526020600020906002020160009150905080600001549080600101805461055590611ed3565b80601f016020809104026020016040519081016040528092919081815260200182805461058190611ed3565b80156105ce5780601f106105a3576101008083540402835291602001916105ce565b820191906000526020600020905b8154815290600101906020018083116105b157829003601f168201915b5050505050905082565b6060600080604051806020016040528060008152509050600091505b60038054905082101561077d5761076a81610765610674610639600387815481106106225761062161200c565b5b906000526020600020906002020160000154611479565b6040518060400160405280600281526020017f3a09000000000000000000000000000000000000000000000000000000000000815250611602565b6107606003878154811061068b5761068a61200c565b5b906000526020600020906002020160010180546106a790611ed3565b80601f01602080910402602001604051908101604052809291908181526020018280546106d390611ed3565b80156107205780601f106106f557610100808354040283529160200191610720565b820191906000526020600020905b81548152906001019060200180831161070357829003601f168201915b50505050506040518060400160405280600181526020017f0a00000000000000000000000000000000000000000000000000000000000000815250611602565b611602565b611602565b90508161077690611f36565b91506105f4565b809250505090565b60008054906101000a900473ffffffffffffffffffffffffffffffffffffffff1673ffffffffffffffffffffffffffffffffffffffff163373ffffffffffffffffffffffffffffffffffffffff1614610813576040517f08c379a000000000000000000000000000000000000000000000000000000000815260040161080a90611b9c565b60405180910390fd5b6040518060600160405280600081526020016000151581526020016000815250600560008373ffffffffffffffffffffffffffffffffffffffff1673ffffffffffffffffffffffffffffffffffffffff1681526020019081526020016000206000820151816000015560208201518160010160006101000a81548160ff0219169083151502179055506040820151816002015590505050565b60056020528060005260406000206000915090508060000154908060010160009054906101000a900460ff16908060020154905083565b60008054906101000a900473ffffffffffffffffffffffffffffffffffffffff1673ffffffffffffffffffffffffffffffffffffffff163373ffffffffffffffffffffffffffffffffffffffff1614610971576040517f08c379a000000000000000000000000000000000000000000000000000000000815260040161096890611b9c565b60405180910390fd5b60405180606001604052808281526020016001151581526020016000815250600560008473ffffffffffffffffffffffffffffffffffffffff1673ffffffffffffffffffffffffffffffffffffffff1681526020019081526020016000206000820151816000015560208201518160010160006101000a81548160ff021916908315150217905550604082015181600201559050505050565b60008054906101000a900473ffffffffffffffffffffffffffffffffffffffff1681565b60008054906101000a900473ffffffffffffffffffffffffffffffffffffffff1673ffffffffffffffffffffffffffffffffffffffff163373ffffffffffffffffffffffffffffffffffffffff1614610abc576040517f08c379a0000000000000000000000000000000000000000000000000000000008152600401610ab390611b9c565b60405180910390fd5b8060016000016000828254610ad19190611cf0565b9250508190555080600460003373ffffffffffffffffffffffffffffffffffffffff1673ffffffffffffffffffffffffffffffffffffffff1681526020019081526020016000206000828254610b279190611cf0565b925050819055507f30385c845b448a36257a6a1716e6ad2e1bc2cbe333cde1e69fe849ad6511adfe3382604051610b5f929190611b51565b60405180910390a150565b60008111610bad576040517f08c379a0000000000000000000000000000000000000000000000000000000008152600401610ba490611bdc565b60405180910390fd5b600560003373ffffffffffffffffffffffffffffffffffffffff1673ffffffffffffffffffffffffffffffffffffffff16815260200190815260200160002060010160009054906101000a900460ff1615610c6a6040518060600160405280602d81526020016121fd602d9139610c65600560003373ffffffffffffffffffffffffffffffffffffffff1673ffffffffffffffffffffffffffffffffffffffff16815260200190815260200160002060000154611270565b611602565b90610cab576040517f08c379a0000000000000000000000000000000000000000000000000000000008152600401610ca29190611b7a565b60405180910390fd5b5080600560003373ffffffffffffffffffffffffffffffffffffffff1673ffffffffffffffffffffffffffffffffffffffff16815260200190815260200160002060020154600460003373ffffffffffffffffffffffffffffffffffffffff1673ffffffffffffffffffffffffffffffffffffffff16815260200190815260200160002054610d3a9190611e08565b1015610f52610e33610df860405180606001604052806036815260200161222a60369139610df3600560003373ffffffffffffffffffffffffffffffffffffffff1673ffffffffffffffffffffffffffffffffffffffff16815260200190815260200160002060020154600460003373ffffffffffffffffffffffffffffffffffffffff1673ffffffffffffffffffffffffffffffffffffffff16815260200190815260200160002054610dee9190611e08565b611479565b611602565b6040518060400160405280600281526020017f290a000000000000000000000000000000000000000000000000000000000000815250611602565b610f4d610ebf6040518060400160405280600981526020017f596f752068617665200000000000000000000000000000000000000000000000815250610eba600560003373ffffffffffffffffffffffffffffffffffffffff1673ffffffffffffffffffffffffffffffffffffffff16815260200190815260200160002060020154611479565b611602565b610f486040518060400160405280601e81526020017f20626c6f636b6564204a445275626c657320627920726561736f6e3a0a090000815250610f43600560003373ffffffffffffffffffffffffffffffffffffffff1673ffffffffffffffffffffffffffffffffffffffff16815260200190815260200160002060000154611270565b611602565b611602565b611602565b90610f93576040517f08c379a0000000000000000000000000000000000000000000000000000000008152600401610f8a9190611b7a565b60405180910390fd5b5080600460003373ffffffffffffffffffffffffffffffffffffffff1673ffffffffffffffffffffffffffffffffffffffff16815260200190815260200160002054101561107e6110436040518060600160405280602c81526020016121d1602c913961103e600460003373ffffffffffffffffffffffffffffffffffffffff1673ffffffffffffffffffffffffffffffffffffffff16815260200190815260200160002054611479565b611602565b6040518060400160405280600181526020017f2900000000000000000000000000000000000000000000000000000000000000815250611602565b906110bf576040517f08c379a00000000000000000000000000000000000000000000000000000000081526004016110b69190611b7a565b60405180910390fd5b508081600460008573ffffffffffffffffffffffffffffffffffffffff1673ffffffffffffffffffffffffffffffffffffffff1681526020019081526020016000205461110c9190611cf0565b101561114d576040517f08c379a000000000000000000000000000000000000000000000000000000000815260040161114490611bbc565b60405180910390fd5b80600460003373ffffffffffffffffffffffffffffffffffffffff1673ffffffffffffffffffffffffffffffffffffffff168152602001908152602001600020546111989190611e08565b600460003373ffffffffffffffffffffffffffffffffffffffff1673ffffffffffffffffffffffffffffffffffffffff1681526020019081526020016000208190555080600460008473ffffffffffffffffffffffffffffffffffffffff1673ffffffffffffffffffffffffffffffffffffffff168152602001908152602001600020600082825461122a9190611cf0565b925050819055507f8930ac7bcb101f94c05b13845098ae74383bfb9e348e73061b730040945cbb8233838360405161126493929190611b1a565b60405180910390a15050565b606060036006600084815260200190815260200160002054815481106112995761129861200c565b5b906000526020600020906002020160010180546112b590611ed3565b80601f01602080910402602001604051908101604052809291908181526020018280546112e190611ed3565b801561132e5780601f106113035761010080835404028352916020019161132e565b820191906000526020600020905b81548152906001019060200180831161131157829003601f168201915b50505050509050919050565b60008054906101000a900473ffffffffffffffffffffffffffffffffffffffff1673ffffffffffffffffffffffffffffffffffffffff163373ffffffffffffffffffffffffffffffffffffffff16146113c8576040517f08c379a00000000000000000000000000000000000000000000000000000000081526004016113bf90611b9c565b60405180910390fd5b604051806060016040528083815260200160001515815260200182815250600560008573ffffffffffffffffffffffffffffffffffffffff1673ffffffffffffffffffffffffffffffffffffffff1681526020019081526020016000206000820151816000015560208201518160010160006101000a81548160ff02191690831515021790555060408201518160020155905050505050565b60066020528060005260406000206000915090505481565b606060008214156114c1576040518060400160405280600181526020017f300000000000000000000000000000000000000000000000000000000000000081525090506115fd565b600082905060005b600082146114f35780806114dc90611f36565b915050600a826114ec9190611d7d565b91506114c9565b60008167ffffffffffffffff81111561150f5761150e61203b565b5b6040519080825280601f01601f1916602001820160405280156115415781602001600182028036833780820191505090505b50905060008290505b600086146115f55760018161155f9190611e08565b90506000600a80886115719190611d7d565b61157b9190611dae565b876115869190611e08565b60306115929190611d46565b905060008160f81b9050808484815181106115b0576115af61200c565b5b60200101907effffffffffffffffffffffffffffffffffffffffffffffffffffffffffffff1916908160001a905350600a886115ec9190611d7d565b9750505061154a565b819450505050505b919050565b60606000825184516116149190611cf0565b67ffffffffffffffff81111561162d5761162c61203b565b5b6040519080825280601f01601f19166020018201604052801561165f5781602001600182028036833780820191505090505b50905060005b84518110156116e1578481815181106116815761168061200c565b5b602001015160f81c60f81b82828151811061169f5761169e61200c565b5b60200101907effffffffffffffffffffffffffffffffffffffffffffffffffffffffffffff1916908160001a90535080806116d990611f36565b915050611665565b5b83518551826116f19190611e08565b101561177657838551826117059190611e08565b815181106117165761171561200c565b5b602001015160f81c60f81b8282815181106117345761173361200c565b5b60200101907effffffffffffffffffffffffffffffffffffffffffffffffffffffffffffff1916908160001a905350808061176e90611f36565b9150506116e2565b819250505092915050565b82805461178d90611ed3565b90600052602060002090601f0160209004810192826117af57600085556117f6565b82601f106117c857805160ff19168380011785556117f6565b828001600101855582156117f6579182015b828111156117f55782518255916020019190600101906117da565b5b5090506118039190611807565b5090565b5b80821115611820576000816000905550600101611808565b5090565b600061183761183284611ca3565b611c7e565b9050828152602081018484840111156118535761185261206f565b5b61185e848285611e91565b509392505050565b600081359050611875816121a2565b92915050565b600082601f8301126118905761188f61206a565b5b81356118a0848260208601611824565b91505092915050565b6000813590506118b8816121b9565b92915050565b6000602082840312156118d4576118d3612079565b5b60006118e284828501611866565b91505092915050565b6000806040838503121561190257611901612079565b5b600061191085828601611866565b9250506020611921858286016118a9565b9150509250929050565b60008060006060848603121561194457611943612079565b5b600061195286828701611866565b9350506020611963868287016118a9565b9250506040611974868287016118a9565b9150509250925092565b60006020828403121561199457611993612079565b5b60006119a2848285016118a9565b91505092915050565b600080604083850312156119c2576119c1612079565b5b60006119d0858286016118a9565b925050602083013567ffffffffffffffff8111156119f1576119f0612074565b5b6119fd8582860161187b565b9150509250929050565b611a1081611e3c565b82525050565b611a1f81611e4e565b82525050565b6000611a3082611cd4565b611a3a8185611cdf565b9350611a4a818560208601611ea0565b611a538161207e565b840191505092915050565b6000611a6b601383611cdf565b9150611a768261208f565b602082019050919050565b6000611a8e606483611cdf565b9150611a99826120b8565b608082019050919050565b6000611ab1602983611cdf565b9150611abc82612153565b604082019050919050565b611ad081611e7a565b82525050565b6000602082019050611aeb6000830184611a07565b92915050565b6000604082019050611b066000830185611a07565b611b136020830184611a07565b9392505050565b6000606082019050611b2f6000830186611a07565b611b3c6020830185611a07565b611b496040830184611ac7565b949350505050565b6000604082019050611b666000830185611a07565b611b736020830184611ac7565b9392505050565b60006020820190508181036000830152611b948184611a25565b905092915050565b60006020820190508181036000830152611bb581611a5e565b9050919050565b60006020820190508181036000830152611bd581611a81565b9050919050565b60006020820190508181036000830152611bf581611aa4565b9050919050565b6000602082019050611c116000830184611ac7565b92915050565b6000606082019050611c2c6000830186611ac7565b611c396020830185611a16565b611c466040830184611ac7565b949350505050565b6000604082019050611c636000830185611ac7565b8181036020830152611c758184611a25565b90509392505050565b6000611c88611c99565b9050611c948282611f05565b919050565b6000604051905090565b600067ffffffffffffffff821115611cbe57611cbd61203b565b5b611cc78261207e565b9050602081019050919050565b600081519050919050565b600082825260208201905092915050565b6000611cfb82611e7a565b9150611d0683611e7a565b9250827fffffffffffffffffffffffffffffffffffffffffffffffffffffffffffffffff03821115611d3b57611d3a611f7f565b5b828201905092915050565b6000611d5182611e84565b9150611d5c83611e84565b92508260ff03821115611d7257611d71611f7f565b5b828201905092915050565b6000611d8882611e7a565b9150611d9383611e7a565b925082611da357611da2611fae565b5b828204905092915050565b6000611db982611e7a565b9150611dc483611e7a565b9250817fffffffffffffffffffffffffffffffffffffffffffffffffffffffffffffffff0483118215151615611dfd57611dfc611f7f565b5b828202905092915050565b6000611e1382611e7a565b9150611e1e83611e7a565b925082821015611e3157611e30611f7f565b5b828203905092915050565b6000611e4782611e5a565b9050919050565b60008115159050919050565b600073ffffffffffffffffffffffffffffffffffffffff82169050919050565b6000819050919050565b600060ff82169050919050565b82818337600083830152505050565b60005b83811015611ebe578082015181840152602081019050611ea3565b83811115611ecd576000848401525b50505050565b60006002820490506001821680611eeb57607f821691505b60208210811415611eff57611efe611fdd565b5b50919050565b611f0e8261207e565b810181811067ffffffffffffffff82111715611f2d57611f2c61203b565b5b80604052505050565b6000611f4182611e7a565b91507fffffffffffffffffffffffffffffffffffffffffffffffffffffffffffffffff821415611f7457611f73611f7f565b5b600182019050919050565b7f4e487b7100000000000000000000000000000000000000000000000000000000600052601160045260246000fd5b7f4e487b7100000000000000000000000000000000000000000000000000000000600052601260045260246000fd5b7f4e487b7100000000000000000000000000000000000000000000000000000000600052602260045260246000fd5b7f4e487b7100000000000000000000000000000000000000000000000000000000600052603260045260246000fd5b7f4e487b7100000000000000000000000000000000000000000000000000000000600052604160045260246000fd5b600080fd5b600080fd5b600080fd5b600080fd5b6000601f19601f8301169050919050565b7f43616c6c6572206973206e6f74206f776e657200000000000000000000000000600082015250565b7f596f752063616e742073656e64207468697320616d6f756e74206f66206d6f6e60008201527f65792c2062656361757365207468656e2072656365697665722077696c6c206860208201527f617665206d6f7265207468616e206d617820616d6f756e74206f66204a44527560408201527f626c657300000000000000000000000000000000000000000000000000000000606082015250565b7f416d6f756e74206f66204a445275626c6573206d75737420626520677265617460008201527f6572207468616e20300000000000000000000000000000000000000000000000602082015250565b6121ab81611e3c565b81146121b657600080fd5b50565b6121c281611e7a565b81146121cd57600080fd5b5056fe596f752063616e27742073656e64206d6f7265207468616e20796f752068617665204a445275626c65732028596f7572206163636f756e742077617320746f74616c6c7920626c6f636b656420627920726561736f6e3a0a09596f752063616e27742073656e64206d6f7265207468616e20796f75206861766520756e626c6f636b6564204a445275626c65732028a2646970667358221220f189e6276dd419511f91b7b84700839b5fa247119cfa0d9f21d0b694c4545c9f64736f6c63430008070033",
			"opcodes": "PUSH1 0x80 PUSH1 0x40 MSTORE CALLVALUE DUP1 ISZERO PUSH3 0x11 JUMPI PUSH1 0x0 DUP1 REVERT JUMPDEST POP CALLER PUSH1 0x0 DUP1 PUSH2 0x100 EXP DUP2 SLOAD DUP2 PUSH20 0xFFFFFFFFFFFFFFFFFFFFFFFFFFFFFFFFFFFFFFFF MUL NOT AND SWAP1 DUP4 PUSH20 0xFFFFFFFFFFFFFFFFFFFFFFFFFFFFFFFFFFFFFFFF AND MUL OR SWAP1 SSTORE POP PUSH3 0x9A PUSH1 0x0 PUSH1 0x40 MLOAD DUP1 PUSH1 0x40 ADD PUSH1 0x40 MSTORE DUP1 PUSH1 0xB DUP2 MSTORE PUSH1 0x20 ADD PUSH32 0x4E6F7420626C6F636B6564000000000000000000000000000000000000000000 DUP2 MSTORE POP PUSH3 0xA0 PUSH1 0x20 SHL PUSH1 0x20 SHR JUMP JUMPDEST PUSH3 0x355 JUMP JUMPDEST PUSH1 0x0 DUP1 SLOAD SWAP1 PUSH2 0x100 EXP SWAP1 DIV PUSH20 0xFFFFFFFFFFFFFFFFFFFFFFFFFFFFFFFFFFFFFFFF AND PUSH20 0xFFFFFFFFFFFFFFFFFFFFFFFFFFFFFFFFFFFFFFFF AND CALLER PUSH20 0xFFFFFFFFFFFFFFFFFFFFFFFFFFFFFFFFFFFFFFFF AND EQ PUSH3 0x131 JUMPI PUSH1 0x40 MLOAD PUSH32 0x8C379A000000000000000000000000000000000000000000000000000000000 DUP2 MSTORE PUSH1 0x4 ADD PUSH3 0x128 SWAP1 PUSH3 0x294 JUMP JUMPDEST PUSH1 0x40 MLOAD DUP1 SWAP2 SUB SWAP1 REVERT JUMPDEST PUSH1 0x3 DUP1 SLOAD SWAP1 POP PUSH1 0x6 PUSH1 0x0 DUP5 DUP2 MSTORE PUSH1 0x20 ADD SWAP1 DUP2 MSTORE PUSH1 0x20 ADD PUSH1 0x0 KECCAK256 DUP2 SWAP1 SSTORE POP PUSH1 0x3 PUSH1 0x40 MLOAD DUP1 PUSH1 0x40 ADD PUSH1 0x40 MSTORE DUP1 DUP5 DUP2 MSTORE PUSH1 0x20 ADD DUP4 DUP2 MSTORE POP SWAP1 DUP1 PUSH1 0x1 DUP2 SLOAD ADD DUP1 DUP3 SSTORE DUP1 SWAP2 POP POP PUSH1 0x1 SWAP1 SUB SWAP1 PUSH1 0x0 MSTORE PUSH1 0x20 PUSH1 0x0 KECCAK256 SWAP1 PUSH1 0x2 MUL ADD PUSH1 0x0 SWAP1 SWAP2 SWAP1 SWAP2 SWAP1 SWAP2 POP PUSH1 0x0 DUP3 ADD MLOAD DUP2 PUSH1 0x0 ADD SSTORE PUSH1 0x20 DUP3 ADD MLOAD DUP2 PUSH1 0x1 ADD SWAP1 DUP1 MLOAD SWAP1 PUSH1 0x20 ADD SWAP1 PUSH3 0x1B6 SWAP3 SWAP2 SWAP1 PUSH3 0x1BD JUMP JUMPDEST POP POP POP POP POP JUMP JUMPDEST DUP3 DUP1 SLOAD PUSH3 0x1CB SWAP1 PUSH3 0x2C7 JUMP JUMPDEST SWAP1 PUSH1 0x0 MSTORE PUSH1 0x20 PUSH1 0x0 KECCAK256 SWAP1 PUSH1 0x1F ADD PUSH1 0x20 SWAP1 DIV DUP2 ADD SWAP3 DUP3 PUSH3 0x1EF JUMPI PUSH1 0x0 DUP6 SSTORE PUSH3 0x23B JUMP JUMPDEST DUP3 PUSH1 0x1F LT PUSH3 0x20A JUMPI DUP1 MLOAD PUSH1 0xFF NOT AND DUP4 DUP1 ADD OR DUP6 SSTORE PUSH3 0x23B JUMP JUMPDEST DUP3 DUP1 ADD PUSH1 0x1 ADD DUP6 SSTORE DUP3 ISZERO PUSH3 0x23B JUMPI SWAP2 DUP3 ADD JUMPDEST DUP3 DUP2 GT ISZERO PUSH3 0x23A JUMPI DUP3 MLOAD DUP3 SSTORE SWAP2 PUSH1 0x20 ADD SWAP2 SWAP1 PUSH1 0x1 ADD SWAP1 PUSH3 0x21D JUMP JUMPDEST JUMPDEST POP SWAP1 POP PUSH3 0x24A SWAP2 SWAP1 PUSH3 0x24E JUMP JUMPDEST POP SWAP1 JUMP JUMPDEST JUMPDEST DUP1 DUP3 GT ISZERO PUSH3 0x269 JUMPI PUSH1 0x0 DUP2 PUSH1 0x0 SWAP1 SSTORE POP PUSH1 0x1 ADD PUSH3 0x24F JUMP JUMPDEST POP SWAP1 JUMP JUMPDEST PUSH1 0x0 PUSH3 0x27C PUSH1 0x13 DUP4 PUSH3 0x2B6 JUMP JUMPDEST SWAP2 POP PUSH3 0x289 DUP3 PUSH3 0x32C JUMP JUMPDEST PUSH1 0x20 DUP3 ADD SWAP1 POP SWAP2 SWAP1 POP JUMP JUMPDEST PUSH1 0x0 PUSH1 0x20 DUP3 ADD SWAP1 POP DUP2 DUP2 SUB PUSH1 0x0 DUP4 ADD MSTORE PUSH3 0x2AF DUP2 PUSH3 0x26D JUMP JUMPDEST SWAP1 POP SWAP2 SWAP1 POP JUMP JUMPDEST PUSH1 0x0 DUP3 DUP3 MSTORE PUSH1 0x20 DUP3 ADD SWAP1 POP SWAP3 SWAP2 POP POP JUMP JUMPDEST PUSH1 0x0 PUSH1 0x2 DUP3 DIV SWAP1 POP PUSH1 0x1 DUP3 AND DUP1 PUSH3 0x2E0 JUMPI PUSH1 0x7F DUP3 AND SWAP2 POP JUMPDEST PUSH1 0x20 DUP3 LT DUP2 EQ ISZERO PUSH3 0x2F7 JUMPI PUSH3 0x2F6 PUSH3 0x2FD JUMP JUMPDEST JUMPDEST POP SWAP2 SWAP1 POP JUMP JUMPDEST PUSH32 0x4E487B7100000000000000000000000000000000000000000000000000000000 PUSH1 0x0 MSTORE PUSH1 0x22 PUSH1 0x4 MSTORE PUSH1 0x24 PUSH1 0x0 REVERT JUMPDEST PUSH32 0x43616C6C6572206973206E6F74206F776E657200000000000000000000000000 PUSH1 0x0 DUP3 ADD MSTORE POP JUMP JUMPDEST PUSH2 0x2295 DUP1 PUSH3 0x365 PUSH1 0x0 CODECOPY PUSH1 0x0 RETURN INVALID PUSH1 0x80 PUSH1 0x40 MSTORE CALLVALUE DUP1 ISZERO PUSH2 0x10 JUMPI PUSH1 0x0 DUP1 REVERT JUMPDEST POP PUSH1 0x4 CALLDATASIZE LT PUSH2 0xEA JUMPI PUSH1 0x0 CALLDATALOAD PUSH1 0xE0 SHR DUP1 PUSH4 0x6B9939F4 GT PUSH2 0x8C JUMPI DUP1 PUSH4 0xA9059CBB GT PUSH2 0x66 JUMPI DUP1 PUSH4 0xA9059CBB EQ PUSH2 0x24A JUMPI DUP1 PUSH4 0xB7928B4F EQ PUSH2 0x266 JUMPI DUP1 PUSH4 0xCBCABDB2 EQ PUSH2 0x296 JUMPI DUP1 PUSH4 0xFAEA13A3 EQ PUSH2 0x2B2 JUMPI PUSH2 0xEA JUMP JUMPDEST DUP1 PUSH4 0x6B9939F4 EQ PUSH2 0x1F4 JUMPI DUP1 PUSH4 0x8DA5CB5B EQ PUSH2 0x210 JUMPI DUP1 PUSH4 0xA0712D68 EQ PUSH2 0x22E JUMPI PUSH2 0xEA JUMP JUMPDEST DUP1 PUSH4 0x2CFDBF71 GT PUSH2 0xC8 JUMPI DUP1 PUSH4 0x2CFDBF71 EQ PUSH2 0x157 JUMPI DUP1 PUSH4 0x399A158A EQ PUSH2 0x188 JUMPI DUP1 PUSH4 0x39D319E5 EQ PUSH2 0x1A6 JUMPI DUP1 PUSH4 0x3AF2D5E7 EQ PUSH2 0x1C2 JUMPI PUSH2 0xEA JUMP JUMPDEST DUP1 PUSH4 0x70F843F EQ PUSH2 0xEF JUMPI DUP1 PUSH4 0x253C8BD4 EQ PUSH2 0x10B JUMPI DUP1 PUSH4 0x27E235E3 EQ PUSH2 0x127 JUMPI JUMPDEST PUSH1 0x0 DUP1 REVERT JUMPDEST PUSH2 0x109 PUSH1 0x4 DUP1 CALLDATASIZE SUB DUP2 ADD SWAP1 PUSH2 0x104 SWAP2 SWAP1 PUSH2 0x19AB JUMP JUMPDEST PUSH2 0x2E2 JUMP JUMPDEST STOP JUMPDEST PUSH2 0x125 PUSH1 0x4 DUP1 CALLDATASIZE SUB DUP2 ADD SWAP1 PUSH2 0x120 SWAP2 SWAP1 PUSH2 0x18BE JUMP JUMPDEST PUSH2 0x3FA JUMP JUMPDEST STOP JUMPDEST PUSH2 0x141 PUSH1 0x4 DUP1 CALLDATASIZE SUB DUP2 ADD SWAP1 PUSH2 0x13C SWAP2 SWAP1 PUSH2 0x18BE JUMP JUMPDEST PUSH2 0x504 JUMP JUMPDEST PUSH1 0x40 MLOAD PUSH2 0x14E SWAP2 SWAP1 PUSH2 0x1BFC JUMP JUMPDEST PUSH1 0x40 MLOAD DUP1 SWAP2 SUB SWAP1 RETURN JUMPDEST PUSH2 0x171 PUSH1 0x4 DUP1 CALLDATASIZE SUB DUP2 ADD SWAP1 PUSH2 0x16C SWAP2 SWAP1 PUSH2 0x197E JUMP JUMPDEST PUSH2 0x51C JUMP JUMPDEST PUSH1 0x40 MLOAD PUSH2 0x17F SWAP3 SWAP2 SWAP1 PUSH2 0x1C4E JUMP JUMPDEST PUSH1 0x40 MLOAD DUP1 SWAP2 SUB SWAP1 RETURN JUMPDEST PUSH2 0x190 PUSH2 0x5D8 JUMP JUMPDEST PUSH1 0x40 MLOAD PUSH2 0x19D SWAP2 SWAP1 PUSH2 0x1B7A JUMP JUMPDEST PUSH1 0x40 MLOAD DUP1 SWAP2 SUB SWAP1 RETURN JUMPDEST PUSH2 0x1C0 PUSH1 0x4 DUP1 CALLDATASIZE SUB DUP2 ADD SWAP1 PUSH2 0x1BB SWAP2 SWAP1 PUSH2 0x18BE JUMP JUMPDEST PUSH2 0x785 JUMP JUMPDEST STOP JUMPDEST PUSH2 0x1DC PUSH1 0x4 DUP1 CALLDATASIZE SUB DUP2 ADD SWAP1 PUSH2 0x1D7 SWAP2 SWAP1 PUSH2 0x18BE JUMP JUMPDEST PUSH2 0x8AC JUMP JUMPDEST PUSH1 0x40 MLOAD PUSH2 0x1EB SWAP4 SWAP3 SWAP2 SWAP1 PUSH2 0x1C17 JUMP JUMPDEST PUSH1 0x40 MLOAD DUP1 SWAP2 SUB SWAP1 RETURN JUMPDEST PUSH2 0x20E PUSH1 0x4 DUP1 CALLDATASIZE SUB DUP2 ADD SWAP1 PUSH2 0x209 SWAP2 SWAP1 PUSH2 0x18EB JUMP JUMPDEST PUSH2 0x8E3 JUMP JUMPDEST STOP JUMPDEST PUSH2 0x218 PUSH2 0xA0A JUMP JUMPDEST PUSH1 0x40 MLOAD PUSH2 0x225 SWAP2 SWAP1 PUSH2 0x1AD6 JUMP JUMPDEST PUSH1 0x40 MLOAD DUP1 SWAP2 SUB SWAP1 RETURN JUMPDEST PUSH2 0x248 PUSH1 0x4 DUP1 CALLDATASIZE SUB DUP2 ADD SWAP1 PUSH2 0x243 SWAP2 SWAP1 PUSH2 0x197E JUMP JUMPDEST PUSH2 0xA2E JUMP JUMPDEST STOP JUMPDEST PUSH2 0x264 PUSH1 0x4 DUP1 CALLDATASIZE SUB DUP2 ADD SWAP1 PUSH2 0x25F SWAP2 SWAP1 PUSH2 0x18EB JUMP JUMPDEST PUSH2 0xB6A JUMP JUMPDEST STOP JUMPDEST PUSH2 0x280 PUSH1 0x4 DUP1 CALLDATASIZE SUB DUP2 ADD SWAP1 PUSH2 0x27B SWAP2 SWAP1 PUSH2 0x197E JUMP JUMPDEST PUSH2 0x1270 JUMP JUMPDEST PUSH1 0x40 MLOAD PUSH2 0x28D SWAP2 SWAP1 PUSH2 0x1B7A JUMP JUMPDEST PUSH1 0x40 MLOAD DUP1 SWAP2 SUB SWAP1 RETURN JUMPDEST PUSH2 0x2B0 PUSH1 0x4 DUP1 CALLDATASIZE SUB DUP2 ADD SWAP1 PUSH2 0x2AB SWAP2 SWAP1 PUSH2 0x192B JUMP JUMPDEST PUSH2 0x133A JUMP JUMPDEST STOP JUMPDEST PUSH2 0x2CC PUSH1 0x4 DUP1 CALLDATASIZE SUB DUP2 ADD SWAP1 PUSH2 0x2C7 SWAP2 SWAP1 PUSH2 0x197E JUMP JUMPDEST PUSH2 0x1461 JUMP JUMPDEST PUSH1 0x40 MLOAD PUSH2 0x2D9 SWAP2 SWAP1 PUSH2 0x1BFC JUMP JUMPDEST PUSH1 0x40 MLOAD DUP1 SWAP2 SUB SWAP1 RETURN JUMPDEST PUSH1 0x0 DUP1 SLOAD SWAP1 PUSH2 0x100 EXP SWAP1 DIV PUSH20 0xFFFFFFFFFFFFFFFFFFFFFFFFFFFFFFFFFFFFFFFF AND PUSH20 0xFFFFFFFFFFFFFFFFFFFFFFFFFFFFFFFFFFFFFFFF AND CALLER PUSH20 0xFFFFFFFFFFFFFFFFFFFFFFFFFFFFFFFFFFFFFFFF AND EQ PUSH2 0x370 JUMPI PUSH1 0x40 MLOAD PUSH32 0x8C379A000000000000000000000000000000000000000000000000000000000 DUP2 MSTORE PUSH1 0x4 ADD PUSH2 0x367 SWAP1 PUSH2 0x1B9C JUMP JUMPDEST PUSH1 0x40 MLOAD DUP1 SWAP2 SUB SWAP1 REVERT JUMPDEST PUSH1 0x3 DUP1 SLOAD SWAP1 POP PUSH1 0x6 PUSH1 0x0 DUP5 DUP2 MSTORE PUSH1 0x20 ADD SWAP1 DUP2 MSTORE PUSH1 0x20 ADD PUSH1 0x0 KECCAK256 DUP2 SWAP1 SSTORE POP PUSH1 0x3 PUSH1 0x40 MLOAD DUP1 PUSH1 0x40 ADD PUSH1 0x40 MSTORE DUP1 DUP5 DUP2 MSTORE PUSH1 0x20 ADD DUP4 DUP2 MSTORE POP SWAP1 DUP1 PUSH1 0x1 DUP2 SLOAD ADD DUP1 DUP3 SSTORE DUP1 SWAP2 POP POP PUSH1 0x1 SWAP1 SUB SWAP1 PUSH1 0x0 MSTORE PUSH1 0x20 PUSH1 0x0 KECCAK256 SWAP1 PUSH1 0x2 MUL ADD PUSH1 0x0 SWAP1 SWAP2 SWAP1 SWAP2 SWAP1 SWAP2 POP PUSH1 0x0 DUP3 ADD MLOAD DUP2 PUSH1 0x0 ADD SSTORE PUSH1 0x20 DUP3 ADD MLOAD DUP2 PUSH1 0x1 ADD SWAP1 DUP1 MLOAD SWAP1 PUSH1 0x20 ADD SWAP1 PUSH2 0x3F3 SWAP3 SWAP2 SWAP1 PUSH2 0x1781 JUMP JUMPDEST POP POP POP POP POP JUMP JUMPDEST PUSH1 0x0 DUP1 SLOAD SWAP1 PUSH2 0x100 EXP SWAP1 DIV PUSH20 0xFFFFFFFFFFFFFFFFFFFFFFFFFFFFFFFFFFFFFFFF AND PUSH20 0xFFFFFFFFFFFFFFFFFFFFFFFFFFFFFFFFFFFFFFFF AND CALLER PUSH20 0xFFFFFFFFFFFFFFFFFFFFFFFFFFFFFFFFFFFFFFFF AND EQ PUSH2 0x488 JUMPI PUSH1 0x40 MLOAD PUSH32 0x8C379A000000000000000000000000000000000000000000000000000000000 DUP2 MSTORE PUSH1 0x4 ADD PUSH2 0x47F SWAP1 PUSH2 0x1B9C JUMP JUMPDEST PUSH1 0x40 MLOAD DUP1 SWAP2 SUB SWAP1 REVERT JUMPDEST CALLER PUSH1 0x0 DUP1 PUSH2 0x100 EXP DUP2 SLOAD DUP2 PUSH20 0xFFFFFFFFFFFFFFFFFFFFFFFFFFFFFFFFFFFFFFFF MUL NOT AND SWAP1 DUP4 PUSH20 0xFFFFFFFFFFFFFFFFFFFFFFFFFFFFFFFFFFFFFFFF AND MUL OR SWAP1 SSTORE POP PUSH32 0xB532073B38C83145E3E5135377A08BF9AAB55BC0FD7C1179CD4FB995D2A5159C CALLER DUP3 PUSH1 0x40 MLOAD PUSH2 0x4F9 SWAP3 SWAP2 SWAP1 PUSH2 0x1AF1 JUMP JUMPDEST PUSH1 0x40 MLOAD DUP1 SWAP2 SUB SWAP1 LOG1 POP JUMP JUMPDEST PUSH1 0x4 PUSH1 0x20 MSTORE DUP1 PUSH1 0x0 MSTORE PUSH1 0x40 PUSH1 0x0 KECCAK256 PUSH1 0x0 SWAP2 POP SWAP1 POP SLOAD DUP2 JUMP JUMPDEST PUSH1 0x3 DUP2 DUP2 SLOAD DUP2 LT PUSH2 0x52C JUMPI PUSH1 0x0 DUP1 REVERT JUMPDEST SWAP1 PUSH1 0x0 MSTORE PUSH1 0x20 PUSH1 0x0 KECCAK256 SWAP1 PUSH1 0x2 MUL ADD PUSH1 0x0 SWAP2 POP SWAP1 POP DUP1 PUSH1 0x0 ADD SLOAD SWAP1 DUP1 PUSH1 0x1 ADD DUP1 SLOAD PUSH2 0x555 SWAP1 PUSH2 0x1ED3 JUMP JUMPDEST DUP1 PUSH1 0x1F ADD PUSH1 0x20 DUP1 SWAP2 DIV MUL PUSH1 0x20 ADD PUSH1 0x40 MLOAD SWAP1 DUP2 ADD PUSH1 0x40 MSTORE DUP1 SWAP3 SWAP2 SWAP1 DUP2 DUP2 MSTORE PUSH1 0x20 ADD DUP3 DUP1 SLOAD PUSH2 0x581 SWAP1 PUSH2 0x1ED3 JUMP JUMPDEST DUP1 ISZERO PUSH2 0x5CE JUMPI DUP1 PUSH1 0x1F LT PUSH2 0x5A3 JUMPI PUSH2 0x100 DUP1 DUP4 SLOAD DIV MUL DUP4 MSTORE SWAP2 PUSH1 0x20 ADD SWAP2 PUSH2 0x5CE JUMP JUMPDEST DUP3 ADD SWAP2 SWAP1 PUSH1 0x0 MSTORE PUSH1 0x20 PUSH1 0x0 KECCAK256 SWAP1 JUMPDEST DUP2 SLOAD DUP2 MSTORE SWAP1 PUSH1 0x1 ADD SWAP1 PUSH1 0x20 ADD DUP1 DUP4 GT PUSH2 0x5B1 JUMPI DUP3 SWAP1 SUB PUSH1 0x1F AND DUP3 ADD SWAP2 JUMPDEST POP POP POP POP POP SWAP1 POP DUP3 JUMP JUMPDEST PUSH1 0x60 PUSH1 0x0 DUP1 PUSH1 0x40 MLOAD DUP1 PUSH1 0x20 ADD PUSH1 0x40 MSTORE DUP1 PUSH1 0x0 DUP2 MSTORE POP SWAP1 POP PUSH1 0x0 SWAP2 POP JUMPDEST PUSH1 0x3 DUP1 SLOAD SWAP1 POP DUP3 LT ISZERO PUSH2 0x77D JUMPI PUSH2 0x76A DUP2 PUSH2 0x765 PUSH2 0x674 PUSH2 0x639 PUSH1 0x3 DUP8 DUP2 SLOAD DUP2 LT PUSH2 0x622 JUMPI PUSH2 0x621 PUSH2 0x200C JUMP JUMPDEST JUMPDEST SWAP1 PUSH1 0x0 MSTORE PUSH1 0x20 PUSH1 0x0 KECCAK256 SWAP1 PUSH1 0x2 MUL ADD PUSH1 0x0 ADD SLOAD PUSH2 0x1479 JUMP JUMPDEST PUSH1 0x40 MLOAD DUP1 PUSH1 0x40 ADD PUSH1 0x40 MSTORE DUP1 PUSH1 0x2 DUP2 MSTORE PUSH1 0x20 ADD PUSH32 0x3A09000000000000000000000000000000000000000000000000000000000000 DUP2 MSTORE POP PUSH2 0x1602 JUMP JUMPDEST PUSH2 0x760 PUSH1 0x3 DUP8 DUP2 SLOAD DUP2 LT PUSH2 0x68B JUMPI PUSH2 0x68A PUSH2 0x200C JUMP JUMPDEST JUMPDEST SWAP1 PUSH1 0x0 MSTORE PUSH1 0x20 PUSH1 0x0 KECCAK256 SWAP1 PUSH1 0x2 MUL ADD PUSH1 0x1 ADD DUP1 SLOAD PUSH2 0x6A7 SWAP1 PUSH2 0x1ED3 JUMP JUMPDEST DUP1 PUSH1 0x1F ADD PUSH1 0x20 DUP1 SWAP2 DIV MUL PUSH1 0x20 ADD PUSH1 0x40 MLOAD SWAP1 DUP2 ADD PUSH1 0x40 MSTORE DUP1 SWAP3 SWAP2 SWAP1 DUP2 DUP2 MSTORE PUSH1 0x20 ADD DUP3 DUP1 SLOAD PUSH2 0x6D3 SWAP1 PUSH2 0x1ED3 JUMP JUMPDEST DUP1 ISZERO PUSH2 0x720 JUMPI DUP1 PUSH1 0x1F LT PUSH2 0x6F5 JUMPI PUSH2 0x100 DUP1 DUP4 SLOAD DIV MUL DUP4 MSTORE SWAP2 PUSH1 0x20 ADD SWAP2 PUSH2 0x720 JUMP JUMPDEST DUP3 ADD SWAP2 SWAP1 PUSH1 0x0 MSTORE PUSH1 0x20 PUSH1 0x0 KECCAK256 SWAP1 JUMPDEST DUP2 SLOAD DUP2 MSTORE SWAP1 PUSH1 0x1 ADD SWAP1 PUSH1 0x20 ADD DUP1 DUP4 GT PUSH2 0x703 JUMPI DUP3 SWAP1 SUB PUSH1 0x1F AND DUP3 ADD SWAP2 JUMPDEST POP POP POP POP POP PUSH1 0x40 MLOAD DUP1 PUSH1 0x40 ADD PUSH1 0x40 MSTORE DUP1 PUSH1 0x1 DUP2 MSTORE PUSH1 0x20 ADD PUSH32 0xA00000000000000000000000000000000000000000000000000000000000000 DUP2 MSTORE POP PUSH2 0x1602 JUMP JUMPDEST PUSH2 0x1602 JUMP JUMPDEST PUSH2 0x1602 JUMP JUMPDEST SWAP1 POP DUP2 PUSH2 0x776 SWAP1 PUSH2 0x1F36 JUMP JUMPDEST SWAP2 POP PUSH2 0x5F4 JUMP JUMPDEST DUP1 SWAP3 POP POP POP SWAP1 JUMP JUMPDEST PUSH1 0x0 DUP1 SLOAD SWAP1 PUSH2 0x100 EXP SWAP1 DIV PUSH20 0xFFFFFFFFFFFFFFFFFFFFFFFFFFFFFFFFFFFFFFFF AND PUSH20 0xFFFFFFFFFFFFFFFFFFFFFFFFFFFFFFFFFFFFFFFF AND CALLER PUSH20 0xFFFFFFFFFFFFFFFFFFFFFFFFFFFFFFFFFFFFFFFF AND EQ PUSH2 0x813 JUMPI PUSH1 0x40 MLOAD PUSH32 0x8C379A000000000000000000000000000000000000000000000000000000000 DUP2 MSTORE PUSH1 0x4 ADD PUSH2 0x80A SWAP1 PUSH2 0x1B9C JUMP JUMPDEST PUSH1 0x40 MLOAD DUP1 SWAP2 SUB SWAP1 REVERT JUMPDEST PUSH1 0x40 MLOAD DUP1 PUSH1 0x60 ADD PUSH1 0x40 MSTORE DUP1 PUSH1 0x0 DUP2 MSTORE PUSH1 0x20 ADD PUSH1 0x0 ISZERO ISZERO DUP2 MSTORE PUSH1 0x20 ADD PUSH1 0x0 DUP2 MSTORE POP PUSH1 0x5 PUSH1 0x0 DUP4 PUSH20 0xFFFFFFFFFFFFFFFFFFFFFFFFFFFFFFFFFFFFFFFF AND PUSH20 0xFFFFFFFFFFFFFFFFFFFFFFFFFFFFFFFFFFFFFFFF AND DUP2 MSTORE PUSH1 0x20 ADD SWAP1 DUP2 MSTORE PUSH1 0x20 ADD PUSH1 0x0 KECCAK256 PUSH1 0x0 DUP3 ADD MLOAD DUP2 PUSH1 0x0 ADD SSTORE PUSH1 0x20 DUP3 ADD MLOAD DUP2 PUSH1 0x1 ADD PUSH1 0x0 PUSH2 0x100 EXP DUP2 SLOAD DUP2 PUSH1 0xFF MUL NOT AND SWAP1 DUP4 ISZERO ISZERO MUL OR SWAP1 SSTORE POP PUSH1 0x40 DUP3 ADD MLOAD DUP2 PUSH1 0x2 ADD SSTORE SWAP1 POP POP POP JUMP JUMPDEST PUSH1 0x5 PUSH1 0x20 MSTORE DUP1 PUSH1 0x0 MSTORE PUSH1 0x40 PUSH1 0x0 KECCAK256 PUSH1 0x0 SWAP2 POP SWAP1 POP DUP1 PUSH1 0x0 ADD SLOAD SWAP1 DUP1 PUSH1 0x1 ADD PUSH1 0x0 SWAP1 SLOAD SWAP1 PUSH2 0x100 EXP SWAP1 DIV PUSH1 0xFF AND SWAP1 DUP1 PUSH1 0x2 ADD SLOAD SWAP1 POP DUP4 JUMP JUMPDEST PUSH1 0x0 DUP1 SLOAD SWAP1 PUSH2 0x100 EXP SWAP1 DIV PUSH20 0xFFFFFFFFFFFFFFFFFFFFFFFFFFFFFFFFFFFFFFFF AND PUSH20 0xFFFFFFFFFFFFFFFFFFFFFFFFFFFFFFFFFFFFFFFF AND CALLER PUSH20 0xFFFFFFFFFFFFFFFFFFFFFFFFFFFFFFFFFFFFFFFF AND EQ PUSH2 0x971 JUMPI PUSH1 0x40 MLOAD PUSH32 0x8C379A000000000000000000000000000000000000000000000000000000000 DUP2 MSTORE PUSH1 0x4 ADD PUSH2 0x968 SWAP1 PUSH2 0x1B9C JUMP JUMPDEST PUSH1 0x40 MLOAD DUP1 SWAP2 SUB SWAP1 REVERT JUMPDEST PUSH1 0x40 MLOAD DUP1 PUSH1 0x60 ADD PUSH1 0x40 MSTORE DUP1 DUP3 DUP2 MSTORE PUSH1 0x20 ADD PUSH1 0x1 ISZERO ISZERO DUP2 MSTORE PUSH1 0x20 ADD PUSH1 0x0 DUP2 MSTORE POP PUSH1 0x5 PUSH1 0x0 DUP5 PUSH20 0xFFFFFFFFFFFFFFFFFFFFFFFFFFFFFFFFFFFFFFFF AND PUSH20 0xFFFFFFFFFFFFFFFFFFFFFFFFFFFFFFFFFFFFFFFF AND DUP2 MSTORE PUSH1 0x20 ADD SWAP1 DUP2 MSTORE PUSH1 0x20 ADD PUSH1 0x0 KECCAK256 PUSH1 0x0 DUP3 ADD MLOAD DUP2 PUSH1 0x0 ADD SSTORE PUSH1 0x20 DUP3 ADD MLOAD DUP2 PUSH1 0x1 ADD PUSH1 0x0 PUSH2 0x100 EXP DUP2 SLOAD DUP2 PUSH1 0xFF MUL NOT AND SWAP1 DUP4 ISZERO ISZERO MUL OR SWAP1 SSTORE POP PUSH1 0x40 DUP3 ADD MLOAD DUP2 PUSH1 0x2 ADD SSTORE SWAP1 POP POP POP POP JUMP JUMPDEST PUSH1 0x0 DUP1 SLOAD SWAP1 PUSH2 0x100 EXP SWAP1 DIV PUSH20 0xFFFFFFFFFFFFFFFFFFFFFFFFFFFFFFFFFFFFFFFF AND DUP2 JUMP JUMPDEST PUSH1 0x0 DUP1 SLOAD SWAP1 PUSH2 0x100 EXP SWAP1 DIV PUSH20 0xFFFFFFFFFFFFFFFFFFFFFFFFFFFFFFFFFFFFFFFF AND PUSH20 0xFFFFFFFFFFFFFFFFFFFFFFFFFFFFFFFFFFFFFFFF AND CALLER PUSH20 0xFFFFFFFFFFFFFFFFFFFFFFFFFFFFFFFFFFFFFFFF AND EQ PUSH2 0xABC JUMPI PUSH1 0x40 MLOAD PUSH32 0x8C379A000000000000000000000000000000000000000000000000000000000 DUP2 MSTORE PUSH1 0x4 ADD PUSH2 0xAB3 SWAP1 PUSH2 0x1B9C JUMP JUMPDEST PUSH1 0x40 MLOAD DUP1 SWAP2 SUB SWAP1 REVERT JUMPDEST DUP1 PUSH1 0x1 PUSH1 0x0 ADD PUSH1 0x0 DUP3 DUP3 SLOAD PUSH2 0xAD1 SWAP2 SWAP1 PUSH2 0x1CF0 JUMP JUMPDEST SWAP3 POP POP DUP2 SWAP1 SSTORE POP DUP1 PUSH1 0x4 PUSH1 0x0 CALLER PUSH20 0xFFFFFFFFFFFFFFFFFFFFFFFFFFFFFFFFFFFFFFFF AND PUSH20 0xFFFFFFFFFFFFFFFFFFFFFFFFFFFFFFFFFFFFFFFF AND DUP2 MSTORE PUSH1 0x20 ADD SWAP1 DUP2 MSTORE PUSH1 0x20 ADD PUSH1 0x0 KECCAK256 PUSH1 0x0 DUP3 DUP3 SLOAD PUSH2 0xB27 SWAP2 SWAP1 PUSH2 0x1CF0 JUMP JUMPDEST SWAP3 POP POP DUP2 SWAP1 SSTORE POP PUSH32 0x30385C845B448A36257A6A1716E6AD2E1BC2CBE333CDE1E69FE849AD6511ADFE CALLER DUP3 PUSH1 0x40 MLOAD PUSH2 0xB5F SWAP3 SWAP2 SWAP1 PUSH2 0x1B51 JUMP JUMPDEST PUSH1 0x40 MLOAD DUP1 SWAP2 SUB SWAP1 LOG1 POP JUMP JUMPDEST PUSH1 0x0 DUP2 GT PUSH2 0xBAD JUMPI PUSH1 0x40 MLOAD PUSH32 0x8C379A000000000000000000000000000000000000000000000000000000000 DUP2 MSTORE PUSH1 0x4 ADD PUSH2 0xBA4 SWAP1 PUSH2 0x1BDC JUMP JUMPDEST PUSH1 0x40 MLOAD DUP1 SWAP2 SUB SWAP1 REVERT JUMPDEST PUSH1 0x5 PUSH1 0x0 CALLER PUSH20 0xFFFFFFFFFFFFFFFFFFFFFFFFFFFFFFFFFFFFFFFF AND PUSH20 0xFFFFFFFFFFFFFFFFFFFFFFFFFFFFFFFFFFFFFFFF AND DUP2 MSTORE PUSH1 0x20 ADD SWAP1 DUP2 MSTORE PUSH1 0x20 ADD PUSH1 0x0 KECCAK256 PUSH1 0x1 ADD PUSH1 0x0 SWAP1 SLOAD SWAP1 PUSH2 0x100 EXP SWAP1 DIV PUSH1 0xFF AND ISZERO PUSH2 0xC6A PUSH1 0x40 MLOAD DUP1 PUSH1 0x60 ADD PUSH1 0x40 MSTORE DUP1 PUSH1 0x2D DUP2 MSTORE PUSH1 0x20 ADD PUSH2 0x21FD PUSH1 0x2D SWAP2 CODECOPY PUSH2 0xC65 PUSH1 0x5 PUSH1 0x0 CALLER PUSH20 0xFFFFFFFFFFFFFFFFFFFFFFFFFFFFFFFFFFFFFFFF AND PUSH20 0xFFFFFFFFFFFFFFFFFFFFFFFFFFFFFFFFFFFFFFFF AND DUP2 MSTORE PUSH1 0x20 ADD SWAP1 DUP2 MSTORE PUSH1 0x20 ADD PUSH1 0x0 KECCAK256 PUSH1 0x0 ADD SLOAD PUSH2 0x1270 JUMP JUMPDEST PUSH2 0x1602 JUMP JUMPDEST SWAP1 PUSH2 0xCAB JUMPI PUSH1 0x40 MLOAD PUSH32 0x8C379A000000000000000000000000000000000000000000000000000000000 DUP2 MSTORE PUSH1 0x4 ADD PUSH2 0xCA2 SWAP2 SWAP1 PUSH2 0x1B7A JUMP JUMPDEST PUSH1 0x40 MLOAD DUP1 SWAP2 SUB SWAP1 REVERT JUMPDEST POP DUP1 PUSH1 0x5 PUSH1 0x0 CALLER PUSH20 0xFFFFFFFFFFFFFFFFFFFFFFFFFFFFFFFFFFFFFFFF AND PUSH20 0xFFFFFFFFFFFFFFFFFFFFFFFFFFFFFFFFFFFFFFFF AND DUP2 MSTORE PUSH1 0x20 ADD SWAP1 DUP2 MSTORE PUSH1 0x20 ADD PUSH1 0x0 KECCAK256 PUSH1 0x2 ADD SLOAD PUSH1 0x4 PUSH1 0x0 CALLER PUSH20 0xFFFFFFFFFFFFFFFFFFFFFFFFFFFFFFFFFFFFFFFF AND PUSH20 0xFFFFFFFFFFFFFFFFFFFFFFFFFFFFFFFFFFFFFFFF AND DUP2 MSTORE PUSH1 0x20 ADD SWAP1 DUP2 MSTORE PUSH1 0x20 ADD PUSH1 0x0 KECCAK256 SLOAD PUSH2 0xD3A SWAP2 SWAP1 PUSH2 0x1E08 JUMP JUMPDEST LT ISZERO PUSH2 0xF52 PUSH2 0xE33 PUSH2 0xDF8 PUSH1 0x40 MLOAD DUP1 PUSH1 0x60 ADD PUSH1 0x40 MSTORE DUP1 PUSH1 0x36 DUP2 MSTORE PUSH1 0x20 ADD PUSH2 0x222A PUSH1 0x36 SWAP2 CODECOPY PUSH2 0xDF3 PUSH1 0x5 PUSH1 0x0 CALLER PUSH20 0xFFFFFFFFFFFFFFFFFFFFFFFFFFFFFFFFFFFFFFFF AND PUSH20 0xFFFFFFFFFFFFFFFFFFFFFFFFFFFFFFFFFFFFFFFF AND DUP2 MSTORE PUSH1 0x20 ADD SWAP1 DUP2 MSTORE PUSH1 0x20 ADD PUSH1 0x0 KECCAK256 PUSH1 0x2 ADD SLOAD PUSH1 0x4 PUSH1 0x0 CALLER PUSH20 0xFFFFFFFFFFFFFFFFFFFFFFFFFFFFFFFFFFFFFFFF AND PUSH20 0xFFFFFFFFFFFFFFFFFFFFFFFFFFFFFFFFFFFFFFFF AND DUP2 MSTORE PUSH1 0x20 ADD SWAP1 DUP2 MSTORE PUSH1 0x20 ADD PUSH1 0x0 KECCAK256 SLOAD PUSH2 0xDEE SWAP2 SWAP1 PUSH2 0x1E08 JUMP JUMPDEST PUSH2 0x1479 JUMP JUMPDEST PUSH2 0x1602 JUMP JUMPDEST PUSH1 0x40 MLOAD DUP1 PUSH1 0x40 ADD PUSH1 0x40 MSTORE DUP1 PUSH1 0x2 DUP2 MSTORE PUSH1 0x20 ADD PUSH32 0x290A000000000000000000000000000000000000000000000000000000000000 DUP2 MSTORE POP PUSH2 0x1602 JUMP JUMPDEST PUSH2 0xF4D PUSH2 0xEBF PUSH1 0x40 MLOAD DUP1 PUSH1 0x40 ADD PUSH1 0x40 MSTORE DUP1 PUSH1 0x9 DUP2 MSTORE PUSH1 0x20 ADD PUSH32 0x596F752068617665200000000000000000000000000000000000000000000000 DUP2 MSTORE POP PUSH2 0xEBA PUSH1 0x5 PUSH1 0x0 CALLER PUSH20 0xFFFFFFFFFFFFFFFFFFFFFFFFFFFFFFFFFFFFFFFF AND PUSH20 0xFFFFFFFFFFFFFFFFFFFFFFFFFFFFFFFFFFFFFFFF AND DUP2 MSTORE PUSH1 0x20 ADD SWAP1 DUP2 MSTORE PUSH1 0x20 ADD PUSH1 0x0 KECCAK256 PUSH1 0x2 ADD SLOAD PUSH2 0x1479 JUMP JUMPDEST PUSH2 0x1602 JUMP JUMPDEST PUSH2 0xF48 PUSH1 0x40 MLOAD DUP1 PUSH1 0x40 ADD PUSH1 0x40 MSTORE DUP1 PUSH1 0x1E DUP2 MSTORE PUSH1 0x20 ADD PUSH32 0x20626C6F636B6564204A445275626C657320627920726561736F6E3A0A090000 DUP2 MSTORE POP PUSH2 0xF43 PUSH1 0x5 PUSH1 0x0 CALLER PUSH20 0xFFFFFFFFFFFFFFFFFFFFFFFFFFFFFFFFFFFFFFFF AND PUSH20 0xFFFFFFFFFFFFFFFFFFFFFFFFFFFFFFFFFFFFFFFF AND DUP2 MSTORE PUSH1 0x20 ADD SWAP1 DUP2 MSTORE PUSH1 0x20 ADD PUSH1 0x0 KECCAK256 PUSH1 0x0 ADD SLOAD PUSH2 0x1270 JUMP JUMPDEST PUSH2 0x1602 JUMP JUMPDEST PUSH2 0x1602 JUMP JUMPDEST PUSH2 0x1602 JUMP JUMPDEST SWAP1 PUSH2 0xF93 JUMPI PUSH1 0x40 MLOAD PUSH32 0x8C379A000000000000000000000000000000000000000000000000000000000 DUP2 MSTORE PUSH1 0x4 ADD PUSH2 0xF8A SWAP2 SWAP1 PUSH2 0x1B7A JUMP JUMPDEST PUSH1 0x40 MLOAD DUP1 SWAP2 SUB SWAP1 REVERT JUMPDEST POP DUP1 PUSH1 0x4 PUSH1 0x0 CALLER PUSH20 0xFFFFFFFFFFFFFFFFFFFFFFFFFFFFFFFFFFFFFFFF AND PUSH20 0xFFFFFFFFFFFFFFFFFFFFFFFFFFFFFFFFFFFFFFFF AND DUP2 MSTORE PUSH1 0x20 ADD SWAP1 DUP2 MSTORE PUSH1 0x20 ADD PUSH1 0x0 KECCAK256 SLOAD LT ISZERO PUSH2 0x107E PUSH2 0x1043 PUSH1 0x40 MLOAD DUP1 PUSH1 0x60 ADD PUSH1 0x40 MSTORE DUP1 PUSH1 0x2C DUP2 MSTORE PUSH1 0x20 ADD PUSH2 0x21D1 PUSH1 0x2C SWAP2 CODECOPY PUSH2 0x103E PUSH1 0x4 PUSH1 0x0 CALLER PUSH20 0xFFFFFFFFFFFFFFFFFFFFFFFFFFFFFFFFFFFFFFFF AND PUSH20 0xFFFFFFFFFFFFFFFFFFFFFFFFFFFFFFFFFFFFFFFF AND DUP2 MSTORE PUSH1 0x20 ADD SWAP1 DUP2 MSTORE PUSH1 0x20 ADD PUSH1 0x0 KECCAK256 SLOAD PUSH2 0x1479 JUMP JUMPDEST PUSH2 0x1602 JUMP JUMPDEST PUSH1 0x40 MLOAD DUP1 PUSH1 0x40 ADD PUSH1 0x40 MSTORE DUP1 PUSH1 0x1 DUP2 MSTORE PUSH1 0x20 ADD PUSH32 0x2900000000000000000000000000000000000000000000000000000000000000 DUP2 MSTORE POP PUSH2 0x1602 JUMP JUMPDEST SWAP1 PUSH2 0x10BF JUMPI PUSH1 0x40 MLOAD PUSH32 0x8C379A000000000000000000000000000000000000000000000000000000000 DUP2 MSTORE PUSH1 0x4 ADD PUSH2 0x10B6 SWAP2 SWAP1 PUSH2 0x1B7A JUMP JUMPDEST PUSH1 0x40 MLOAD DUP1 SWAP2 SUB SWAP1 REVERT JUMPDEST POP DUP1 DUP2 PUSH1 0x4 PUSH1 0x0 DUP6 PUSH20 0xFFFFFFFFFFFFFFFFFFFFFFFFFFFFFFFFFFFFFFFF AND PUSH20 0xFFFFFFFFFFFFFFFFFFFFFFFFFFFFFFFFFFFFFFFF AND DUP2 MSTORE PUSH1 0x20 ADD SWAP1 DUP2 MSTORE PUSH1 0x20 ADD PUSH1 0x0 KECCAK256 SLOAD PUSH2 0x110C SWAP2 SWAP1 PUSH2 0x1CF0 JUMP JUMPDEST LT ISZERO PUSH2 0x114D JUMPI PUSH1 0x40 MLOAD PUSH32 0x8C379A000000000000000000000000000000000000000000000000000000000 DUP2 MSTORE PUSH1 0x4 ADD PUSH2 0x1144 SWAP1 PUSH2 0x1BBC JUMP JUMPDEST PUSH1 0x40 MLOAD DUP1 SWAP2 SUB SWAP1 REVERT JUMPDEST DUP1 PUSH1 0x4 PUSH1 0x0 CALLER PUSH20 0xFFFFFFFFFFFFFFFFFFFFFFFFFFFFFFFFFFFFFFFF AND PUSH20 0xFFFFFFFFFFFFFFFFFFFFFFFFFFFFFFFFFFFFFFFF AND DUP2 MSTORE PUSH1 0x20 ADD SWAP1 DUP2 MSTORE PUSH1 0x20 ADD PUSH1 0x0 KECCAK256 SLOAD PUSH2 0x1198 SWAP2 SWAP1 PUSH2 0x1E08 JUMP JUMPDEST PUSH1 0x4 PUSH1 0x0 CALLER PUSH20 0xFFFFFFFFFFFFFFFFFFFFFFFFFFFFFFFFFFFFFFFF AND PUSH20 0xFFFFFFFFFFFFFFFFFFFFFFFFFFFFFFFFFFFFFFFF AND DUP2 MSTORE PUSH1 0x20 ADD SWAP1 DUP2 MSTORE PUSH1 0x20 ADD PUSH1 0x0 KECCAK256 DUP2 SWAP1 SSTORE POP DUP1 PUSH1 0x4 PUSH1 0x0 DUP5 PUSH20 0xFFFFFFFFFFFFFFFFFFFFFFFFFFFFFFFFFFFFFFFF AND PUSH20 0xFFFFFFFFFFFFFFFFFFFFFFFFFFFFFFFFFFFFFFFF AND DUP2 MSTORE PUSH1 0x20 ADD SWAP1 DUP2 MSTORE PUSH1 0x20 ADD PUSH1 0x0 KECCAK256 PUSH1 0x0 DUP3 DUP3 SLOAD PUSH2 0x122A SWAP2 SWAP1 PUSH2 0x1CF0 JUMP JUMPDEST SWAP3 POP POP DUP2 SWAP1 SSTORE POP PUSH32 0x8930AC7BCB101F94C05B13845098AE74383BFB9E348E73061B730040945CBB82 CALLER DUP4 DUP4 PUSH1 0x40 MLOAD PUSH2 0x1264 SWAP4 SWAP3 SWAP2 SWAP1 PUSH2 0x1B1A JUMP JUMPDEST PUSH1 0x40 MLOAD DUP1 SWAP2 SUB SWAP1 LOG1 POP POP JUMP JUMPDEST PUSH1 0x60 PUSH1 0x3 PUSH1 0x6 PUSH1 0x0 DUP5 DUP2 MSTORE PUSH1 0x20 ADD SWAP1 DUP2 MSTORE PUSH1 0x20 ADD PUSH1 0x0 KECCAK256 SLOAD DUP2 SLOAD DUP2 LT PUSH2 0x1299 JUMPI PUSH2 0x1298 PUSH2 0x200C JUMP JUMPDEST JUMPDEST SWAP1 PUSH1 0x0 MSTORE PUSH1 0x20 PUSH1 0x0 KECCAK256 SWAP1 PUSH1 0x2 MUL ADD PUSH1 0x1 ADD DUP1 SLOAD PUSH2 0x12B5 SWAP1 PUSH2 0x1ED3 JUMP JUMPDEST DUP1 PUSH1 0x1F ADD PUSH1 0x20 DUP1 SWAP2 DIV MUL PUSH1 0x20 ADD PUSH1 0x40 MLOAD SWAP1 DUP2 ADD PUSH1 0x40 MSTORE DUP1 SWAP3 SWAP2 SWAP1 DUP2 DUP2 MSTORE PUSH1 0x20 ADD DUP3 DUP1 SLOAD PUSH2 0x12E1 SWAP1 PUSH2 0x1ED3 JUMP JUMPDEST DUP1 ISZERO PUSH2 0x132E JUMPI DUP1 PUSH1 0x1F LT PUSH2 0x1303 JUMPI PUSH2 0x100 DUP1 DUP4 SLOAD DIV MUL DUP4 MSTORE SWAP2 PUSH1 0x20 ADD SWAP2 PUSH2 0x132E JUMP JUMPDEST DUP3 ADD SWAP2 SWAP1 PUSH1 0x0 MSTORE PUSH1 0x20 PUSH1 0x0 KECCAK256 SWAP1 JUMPDEST DUP2 SLOAD DUP2 MSTORE SWAP1 PUSH1 0x1 ADD SWAP1 PUSH1 0x20 ADD DUP1 DUP4 GT PUSH2 0x1311 JUMPI DUP3 SWAP1 SUB PUSH1 0x1F AND DUP3 ADD SWAP2 JUMPDEST POP POP POP POP POP SWAP1 POP SWAP2 SWAP1 POP JUMP JUMPDEST PUSH1 0x0 DUP1 SLOAD SWAP1 PUSH2 0x100 EXP SWAP1 DIV PUSH20 0xFFFFFFFFFFFFFFFFFFFFFFFFFFFFFFFFFFFFFFFF AND PUSH20 0xFFFFFFFFFFFFFFFFFFFFFFFFFFFFFFFFFFFFFFFF AND CALLER PUSH20 0xFFFFFFFFFFFFFFFFFFFFFFFFFFFFFFFFFFFFFFFF AND EQ PUSH2 0x13C8 JUMPI PUSH1 0x40 MLOAD PUSH32 0x8C379A000000000000000000000000000000000000000000000000000000000 DUP2 MSTORE PUSH1 0x4 ADD PUSH2 0x13BF SWAP1 PUSH2 0x1B9C JUMP JUMPDEST PUSH1 0x40 MLOAD DUP1 SWAP2 SUB SWAP1 REVERT JUMPDEST PUSH1 0x40 MLOAD DUP1 PUSH1 0x60 ADD PUSH1 0x40 MSTORE DUP1 DUP4 DUP2 MSTORE PUSH1 0x20 ADD PUSH1 0x0 ISZERO ISZERO DUP2 MSTORE PUSH1 0x20 ADD DUP3 DUP2 MSTORE POP PUSH1 0x5 PUSH1 0x0 DUP6 PUSH20 0xFFFFFFFFFFFFFFFFFFFFFFFFFFFFFFFFFFFFFFFF AND PUSH20 0xFFFFFFFFFFFFFFFFFFFFFFFFFFFFFFFFFFFFFFFF AND DUP2 MSTORE PUSH1 0x20 ADD SWAP1 DUP2 MSTORE PUSH1 0x20 ADD PUSH1 0x0 KECCAK256 PUSH1 0x0 DUP3 ADD MLOAD DUP2 PUSH1 0x0 ADD SSTORE PUSH1 0x20 DUP3 ADD MLOAD DUP2 PUSH1 0x1 ADD PUSH1 0x0 PUSH2 0x100 EXP DUP2 SLOAD DUP2 PUSH1 0xFF MUL NOT AND SWAP1 DUP4 ISZERO ISZERO MUL OR SWAP1 SSTORE POP PUSH1 0x40 DUP3 ADD MLOAD DUP2 PUSH1 0x2 ADD SSTORE SWAP1 POP POP POP POP POP JUMP JUMPDEST PUSH1 0x6 PUSH1 0x20 MSTORE DUP1 PUSH1 0x0 MSTORE PUSH1 0x40 PUSH1 0x0 KECCAK256 PUSH1 0x0 SWAP2 POP SWAP1 POP SLOAD DUP2 JUMP JUMPDEST PUSH1 0x60 PUSH1 0x0 DUP3 EQ ISZERO PUSH2 0x14C1 JUMPI PUSH1 0x40 MLOAD DUP1 PUSH1 0x40 ADD PUSH1 0x40 MSTORE DUP1 PUSH1 0x1 DUP2 MSTORE PUSH1 0x20 ADD PUSH32 0x3000000000000000000000000000000000000000000000000000000000000000 DUP2 MSTORE POP SWAP1 POP PUSH2 0x15FD JUMP JUMPDEST PUSH1 0x0 DUP3 SWAP1 POP PUSH1 0x0 JUMPDEST PUSH1 0x0 DUP3 EQ PUSH2 0x14F3 JUMPI DUP1 DUP1 PUSH2 0x14DC SWAP1 PUSH2 0x1F36 JUMP JUMPDEST SWAP2 POP POP PUSH1 0xA DUP3 PUSH2 0x14EC SWAP2 SWAP1 PUSH2 0x1D7D JUMP JUMPDEST SWAP2 POP PUSH2 0x14C9 JUMP JUMPDEST PUSH1 0x0 DUP2 PUSH8 0xFFFFFFFFFFFFFFFF DUP2 GT ISZERO PUSH2 0x150F JUMPI PUSH2 0x150E PUSH2 0x203B JUMP JUMPDEST JUMPDEST PUSH1 0x40 MLOAD SWAP1 DUP1 DUP3 MSTORE DUP1 PUSH1 0x1F ADD PUSH1 0x1F NOT AND PUSH1 0x20 ADD DUP3 ADD PUSH1 0x40 MSTORE DUP1 ISZERO PUSH2 0x1541 JUMPI DUP2 PUSH1 0x20 ADD PUSH1 0x1 DUP3 MUL DUP1 CALLDATASIZE DUP4 CALLDATACOPY DUP1 DUP3 ADD SWAP2 POP POP SWAP1 POP JUMPDEST POP SWAP1 POP PUSH1 0x0 DUP3 SWAP1 POP JUMPDEST PUSH1 0x0 DUP7 EQ PUSH2 0x15F5 JUMPI PUSH1 0x1 DUP2 PUSH2 0x155F SWAP2 SWAP1 PUSH2 0x1E08 JUMP JUMPDEST SWAP1 POP PUSH1 0x0 PUSH1 0xA DUP1 DUP9 PUSH2 0x1571 SWAP2 SWAP1 PUSH2 0x1D7D JUMP JUMPDEST PUSH2 0x157B SWAP2 SWAP1 PUSH2 0x1DAE JUMP JUMPDEST DUP8 PUSH2 0x1586 SWAP2 SWAP1 PUSH2 0x1E08 JUMP JUMPDEST PUSH1 0x30 PUSH2 0x1592 SWAP2 SWAP1 PUSH2 0x1D46 JUMP JUMPDEST SWAP1 POP PUSH1 0x0 DUP2 PUSH1 0xF8 SHL SWAP1 POP DUP1 DUP5 DUP5 DUP2 MLOAD DUP2 LT PUSH2 0x15B0 JUMPI PUSH2 0x15AF PUSH2 0x200C JUMP JUMPDEST JUMPDEST PUSH1 0x20 ADD ADD SWAP1 PUSH31 0xFFFFFFFFFFFFFFFFFFFFFFFFFFFFFFFFFFFFFFFFFFFFFFFFFFFFFFFFFFFFFF NOT AND SWAP1 DUP2 PUSH1 0x0 BYTE SWAP1 MSTORE8 POP PUSH1 0xA DUP9 PUSH2 0x15EC SWAP2 SWAP1 PUSH2 0x1D7D JUMP JUMPDEST SWAP8 POP POP POP PUSH2 0x154A JUMP JUMPDEST DUP2 SWAP5 POP POP POP POP POP JUMPDEST SWAP2 SWAP1 POP JUMP JUMPDEST PUSH1 0x60 PUSH1 0x0 DUP3 MLOAD DUP5 MLOAD PUSH2 0x1614 SWAP2 SWAP1 PUSH2 0x1CF0 JUMP JUMPDEST PUSH8 0xFFFFFFFFFFFFFFFF DUP2 GT ISZERO PUSH2 0x162D JUMPI PUSH2 0x162C PUSH2 0x203B JUMP JUMPDEST JUMPDEST PUSH1 0x40 MLOAD SWAP1 DUP1 DUP3 MSTORE DUP1 PUSH1 0x1F ADD PUSH1 0x1F NOT AND PUSH1 0x20 ADD DUP3 ADD PUSH1 0x40 MSTORE DUP1 ISZERO PUSH2 0x165F JUMPI DUP2 PUSH1 0x20 ADD PUSH1 0x1 DUP3 MUL DUP1 CALLDATASIZE DUP4 CALLDATACOPY DUP1 DUP3 ADD SWAP2 POP POP SWAP1 POP JUMPDEST POP SWAP1 POP PUSH1 0x0 JUMPDEST DUP5 MLOAD DUP2 LT ISZERO PUSH2 0x16E1 JUMPI DUP5 DUP2 DUP2 MLOAD DUP2 LT PUSH2 0x1681 JUMPI PUSH2 0x1680 PUSH2 0x200C JUMP JUMPDEST JUMPDEST PUSH1 0x20 ADD ADD MLOAD PUSH1 0xF8 SHR PUSH1 0xF8 SHL DUP3 DUP3 DUP2 MLOAD DUP2 LT PUSH2 0x169F JUMPI PUSH2 0x169E PUSH2 0x200C JUMP JUMPDEST JUMPDEST PUSH1 0x20 ADD ADD SWAP1 PUSH31 0xFFFFFFFFFFFFFFFFFFFFFFFFFFFFFFFFFFFFFFFFFFFFFFFFFFFFFFFFFFFFFF NOT AND SWAP1 DUP2 PUSH1 0x0 BYTE SWAP1 MSTORE8 POP DUP1 DUP1 PUSH2 0x16D9 SWAP1 PUSH2 0x1F36 JUMP JUMPDEST SWAP2 POP POP PUSH2 0x1665 JUMP JUMPDEST JUMPDEST DUP4 MLOAD DUP6 MLOAD DUP3 PUSH2 0x16F1 SWAP2 SWAP1 PUSH2 0x1E08 JUMP JUMPDEST LT ISZERO PUSH2 0x1776 JUMPI DUP4 DUP6 MLOAD DUP3 PUSH2 0x1705 SWAP2 SWAP1 PUSH2 0x1E08 JUMP JUMPDEST DUP2 MLOAD DUP2 LT PUSH2 0x1716 JUMPI PUSH2 0x1715 PUSH2 0x200C JUMP JUMPDEST JUMPDEST PUSH1 0x20 ADD ADD MLOAD PUSH1 0xF8 SHR PUSH1 0xF8 SHL DUP3 DUP3 DUP2 MLOAD DUP2 LT PUSH2 0x1734 JUMPI PUSH2 0x1733 PUSH2 0x200C JUMP JUMPDEST JUMPDEST PUSH1 0x20 ADD ADD SWAP1 PUSH31 0xFFFFFFFFFFFFFFFFFFFFFFFFFFFFFFFFFFFFFFFFFFFFFFFFFFFFFFFFFFFFFF NOT AND SWAP1 DUP2 PUSH1 0x0 BYTE SWAP1 MSTORE8 POP DUP1 DUP1 PUSH2 0x176E SWAP1 PUSH2 0x1F36 JUMP JUMPDEST SWAP2 POP POP PUSH2 0x16E2 JUMP JUMPDEST DUP2 SWAP3 POP POP POP SWAP3 SWAP2 POP POP JUMP JUMPDEST DUP3 DUP1 SLOAD PUSH2 0x178D SWAP1 PUSH2 0x1ED3 JUMP JUMPDEST SWAP1 PUSH1 0x0 MSTORE PUSH1 0x20 PUSH1 0x0 KECCAK256 SWAP1 PUSH1 0x1F ADD PUSH1 0x20 SWAP1 DIV DUP2 ADD SWAP3 DUP3 PUSH2 0x17AF JUMPI PUSH1 0x0 DUP6 SSTORE PUSH2 0x17F6 JUMP JUMPDEST DUP3 PUSH1 0x1F LT PUSH2 0x17C8 JUMPI DUP1 MLOAD PUSH1 0xFF NOT AND DUP4 DUP1 ADD OR DUP6 SSTORE PUSH2 0x17F6 JUMP JUMPDEST DUP3 DUP1 ADD PUSH1 0x1 ADD DUP6 SSTORE DUP3 ISZERO PUSH2 0x17F6 JUMPI SWAP2 DUP3 ADD JUMPDEST DUP3 DUP2 GT ISZERO PUSH2 0x17F5 JUMPI DUP3 MLOAD DUP3 SSTORE SWAP2 PUSH1 0x20 ADD SWAP2 SWAP1 PUSH1 0x1 ADD SWAP1 PUSH2 0x17DA JUMP JUMPDEST JUMPDEST POP SWAP1 POP PUSH2 0x1803 SWAP2 SWAP1 PUSH2 0x1807 JUMP JUMPDEST POP SWAP1 JUMP JUMPDEST JUMPDEST DUP1 DUP3 GT ISZERO PUSH2 0x1820 JUMPI PUSH1 0x0 DUP2 PUSH1 0x0 SWAP1 SSTORE POP PUSH1 0x1 ADD PUSH2 0x1808 JUMP JUMPDEST POP SWAP1 JUMP JUMPDEST PUSH1 0x0 PUSH2 0x1837 PUSH2 0x1832 DUP5 PUSH2 0x1CA3 JUMP JUMPDEST PUSH2 0x1C7E JUMP JUMPDEST SWAP1 POP DUP3 DUP2 MSTORE PUSH1 0x20 DUP2 ADD DUP5 DUP5 DUP5 ADD GT ISZERO PUSH2 0x1853 JUMPI PUSH2 0x1852 PUSH2 0x206F JUMP JUMPDEST JUMPDEST PUSH2 0x185E DUP5 DUP3 DUP6 PUSH2 0x1E91 JUMP JUMPDEST POP SWAP4 SWAP3 POP POP POP JUMP JUMPDEST PUSH1 0x0 DUP2 CALLDATALOAD SWAP1 POP PUSH2 0x1875 DUP2 PUSH2 0x21A2 JUMP JUMPDEST SWAP3 SWAP2 POP POP JUMP JUMPDEST PUSH1 0x0 DUP3 PUSH1 0x1F DUP4 ADD SLT PUSH2 0x1890 JUMPI PUSH2 0x188F PUSH2 0x206A JUMP JUMPDEST JUMPDEST DUP2 CALLDATALOAD PUSH2 0x18A0 DUP5 DUP3 PUSH1 0x20 DUP7 ADD PUSH2 0x1824 JUMP JUMPDEST SWAP2 POP POP SWAP3 SWAP2 POP POP JUMP JUMPDEST PUSH1 0x0 DUP2 CALLDATALOAD SWAP1 POP PUSH2 0x18B8 DUP2 PUSH2 0x21B9 JUMP JUMPDEST SWAP3 SWAP2 POP POP JUMP JUMPDEST PUSH1 0x0 PUSH1 0x20 DUP3 DUP5 SUB SLT ISZERO PUSH2 0x18D4 JUMPI PUSH2 0x18D3 PUSH2 0x2079 JUMP JUMPDEST JUMPDEST PUSH1 0x0 PUSH2 0x18E2 DUP5 DUP3 DUP6 ADD PUSH2 0x1866 JUMP JUMPDEST SWAP2 POP POP SWAP3 SWAP2 POP POP JUMP JUMPDEST PUSH1 0x0 DUP1 PUSH1 0x40 DUP4 DUP6 SUB SLT ISZERO PUSH2 0x1902 JUMPI PUSH2 0x1901 PUSH2 0x2079 JUMP JUMPDEST JUMPDEST PUSH1 0x0 PUSH2 0x1910 DUP6 DUP3 DUP7 ADD PUSH2 0x1866 JUMP JUMPDEST SWAP3 POP POP PUSH1 0x20 PUSH2 0x1921 DUP6 DUP3 DUP7 ADD PUSH2 0x18A9 JUMP JUMPDEST SWAP2 POP POP SWAP3 POP SWAP3 SWAP1 POP JUMP JUMPDEST PUSH1 0x0 DUP1 PUSH1 0x0 PUSH1 0x60 DUP5 DUP7 SUB SLT ISZERO PUSH2 0x1944 JUMPI PUSH2 0x1943 PUSH2 0x2079 JUMP JUMPDEST JUMPDEST PUSH1 0x0 PUSH2 0x1952 DUP7 DUP3 DUP8 ADD PUSH2 0x1866 JUMP JUMPDEST SWAP4 POP POP PUSH1 0x20 PUSH2 0x1963 DUP7 DUP3 DUP8 ADD PUSH2 0x18A9 JUMP JUMPDEST SWAP3 POP POP PUSH1 0x40 PUSH2 0x1974 DUP7 DUP3 DUP8 ADD PUSH2 0x18A9 JUMP JUMPDEST SWAP2 POP POP SWAP3 POP SWAP3 POP SWAP3 JUMP JUMPDEST PUSH1 0x0 PUSH1 0x20 DUP3 DUP5 SUB SLT ISZERO PUSH2 0x1994 JUMPI PUSH2 0x1993 PUSH2 0x2079 JUMP JUMPDEST JUMPDEST PUSH1 0x0 PUSH2 0x19A2 DUP5 DUP3 DUP6 ADD PUSH2 0x18A9 JUMP JUMPDEST SWAP2 POP POP SWAP3 SWAP2 POP POP JUMP JUMPDEST PUSH1 0x0 DUP1 PUSH1 0x40 DUP4 DUP6 SUB SLT ISZERO PUSH2 0x19C2 JUMPI PUSH2 0x19C1 PUSH2 0x2079 JUMP JUMPDEST JUMPDEST PUSH1 0x0 PUSH2 0x19D0 DUP6 DUP3 DUP7 ADD PUSH2 0x18A9 JUMP JUMPDEST SWAP3 POP POP PUSH1 0x20 DUP4 ADD CALLDATALOAD PUSH8 0xFFFFFFFFFFFFFFFF DUP2 GT ISZERO PUSH2 0x19F1 JUMPI PUSH2 0x19F0 PUSH2 0x2074 JUMP JUMPDEST JUMPDEST PUSH2 0x19FD DUP6 DUP3 DUP7 ADD PUSH2 0x187B JUMP JUMPDEST SWAP2 POP POP SWAP3 POP SWAP3 SWAP1 POP JUMP JUMPDEST PUSH2 0x1A10 DUP2 PUSH2 0x1E3C JUMP JUMPDEST DUP3 MSTORE POP POP JUMP JUMPDEST PUSH2 0x1A1F DUP2 PUSH2 0x1E4E JUMP JUMPDEST DUP3 MSTORE POP POP JUMP JUMPDEST PUSH1 0x0 PUSH2 0x1A30 DUP3 PUSH2 0x1CD4 JUMP JUMPDEST PUSH2 0x1A3A DUP2 DUP6 PUSH2 0x1CDF JUMP JUMPDEST SWAP4 POP PUSH2 0x1A4A DUP2 DUP6 PUSH1 0x20 DUP7 ADD PUSH2 0x1EA0 JUMP JUMPDEST PUSH2 0x1A53 DUP2 PUSH2 0x207E JUMP JUMPDEST DUP5 ADD SWAP2 POP POP SWAP3 SWAP2 POP POP JUMP JUMPDEST PUSH1 0x0 PUSH2 0x1A6B PUSH1 0x13 DUP4 PUSH2 0x1CDF JUMP JUMPDEST SWAP2 POP PUSH2 0x1A76 DUP3 PUSH2 0x208F JUMP JUMPDEST PUSH1 0x20 DUP3 ADD SWAP1 POP SWAP2 SWAP1 POP JUMP JUMPDEST PUSH1 0x0 PUSH2 0x1A8E PUSH1 0x64 DUP4 PUSH2 0x1CDF JUMP JUMPDEST SWAP2 POP PUSH2 0x1A99 DUP3 PUSH2 0x20B8 JUMP JUMPDEST PUSH1 0x80 DUP3 ADD SWAP1 POP SWAP2 SWAP1 POP JUMP JUMPDEST PUSH1 0x0 PUSH2 0x1AB1 PUSH1 0x29 DUP4 PUSH2 0x1CDF JUMP JUMPDEST SWAP2 POP PUSH2 0x1ABC DUP3 PUSH2 0x2153 JUMP JUMPDEST PUSH1 0x40 DUP3 ADD SWAP1 POP SWAP2 SWAP1 POP JUMP JUMPDEST PUSH2 0x1AD0 DUP2 PUSH2 0x1E7A JUMP JUMPDEST DUP3 MSTORE POP POP JUMP JUMPDEST PUSH1 0x0 PUSH1 0x20 DUP3 ADD SWAP1 POP PUSH2 0x1AEB PUSH1 0x0 DUP4 ADD DUP5 PUSH2 0x1A07 JUMP JUMPDEST SWAP3 SWAP2 POP POP JUMP JUMPDEST PUSH1 0x0 PUSH1 0x40 DUP3 ADD SWAP1 POP PUSH2 0x1B06 PUSH1 0x0 DUP4 ADD DUP6 PUSH2 0x1A07 JUMP JUMPDEST PUSH2 0x1B13 PUSH1 0x20 DUP4 ADD DUP5 PUSH2 0x1A07 JUMP JUMPDEST SWAP4 SWAP3 POP POP POP JUMP JUMPDEST PUSH1 0x0 PUSH1 0x60 DUP3 ADD SWAP1 POP PUSH2 0x1B2F PUSH1 0x0 DUP4 ADD DUP7 PUSH2 0x1A07 JUMP JUMPDEST PUSH2 0x1B3C PUSH1 0x20 DUP4 ADD DUP6 PUSH2 0x1A07 JUMP JUMPDEST PUSH2 0x1B49 PUSH1 0x40 DUP4 ADD DUP5 PUSH2 0x1AC7 JUMP JUMPDEST SWAP5 SWAP4 POP POP POP POP JUMP JUMPDEST PUSH1 0x0 PUSH1 0x40 DUP3 ADD SWAP1 POP PUSH2 0x1B66 PUSH1 0x0 DUP4 ADD DUP6 PUSH2 0x1A07 JUMP JUMPDEST PUSH2 0x1B73 PUSH1 0x20 DUP4 ADD DUP5 PUSH2 0x1AC7 JUMP JUMPDEST SWAP4 SWAP3 POP POP POP JUMP JUMPDEST PUSH1 0x0 PUSH1 0x20 DUP3 ADD SWAP1 POP DUP2 DUP2 SUB PUSH1 0x0 DUP4 ADD MSTORE PUSH2 0x1B94 DUP2 DUP5 PUSH2 0x1A25 JUMP JUMPDEST SWAP1 POP SWAP3 SWAP2 POP POP JUMP JUMPDEST PUSH1 0x0 PUSH1 0x20 DUP3 ADD SWAP1 POP DUP2 DUP2 SUB PUSH1 0x0 DUP4 ADD MSTORE PUSH2 0x1BB5 DUP2 PUSH2 0x1A5E JUMP JUMPDEST SWAP1 POP SWAP2 SWAP1 POP JUMP JUMPDEST PUSH1 0x0 PUSH1 0x20 DUP3 ADD SWAP1 POP DUP2 DUP2 SUB PUSH1 0x0 DUP4 ADD MSTORE PUSH2 0x1BD5 DUP2 PUSH2 0x1A81 JUMP JUMPDEST SWAP1 POP SWAP2 SWAP1 POP JUMP JUMPDEST PUSH1 0x0 PUSH1 0x20 DUP3 ADD SWAP1 POP DUP2 DUP2 SUB PUSH1 0x0 DUP4 ADD MSTORE PUSH2 0x1BF5 DUP2 PUSH2 0x1AA4 JUMP JUMPDEST SWAP1 POP SWAP2 SWAP1 POP JUMP JUMPDEST PUSH1 0x0 PUSH1 0x20 DUP3 ADD SWAP1 POP PUSH2 0x1C11 PUSH1 0x0 DUP4 ADD DUP5 PUSH2 0x1AC7 JUMP JUMPDEST SWAP3 SWAP2 POP POP JUMP JUMPDEST PUSH1 0x0 PUSH1 0x60 DUP3 ADD SWAP1 POP PUSH2 0x1C2C PUSH1 0x0 DUP4 ADD DUP7 PUSH2 0x1AC7 JUMP JUMPDEST PUSH2 0x1C39 PUSH1 0x20 DUP4 ADD DUP6 PUSH2 0x1A16 JUMP JUMPDEST PUSH2 0x1C46 PUSH1 0x40 DUP4 ADD DUP5 PUSH2 0x1AC7 JUMP JUMPDEST SWAP5 SWAP4 POP POP POP POP JUMP JUMPDEST PUSH1 0x0 PUSH1 0x40 DUP3 ADD SWAP1 POP PUSH2 0x1C63 PUSH1 0x0 DUP4 ADD DUP6 PUSH2 0x1AC7 JUMP JUMPDEST DUP2 DUP2 SUB PUSH1 0x20 DUP4 ADD MSTORE PUSH2 0x1C75 DUP2 DUP5 PUSH2 0x1A25 JUMP JUMPDEST SWAP1 POP SWAP4 SWAP3 POP POP POP JUMP JUMPDEST PUSH1 0x0 PUSH2 0x1C88 PUSH2 0x1C99 JUMP JUMPDEST SWAP1 POP PUSH2 0x1C94 DUP3 DUP3 PUSH2 0x1F05 JUMP JUMPDEST SWAP2 SWAP1 POP JUMP JUMPDEST PUSH1 0x0 PUSH1 0x40 MLOAD SWAP1 POP SWAP1 JUMP JUMPDEST PUSH1 0x0 PUSH8 0xFFFFFFFFFFFFFFFF DUP3 GT ISZERO PUSH2 0x1CBE JUMPI PUSH2 0x1CBD PUSH2 0x203B JUMP JUMPDEST JUMPDEST PUSH2 0x1CC7 DUP3 PUSH2 0x207E JUMP JUMPDEST SWAP1 POP PUSH1 0x20 DUP2 ADD SWAP1 POP SWAP2 SWAP1 POP JUMP JUMPDEST PUSH1 0x0 DUP2 MLOAD SWAP1 POP SWAP2 SWAP1 POP JUMP JUMPDEST PUSH1 0x0 DUP3 DUP3 MSTORE PUSH1 0x20 DUP3 ADD SWAP1 POP SWAP3 SWAP2 POP POP JUMP JUMPDEST PUSH1 0x0 PUSH2 0x1CFB DUP3 PUSH2 0x1E7A JUMP JUMPDEST SWAP2 POP PUSH2 0x1D06 DUP4 PUSH2 0x1E7A JUMP JUMPDEST SWAP3 POP DUP3 PUSH32 0xFFFFFFFFFFFFFFFFFFFFFFFFFFFFFFFFFFFFFFFFFFFFFFFFFFFFFFFFFFFFFFFF SUB DUP3 GT ISZERO PUSH2 0x1D3B JUMPI PUSH2 0x1D3A PUSH2 0x1F7F JUMP JUMPDEST JUMPDEST DUP3 DUP3 ADD SWAP1 POP SWAP3 SWAP2 POP POP JUMP JUMPDEST PUSH1 0x0 PUSH2 0x1D51 DUP3 PUSH2 0x1E84 JUMP JUMPDEST SWAP2 POP PUSH2 0x1D5C DUP4 PUSH2 0x1E84 JUMP JUMPDEST SWAP3 POP DUP3 PUSH1 0xFF SUB DUP3 GT ISZERO PUSH2 0x1D72 JUMPI PUSH2 0x1D71 PUSH2 0x1F7F JUMP JUMPDEST JUMPDEST DUP3 DUP3 ADD SWAP1 POP SWAP3 SWAP2 POP POP JUMP JUMPDEST PUSH1 0x0 PUSH2 0x1D88 DUP3 PUSH2 0x1E7A JUMP JUMPDEST SWAP2 POP PUSH2 0x1D93 DUP4 PUSH2 0x1E7A JUMP JUMPDEST SWAP3 POP DUP3 PUSH2 0x1DA3 JUMPI PUSH2 0x1DA2 PUSH2 0x1FAE JUMP JUMPDEST JUMPDEST DUP3 DUP3 DIV SWAP1 POP SWAP3 SWAP2 POP POP JUMP JUMPDEST PUSH1 0x0 PUSH2 0x1DB9 DUP3 PUSH2 0x1E7A JUMP JUMPDEST SWAP2 POP PUSH2 0x1DC4 DUP4 PUSH2 0x1E7A JUMP JUMPDEST SWAP3 POP DUP2 PUSH32 0xFFFFFFFFFFFFFFFFFFFFFFFFFFFFFFFFFFFFFFFFFFFFFFFFFFFFFFFFFFFFFFFF DIV DUP4 GT DUP3 ISZERO ISZERO AND ISZERO PUSH2 0x1DFD JUMPI PUSH2 0x1DFC PUSH2 0x1F7F JUMP JUMPDEST JUMPDEST DUP3 DUP3 MUL SWAP1 POP SWAP3 SWAP2 POP POP JUMP JUMPDEST PUSH1 0x0 PUSH2 0x1E13 DUP3 PUSH2 0x1E7A JUMP JUMPDEST SWAP2 POP PUSH2 0x1E1E DUP4 PUSH2 0x1E7A JUMP JUMPDEST SWAP3 POP DUP3 DUP3 LT ISZERO PUSH2 0x1E31 JUMPI PUSH2 0x1E30 PUSH2 0x1F7F JUMP JUMPDEST JUMPDEST DUP3 DUP3 SUB SWAP1 POP SWAP3 SWAP2 POP POP JUMP JUMPDEST PUSH1 0x0 PUSH2 0x1E47 DUP3 PUSH2 0x1E5A JUMP JUMPDEST SWAP1 POP SWAP2 SWAP1 POP JUMP JUMPDEST PUSH1 0x0 DUP2 ISZERO ISZERO SWAP1 POP SWAP2 SWAP1 POP JUMP JUMPDEST PUSH1 0x0 PUSH20 0xFFFFFFFFFFFFFFFFFFFFFFFFFFFFFFFFFFFFFFFF DUP3 AND SWAP1 POP SWAP2 SWAP1 POP JUMP JUMPDEST PUSH1 0x0 DUP2 SWAP1 POP SWAP2 SWAP1 POP JUMP JUMPDEST PUSH1 0x0 PUSH1 0xFF DUP3 AND SWAP1 POP SWAP2 SWAP1 POP JUMP JUMPDEST DUP3 DUP2 DUP4 CALLDATACOPY PUSH1 0x0 DUP4 DUP4 ADD MSTORE POP POP POP JUMP JUMPDEST PUSH1 0x0 JUMPDEST DUP4 DUP2 LT ISZERO PUSH2 0x1EBE JUMPI DUP1 DUP3 ADD MLOAD DUP2 DUP5 ADD MSTORE PUSH1 0x20 DUP2 ADD SWAP1 POP PUSH2 0x1EA3 JUMP JUMPDEST DUP4 DUP2 GT ISZERO PUSH2 0x1ECD JUMPI PUSH1 0x0 DUP5 DUP5 ADD MSTORE JUMPDEST POP POP POP POP JUMP JUMPDEST PUSH1 0x0 PUSH1 0x2 DUP3 DIV SWAP1 POP PUSH1 0x1 DUP3 AND DUP1 PUSH2 0x1EEB JUMPI PUSH1 0x7F DUP3 AND SWAP2 POP JUMPDEST PUSH1 0x20 DUP3 LT DUP2 EQ ISZERO PUSH2 0x1EFF JUMPI PUSH2 0x1EFE PUSH2 0x1FDD JUMP JUMPDEST JUMPDEST POP SWAP2 SWAP1 POP JUMP JUMPDEST PUSH2 0x1F0E DUP3 PUSH2 0x207E JUMP JUMPDEST DUP2 ADD DUP2 DUP2 LT PUSH8 0xFFFFFFFFFFFFFFFF DUP3 GT OR ISZERO PUSH2 0x1F2D JUMPI PUSH2 0x1F2C PUSH2 0x203B JUMP JUMPDEST JUMPDEST DUP1 PUSH1 0x40 MSTORE POP POP POP JUMP JUMPDEST PUSH1 0x0 PUSH2 0x1F41 DUP3 PUSH2 0x1E7A JUMP JUMPDEST SWAP2 POP PUSH32 0xFFFFFFFFFFFFFFFFFFFFFFFFFFFFFFFFFFFFFFFFFFFFFFFFFFFFFFFFFFFFFFFF DUP3 EQ ISZERO PUSH2 0x1F74 JUMPI PUSH2 0x1F73 PUSH2 0x1F7F JUMP JUMPDEST JUMPDEST PUSH1 0x1 DUP3 ADD SWAP1 POP SWAP2 SWAP1 POP JUMP JUMPDEST PUSH32 0x4E487B7100000000000000000000000000000000000000000000000000000000 PUSH1 0x0 MSTORE PUSH1 0x11 PUSH1 0x4 MSTORE PUSH1 0x24 PUSH1 0x0 REVERT JUMPDEST PUSH32 0x4E487B7100000000000000000000000000000000000000000000000000000000 PUSH1 0x0 MSTORE PUSH1 0x12 PUSH1 0x4 MSTORE PUSH1 0x24 PUSH1 0x0 REVERT JUMPDEST PUSH32 0x4E487B7100000000000000000000000000000000000000000000000000000000 PUSH1 0x0 MSTORE PUSH1 0x22 PUSH1 0x4 MSTORE PUSH1 0x24 PUSH1 0x0 REVERT JUMPDEST PUSH32 0x4E487B7100000000000000000000000000000000000000000000000000000000 PUSH1 0x0 MSTORE PUSH1 0x32 PUSH1 0x4 MSTORE PUSH1 0x24 PUSH1 0x0 REVERT JUMPDEST PUSH32 0x4E487B7100000000000000000000000000000000000000000000000000000000 PUSH1 0x0 MSTORE PUSH1 0x41 PUSH1 0x4 MSTORE PUSH1 0x24 PUSH1 0x0 REVERT JUMPDEST PUSH1 0x0 DUP1 REVERT JUMPDEST PUSH1 0x0 DUP1 REVERT JUMPDEST PUSH1 0x0 DUP1 REVERT JUMPDEST PUSH1 0x0 DUP1 REVERT JUMPDEST PUSH1 0x0 PUSH1 0x1F NOT PUSH1 0x1F DUP4 ADD AND SWAP1 POP SWAP2 SWAP1 POP JUMP JUMPDEST PUSH32 0x43616C6C6572206973206E6F74206F776E657200000000000000000000000000 PUSH1 0x0 DUP3 ADD MSTORE POP JUMP JUMPDEST PUSH32 0x596F752063616E742073656E64207468697320616D6F756E74206F66206D6F6E PUSH1 0x0 DUP3 ADD MSTORE PUSH32 0x65792C2062656361757365207468656E2072656365697665722077696C6C2068 PUSH1 0x20 DUP3 ADD MSTORE PUSH32 0x617665206D6F7265207468616E206D617820616D6F756E74206F66204A445275 PUSH1 0x40 DUP3 ADD MSTORE PUSH32 0x626C657300000000000000000000000000000000000000000000000000000000 PUSH1 0x60 DUP3 ADD MSTORE POP JUMP JUMPDEST PUSH32 0x416D6F756E74206F66204A445275626C6573206D757374206265206772656174 PUSH1 0x0 DUP3 ADD MSTORE PUSH32 0x6572207468616E20300000000000000000000000000000000000000000000000 PUSH1 0x20 DUP3 ADD MSTORE POP JUMP JUMPDEST PUSH2 0x21AB DUP2 PUSH2 0x1E3C JUMP JUMPDEST DUP2 EQ PUSH2 0x21B6 JUMPI PUSH1 0x0 DUP1 REVERT JUMPDEST POP JUMP JUMPDEST PUSH2 0x21C2 DUP2 PUSH2 0x1E7A JUMP JUMPDEST DUP2 EQ PUSH2 0x21CD JUMPI PUSH1 0x0 DUP1 REVERT JUMPDEST POP JUMP INVALID MSIZE PUSH16 0x752063616E27742073656E64206D6F72 PUSH6 0x207468616E20 PUSH26 0x6F752068617665204A445275626C65732028596F757220616363 PUSH16 0x756E742077617320746F74616C6C7920 PUSH3 0x6C6F63 PUSH12 0x656420627920726561736F6E GASPRICE EXP MULMOD MSIZE PUSH16 0x752063616E27742073656E64206D6F72 PUSH6 0x207468616E20 PUSH26 0x6F75206861766520756E626C6F636B6564204A445275626C6573 KECCAK256 0x28 LOG2 PUSH5 0x6970667358 0x22 SLT KECCAK256 CALL DUP10 0xE6 0x27 PUSH14 0xD419511F91B7B84700839B5FA247 GT SWAP13 STATICCALL 0xD SWAP16 0x21 0xD0 0xB6 SWAP5 0xC4 SLOAD 0x5C SWAP16 PUSH5 0x736F6C6343 STOP ADDMOD SMOD STOP CALLER "
		},
		"gasEstimates": {
			"creation": {
				"codeDepositCost": "1770600",
				"executionCost": "infinite",
				"totalCost": "infinite"
			},
			"external": {
				"addBlockReason(uint256,string)": "infinite",
				"balances(address)": "2882",
				"blockReasons(uint256)": "infinite",
				"blockReasonsMap(uint256)": "infinite",
				"blockUserSomeSum(address,uint256,uint256)": "infinite",
				"blockUserTotally(address,uint256)": "54425",
				"blockedUsers(address)": "infinite",
				"change_owner(address)": "infinite",
				"getAllReasons()": "infinite",
				"getReason(uint256)": "infinite",
				"mint(uint256)": "infinite",
				"owner()": "2556",
				"transfer(address,uint256)": "infinite",
				"unblockUser(address)": "37196"
			},
			"internal": {
				"concateBytesArrs(bytes memory,bytes memory)": "infinite",
				"uint2str(uint256)": "infinite"
			}
		},
		"methodIdentifiers": {
			"addBlockReason(uint256,string)": "070f843f",
			"balances(address)": "27e235e3",
			"blockReasons(uint256)": "2cfdbf71",
			"blockReasonsMap(uint256)": "faea13a3",
			"blockUserSomeSum(address,uint256,uint256)": "cbcabdb2",
			"blockUserTotally(address,uint256)": "6b9939f4",
			"blockedUsers(address)": "3af2d5e7",
			"change_owner(address)": "253c8bd4",
			"getAllReasons()": "399a158a",
			"getReason(uint256)": "b7928b4f",
			"mint(uint256)": "a0712d68",
			"owner()": "8da5cb5b",
			"transfer(address,uint256)": "a9059cbb",
			"unblockUser(address)": "39d319e5"
		}
	},
	"abi": [
		{
			"inputs": [],
			"stateMutability": "nonpayable",
			"type": "constructor"
		},
		{
			"anonymous": false,
			"inputs": [
				{
					"indexed": false,
					"internalType": "address",
					"name": "who",
					"type": "address"
				},
				{
					"indexed": false,
					"internalType": "uint256",
					"name": "amount",
					"type": "uint256"
				}
			],
			"name": "Minted",
			"type": "event"
		},
		{
			"anonymous": false,
			"inputs": [
				{
					"indexed": false,
					"internalType": "address",
					"name": "from",
					"type": "address"
				},
				{
					"indexed": false,
					"internalType": "address",
					"name": "to",
					"type": "address"
				}
			],
			"name": "OwnerChanged",
			"type": "event"
		},
		{
			"anonymous": false,
			"inputs": [
				{
					"indexed": false,
					"internalType": "address",
					"name": "from",
					"type": "address"
				},
				{
					"indexed": false,
					"internalType": "address",
					"name": "to",
					"type": "address"
				},
				{
					"indexed": false,
					"internalType": "uint256",
					"name": "amount",
					"type": "uint256"
				}
			],
			"name": "Transfered",
			"type": "event"
		},
		{
			"inputs": [
				{
					"internalType": "uint256",
					"name": "reasonId",
					"type": "uint256"
				},
				{
					"internalType": "string",
					"name": "reason",
					"type": "string"
				}
			],
			"name": "addBlockReason",
			"outputs": [],
			"stateMutability": "nonpayable",
			"type": "function"
		},
		{
			"inputs": [
				{
					"internalType": "address",
					"name": "",
					"type": "address"
				}
			],
			"name": "balances",
			"outputs": [
				{
					"internalType": "uint256",
					"name": "",
					"type": "uint256"
				}
			],
			"stateMutability": "view",
			"type": "function"
		},
		{
			"inputs": [
				{
					"internalType": "uint256",
					"name": "",
					"type": "uint256"
				}
			],
			"name": "blockReasons",
			"outputs": [
				{
					"internalType": "uint256",
					"name": "reasonCode",
					"type": "uint256"
				},
				{
					"internalType": "string",
					"name": "reason",
					"type": "string"
				}
			],
			"stateMutability": "view",
			"type": "function"
		},
		{
			"inputs": [
				{
					"internalType": "uint256",
					"name": "",
					"type": "uint256"
				}
			],
			"name": "blockReasonsMap",
			"outputs": [
				{
					"internalType": "uint256",
					"name": "",
					"type": "uint256"
				}
			],
			"stateMutability": "view",
			"type": "function"
		},
		{
			"inputs": [
				{
					"internalType": "address",
					"name": "user",
					"type": "address"
				},
				{
					"internalType": "uint256",
					"name": "reasonId",
					"type": "uint256"
				},
				{
					"internalType": "uint256",
					"name": "blockedLimit",
					"type": "uint256"
				}
			],
			"name": "blockUserSomeSum",
			"outputs": [],
			"stateMutability": "nonpayable",
			"type": "function"
		},
		{
			"inputs": [
				{
					"internalType": "address",
					"name": "user",
					"type": "address"
				},
				{
					"internalType": "uint256",
					"name": "reasonId",
					"type": "uint256"
				}
			],
			"name": "blockUserTotally",
			"outputs": [],
			"stateMutability": "nonpayable",
			"type": "function"
		},
		{
			"inputs": [
				{
					"internalType": "address",
					"name": "",
					"type": "address"
				}
			],
			"name": "blockedUsers",
			"outputs": [
				{
					"internalType": "uint256",
					"name": "reasonCode",
					"type": "uint256"
				},
				{
					"internalType": "bool",
					"name": "isTotalBlocked",
					"type": "bool"
				},
				{
					"internalType": "uint256",
					"name": "blockLimit",
					"type": "uint256"
				}
			],
			"stateMutability": "view",
			"type": "function"
		},
		{
			"inputs": [
				{
					"internalType": "address",
					"name": "receiver",
					"type": "address"
				}
			],
			"name": "change_owner",
			"outputs": [],
			"stateMutability": "nonpayable",
			"type": "function"
		},
		{
			"inputs": [],
			"name": "getAllReasons",
			"outputs": [
				{
					"internalType": "string",
					"name": "_reasons",
					"type": "string"
				}
			],
			"stateMutability": "view",
			"type": "function"
		},
		{
			"inputs": [
				{
					"internalType": "uint256",
					"name": "rid",
					"type": "uint256"
				}
			],
			"name": "getReason",
			"outputs": [
				{
					"internalType": "string",
					"name": "_reason",
					"type": "string"
				}
			],
			"stateMutability": "view",
			"type": "function"
		},
		{
			"inputs": [
				{
					"internalType": "uint256",
					"name": "amount",
					"type": "uint256"
				}
			],
			"name": "mint",
			"outputs": [],
			"stateMutability": "nonpayable",
			"type": "function"
		},
		{
			"inputs": [],
			"name": "owner",
			"outputs": [
				{
					"internalType": "address",
					"name": "",
					"type": "address"
				}
			],
			"stateMutability": "view",
			"type": "function"
		},
		{
			"inputs": [
				{
					"internalType": "address",
					"name": "receiver",
					"type": "address"
				},
				{
					"internalType": "uint256",
					"name": "amount",
					"type": "uint256"
				}
			],
			"name": "transfer",
			"outputs": [],
			"stateMutability": "nonpayable",
			"type": "function"
		},
		{
			"inputs": [
				{
					"internalType": "address",
					"name": "user",
					"type": "address"
				}
			],
			"name": "unblockUser",
			"outputs": [],
			"stateMutability": "nonpayable",
			"type": "function"
		}
	]
}